:0C0000000C94E1060C9400000C9400002D
:10000C000C9400000C9400000C9400000C94000064
:10001C000C9400000C9400000C9400000C94000054
:10002C000C9400000C9400000C94E6090C94000055
:10003C000C9400000C9400000C94C9090C94000062
:10004C000C9400000C9400000C9400000C94000024
:10005C000C9400000C9400000C9400000C94000014
:10006C000C9400000C9400000C9400000C94000004
:10007C000C9400000C9400000C9400000C940000F4
:10008C000C9400000C9400000C94000020222A2BED
:10009C002C5B3D5D7C7F00000004000200018000B1
:1000AC004000200010000800040002000000008046
:1000BC000040002000100008004000200010000844
:1000CC000004000203030302020C000800010006F6
:1000DC00637C777BF26B6FC53001672BFED7AB76F9
:1000EC00CA82C97DFA5947F0ADD4A2AF9CA472C0A4
:1000FC00B7FD9326363FF7CC34A5E5F171D8311511
:10010C0004C723C31896059A071280E2EB27B27531
:10011C0009832C1A1B6E5AA0523BD6B329E32F84A9
:10012C0053D100ED20FCB15B6ACBBE394A4C58CFA1
:10013C00D0EFAAFB434D338545F9027F503C9FA875
:10014C0051A3408F929D38F5BCB6DA2110FFF3D243
:10015C00CD0C13EC5F974417C4A77E3D645D1973F7
:10016C0060814FDC222A908846EEB814DE5E0BDBF1
:10017C00E0323A0A4906245CC2D3AC629195E47928
:10018C00E7C8376D8DD54EA96C56F4EA657AAE0882
:10019C00BA78252E1CA6B4C6E8DD741F4BBD8B8A1D
:1001AC00703EB5664803F60E613557B986C11D9E83
:1001BC00E1F8981169D98E949B1E87E9CE5528DFFA
:1001CC008CA1890DBFE6426841992D0FB054BB1626
:1001DC0052096AD53036A538BF40A39E81F3D7FBB0
:1001EC007CE339829B2FFF87348E4344C4DEE9CBFA
:1001FC00547B9432A6C2233DEE4C950B42FAC34E6F
:10020C00082EA16628D924B2765BA2496D8BD12524
:10021C0072F8F66486689816D4A45CCC5D65B692C8
:10022C006C704850FDEDB9DA5E154657A78D9D846C
:10023C0090D8AB008CBCD30AF7E45805B8B345068C
:10024C00D02C1E8FCA3F0F02C1AFBD0301138A6BA6
:10025C003A9111414F67DCEA97F2CFCEF0B4E673D6
:10026C0096AC7422E7AD3585E2F937E81C75DF6E84
:10027C0047F11A711D29C5896FB7620EAA18BE1BEA
:10028C00FC563E4BC6D279209ADBC0FE78CD5AF490
:10029C001FDDA8338807C731B11210592780EC5FD6
:1002AC0060517FA919B54A0D2DE57A9F93C99CEF32
:1002BC00A0E03B4DAE2AF5B0C8EBBB3C8353996133
:1002CC00172B047EBA77D626E169146355210C7D71
:1002DC008D01020408102040801B36000003060527
:1002EC000C0F0A09181B1E1D14171211303336354A
:1002FC003C3F3A39282B2E2D24272221606366653A
:10030C006C6F6A69787B7E7D747772715053565529
:10031C005C5F5A59484B4E4D44474241C0C3C6C519
:10032C00CCCFCAC9D8DBDEDDD4D7D2D1F0F3F6F509
:10033C00FCFFFAF9E8EBEEEDE4E7E2E1A0A3A6A5F9
:10034C00ACAFAAA9B8BBBEBDB4B7B2B190939695E9
:10035C009C9F9A99888B8E8D848782819B989D9E79
:10036C0097949192838085868F8C898AABA8ADAE49
:10037C00A7A4A1A2B3B0B5B6BFBCB9BAFBF8FDFE39
:10038C00F7F4F1F2E3E0E5E6EFECE9EACBC8CDCE29
:10039C00C7C4C1C2D3D0D5D6DFDCD9DA5B585D5E19
:1003AC0057545152434045464F4C494A6B686D6E09
:1003BC0067646162737075767F7C797A3B383D3EF9
:1003CC0037343132232025262F2C292A0B080D0EE9
:1003DC0007040102131015161F1C191A000204063B
:1003EC00080A0C0E10121416181A1C1E2022242691
:1003FC00282A2C2E30323436383A3C3E4042444681
:10040C00484A4C4E50525456585A5C5E6062646670
:10041C00686A6C6E70727476787A7C7E8082848660
:10042C00888A8C8E90929496989A9C9EA0A2A4A650
:10043C00A8AAACAEB0B2B4B6B8BABCBEC0C2C4C640
:10044C00C8CACCCED0D2D4D6D8DADCDEE0E2E4E630
:10045C00E8EAECEEF0F2F4F6F8FAFCFE1B191F1DBC
:10046C00131117150B090F0D030107053B393F3D00
:10047C00333137352B292F2D232127255B595F5DF0
:10048C00535157554B494F4D434147457B797F7DE0
:10049C00737177756B696F6D636167659B999F9DD0
:1004AC00939197958B898F8D83818785BBB9BFBDC0
:1004BC00B3B1B7B5ABA9AFADA3A1A7A5DBD9DFDDB0
:1004CC00D3D1D7D5CBC9CFCDC3C1C7C5FBF9FFFDA0
:1004DC00F3F1F7F5EBE9EFEDE3E1E7E50009121BCA
:1004EC00242D363F48415A536C657E779099828B08
:1004FC00B4BDA6AFD8D1CAC3FCF5EEE73B32292078
:10050C001F160D04737A6168575E454CABA2B9B0E7
:10051C008F869D94E3EAF1F8C7CED5DC767F646DC7
:10052C00525B40493E372C251A130801E6EFF4FDC7
:10053C00C2CBD0D9AEA7BCB58A8398914D445F5637
:10054C0069607B72050C171E2128333ADDD4CFC6A7
:10055C00F9F0EBE2959C878EB1B8A3AAECE5FEF717
:10056C00C8C1DAD3A4ADB6BF8089929B7C756E6787
:10057C0058514A43343D262F1019020BD7DEC5CCF7
:10058C00F3FAE1E89F968D84BBB2A9A0474E555C67
:10059C00636A71780F061D142B2239309A93888167
:1005AC00BEB7ACA5D2DBC0C9F6FFE4ED0A03181147
:1005BC002E273C35424B5059666F747DA1A8B3BAB7
:1005CC00858C979EE9E0FBF2CDC4DFD63138232A27
:1005DC00151C070E79706B625D544F46000B161D8F
:1005EC002C273A3158534E45747F6269B0BBA6AD87
:1005FC009C978A81E8E3FEF5C4CFD2D97B706D66F7
:10060C00575C414A2328353E0F041912CBC0DDD666
:10061C00E7ECF1FA9398858EBFB4A9A2F6FDE0EB56
:10062C00DAD1CCC7AEA5B8B38289949F464D505B46
:10063C006A617C771E1508033239242F8D869B90B6
:10064C00A1AAB7BCD5DEC3C8F9F2EFE43D362B2026
:10065C00111A070C656E737849425F54F7FCE1EA96
:10066C00DBD0CDC6AFA4B9B28388959E474C515A06
:10067C006B607D761F1409023338252E8C879A9176
:10068C00A0ABB6BDD4DFC2C9F8F3EEE53C372A21E6
:10069C00101B060D646F727948435E55010A171CD6
:1006AC002D263B3059524F44757E6368B1BAA7ACC6
:1006BC009D968B80E9E2FFF4C5CED3D87A716C6736
:1006CC00565D404B2229343F0E051813CAC1DCD7A6
:1006DC00E6EDF0FB9299848FBEB5A8A3000D1A1716
:1006EC0034392E236865727F5C51464BD0DDCAC706
:1006FC00E4E9FEF3B8B5A2AF8C81969BBBB6A1AC76
:10070C008F829598D3DEC9C4E7EAFDF06B66717CE5
:10071C005F524548030E1914373A2D206D60777AD5
:10072C005954434E05081F12313C2B26BDB0A7AAC5
:10073C008984939ED5D8CFC2E1ECFBF6D6DBCCC135
:10074C00E2EFF8F5BEB3A4A98A87909D060B1C11A5
:10075C00323F28256E6374795A57404DDAD7C0CD95
:10076C00EEE3F4F9B2BFA8A5868B9C910A07101D85
:10077C003E332429626F7875565B4C41616C7B76F5
:10078C0055584F420904131E3D30272AB1BCABA665
:10079C0085889F92D9D4C3CEEDE0F7FAB7BAADA055
:1007AC00838E9994DFD2C5C8EBE6F1FC676A7D7045
:1007BC00535E49440F0215183B36212C0C01161BB5
:1007CC003835222F64697E73505D4A47DCD1C6CB25
:1007DC00E8E5F2FFB4B9AEA3808D9A97000E1C1217
:1007EC003836242A707E6C624846545AE0EEFCF28D
:1007FC00D8D6C4CA909E8C82A8A6B4BADBD5C7C979
:10080C00E3EDFFF1ABA5B7B9939D8F813B3527295C
:10081C00030D1F114B455759737D6F61ADA3B1BFCC
:10082C00959B8987DDD3C1CFE5EBF9F74D43515F3C
:10083C00757B69673D33212F050B191776786A6430
:10084C004E40525C06081A143E30222C96988A842C
:10085C00AEA0B2BCE6E8FAF4DED0C2CC414F5D5398
:10086C007977656B313F2D230907151BA1AFBDB3FC
:10087C009997858BD1DFCDC3E9E7F5FB9A948688F0
:10088C00A2ACBEB0EAE4F6F8D2DCCEC07A746668EC
:10089C00424C5E500A041618323C2E20ECE2F0FE5C
:1008AC00D4DAC8C69C92808EA4AAB8B60C02101ECC
:1008BC00343A28267C72606E444A585637392B25B8
:1008CC000F01131D47495B557F71636DD7D9CBC59C
:1008DC00EFE1F3FDA7A9BBB59F91838D28312920AA
:1008EC00412068617264206572726F72206F63635D
:1008FC007572656420696E20746865206C6F772052
:10090C006C6576656C206469736B20492F4F206C85
:10091C00617965720028322920417373657274699C
:10092C006F6E206661696C656400283329205468F9
:10093C006520706879736963616C2064726976658F
:10094C0020646F65736E277420776F726B2000289C
:10095C00342920436F756C64206E6F742066696E49
:10096C0064207468652066696C650028352920430D
:10097C006F756C64206E6F742066696E6420746889
:10098C0065207061746800283629205468652070D1
:10099C00617468206E616D6520666F726D61742084
:1009AC00697320696E76616C69640028372920416F
:1009BC00636365732064656E696564206475652086
:1009CC00746F2070726F686962697465642061630A
:1009DC0063657373206F72206469726563746F72E0
:1009EC00792066756C6C200028382920416363657A
:1009FC00732064656E6965642064756520746F206E
:100A0C0070726F6869626974656420616363657391
:100A1C00732000283929205468652066696C652F7D
:100A2C006469726563746F7279206F626A6563744E
:100A3C0020697320696E76616C69642000283130FE
:100A4C00292054686520706879736963616C20642F
:100A5C00726976652069732077726974652070728B
:100A6C006F746563746564200028313129205468E3
:100A7C0065206C6F676963616C20647269766520B0
:100A8C006E756D62657220697320696E76616C6932
:100A9C00642000283132292054686520766F6C75EB
:100AAC006D6520686173206E6F20776F726B2061AB
:100ABC0072656120002831332920546865726520E5
:100ACC006973206E6F2076616C69642046415420F6
:100ADC00766F6C756D6520002831342920665F6D4A
:100AEC006B667328292061626F727465642064756B
:100AFC006520746F206120706172616D6574657220
:100B0C00206572726F7220002831352920436F7571
:100B1C006C64206E6F7420616363657373207468FA
:100B2C006520766F6C756D652077697468696E20C9
:100B3C0074686520646566696E65642070657269A9
:100B4C006F64200050726F796563746F2041455358
:100B5C00004D454E55204349465241444F20414596
:100B6C00532020203129434946524152202032291A
:100B7C004445534349465241520A0D000A0D446103
:100B8C0020656C206E6F6D6272652064656C2061EF
:100B9C0072636869766F206465206C61206C6C618F
:100BAC0076653A20002573004572726F7220656E6F
:100BBC0020656C206172636869766F206465206CB7
:100BCC0061206C6C6176650A0D00446120656C20B7
:100BDC006E6F6D6272652064656C2061726368690A
:100BEC00766F2061206369667261723A20004172EF
:100BFC00636869766F20656E636F6E747261646F83
:100C0C000A0D0043696672616E646F2E2E2E0041D0
:100C1C0072636869766F20637269667261646F20B3
:100C2C00656E20256C75206D7365672028256C75A5
:100C3C0020626C6F71756573290A0D0A0D0045727F
:100C4C00726F7220616C2067656E657261722061D3
:100C5C0072636869766F2064652073616C69646186
:100C6C00202569004172636869766F206E6F20657C
:100C7C006E636F6E747261646F0A0D004572726FF1
:100C8C007220656E20656C206172636869766F20D6
:100C9C006465206C61206C6C6176652025690A0D99
:100CAC0000446120656C206E6F6D62726520646516
:100CBC006C206172636869766F2061206465736370
:100CCC0069667261723A2000446120656C206E6F17
:100CDC006D6272652064656C206172636869766F01
:100CEC002064652073616C6964613A20004465730B
:100CFC0063696672616E646F2E2E2E00417263689A
:100D0C0069766F20646573637269667261646F20C3
:100D1C00656E20256C75206D7365672028256C75B4
:100D2C0020626C6F71756573290A0D0A0D0044728F
:100D3C00697665204E4F2044657465637461646FF9
:100D4C0000000100EBFE904D53444F53352E300004
:100D5C004E4F204E414D45202020204641543332E9
:100D6C00202020004E4F204E414D45202020204673
:100D7C0041542020202020000001AD0DDC0000019A
:100D8C00AD0EDC010B00AD0FDC020001B80FE80268
:100D9C000001B810E8030001B811E8040001B81212
:100DAC00E8050001B813E8060001B814E8070100D3
:100DBC00B8154E0D0000F894EE27EFBBF1E0F5BF2F
:100DCC00E5BF8DE0A2E0BB27ED938A95E9F780E0C3
:100DDC0090E2A0E0B1E0ED930197E9F7E4E8FDE0E3
:100DEC0085919591009761F0A591B591059015901D
:100DFC00BF01F00105900D920197E1F7FB01F0CFD7
:100E0C008BBFE0E0EEBBEFEFEDBFE0E2EEBFC8EB77
:100E1C00DCE00C94FB092C978CE0A0E0B0E0E0ED5A
:100E2C00F0E00E944F290A93849A859A809A819ABD
:100E3C00829A839AA2E3B0E00E94002800E00C3072
:100E4C0058F40E9403230E940723AE0FBF1FAC91DE
:100E5C000E940C230F5FF3CFECE0E093BC0CA0914D
:100E6C00BC0C20D008812D9608958C9A8C980895EE
:100E7C00AA93E881E87011F08B9A01C08B98E881F5
:100E8C00E47011F08A9A01C08A98E881E27011F03E
:100E9C00899A01C08998E881E17011F0889A01C0A3
:100EAC0088983BC0AA930A938D980E9403230E94B2
:100EBC0010230E941723D9DF0881A1C0AA930A939B
:100ECC008D9A0E9403230E9410230E941723CDDFCA
:100EDC00088195C0BA93AA930A9300E0E02F0F5FA4
:100EEC00A981BA81F0E0EA0FFB1FA491E7DFE02FA4
:100EFC00A981BA81F0E0EA0FFB1FE491E03071F7B1
:100F0C008FC1AA93E881F0E0E854F04F05C0AA9392
:100F1C00E881F0E0E854FF4EE08121960895BA9301
:100F2C00AA93E881F981E130A0E0FA0719F4E8EE20
:100F3C00F8E061C0E230A0E0FA0719F4E1E2F9E070
:100F4C005AC0E330A0E0FA0719F4E6E3F9E053C025
:100F5C00E430A0E0FA0719F4EBE5F9E04CC0E53019
:100F6C00A0E0FA0719F4E7E7F9E045C0E630A0E0A5
:100F7C00FA0719F4E3E9F9E03EC0E730A0E0FA071C
:100F8C0019F4E7EBF9E037C0E830A0E0FA0719F400
:100F9C00E4EFF9E030C0E930A0E0FA0719F4EFE132
:100FAC00FAE029C0EA30A0E0FA0719F4E9E4FAE023
:100FBC0022C0EB30A0E0FA0719F4E5E7FAE01BC019
:100FCC00EC30A0E0FA0719F4EFE9FAE014C0ED30C8
:100FDC00A0E0FA0719F4E1ECFAE00DC0EE30A0E065
:100FEC00FA0719F4E4EEFAE006C0EF30A0E0FA07D5
:100FFC0031F4E4E1FBE0FA93EA930E941E2322967B
:10100C000895AA93E0E0E093E60CA091E60CA031E1
:10101C0038F5E091E60CAB81BC81F0E0EA0FFB1FE8
:10102C00FF93EF93E091E60CF0E0AE0FBF1F8C91B5
:10103C006091E60C7727E881A0E1EA9FF001E60FCA
:10104C00F71FA981BA81AE0FBF1FEC91E827AF91B2
:10105C00BF91EC93E091E60CEF5FE093E60CD5CFFB
:10106C0025960895BA93AA930E94422900E0003174
:10107C0008F067C0AD81BE81EE27A00FBE1F1C918A
:10108C00E02FF0E031960E9423232C91E02FF0E02A
:10109C0032960E9423233C91E02FF0E033960E947D
:1010AC0023234C91E02FAD81BE81F0E0EA0FFB1FB2
:1010BC00FF93EF93A12F2BDFEF93A22F22DFAF91A2
:1010CC00EA27E327E427AF91BF91EC93E02FF0E000
:1010DC0031960E942823FF93EF93A22F18DFEF93F2
:1010EC00A32F0FDFAF91EA27E127E427AF91BF9140
:1010FC00EC93E02FF0E032960E942823FF93EF93BD
:10110C00A32F05DFEF93A42FFCDEAF91EA27E12795
:10111C00E227AF91BF91EC93E02FF0E033960E9461
:10112C002823FF93EF93A42FF2DEEF93A12FE9DE98
:10113C00AF91EA27E227E327AF91BF91EC930C5FC5
:10114C0096CF0E94492927960895BA93AA930A9399
:10115C0000E0E0E0E093E60CA091E60CA03188F40E
:10116C000E942D230C910E942D23E02FF0E0E355DB
:10117C00F24FE081EC93E091E60CEF5FE093E60C2C
:10118C00EBCF4EC00E94352311960C91E981FA8168
:10119C00E581A981BA811196EC93E981FA81E18507
:1011AC00A981BA811596EC93E981FA81E585A9812B
:1011BC00BA811996EC93E981FA810587A981BA81E4
:1011CC0012960C91E285A981BA811296EC93E98171
:1011DC00FA810287A981BA8116960C91E685A981BC
:1011EC00BA811696EC93E981FA810687A981BA81B6
:1011FC001F960C91E385A981BA811F96EC93E98126
:10120C00FA81E781A981BA811B96EC93E981FA8175
:10121C00E381A981BA811796EC93E981FA81038362
:10122C00088123960895BA93AA9324970E94432980
:10123C0000E110E0003B08F05EC020E02430B8F480
:10124C000E943B23BF01A22FBB27EE27A00FBE1F7E
:10125C00E4E0F0E00E942629EA1BFB0BA885B98587
:10126C00AE0FBF1FEC91DB01EC932F5FE7CFA02FEC
:10127C00BB27E0E1F0E00E94D728309719F53C81BC
:10128C00ED81EC83EE81ED83EF81EE83FE013796E9
:10129C00308320E0243068F40E943B230F010E942D
:1012AC004223F0E0E355F24FE081D001EC932F5F45
:1012BC00F1CFE12FF0E0E355F04FE081AC81EA276C
:1012CC00EC831F5F20E02430A8F4E02FA885B985BB
:1012DC00F0E0EA0FFB1FBF01E02FF0E07097AE0FBC
:1012EC00BF1F0C900E944223E025DB01EC930F5FA3
:1012FC002F5FE9CF9FCF0E944A292A960895BA936F
:10130C00AA9360970A9300E0003178F40E940723B7
:10131C00EA0FFB1F0F01AB89BC89EE27A00FBE1F84
:10132C00EC91D001EC930F5FEFCF0E944A23A0E029
:10133C0068DE01E00A3058F40E945323DE01119656
:10134C0091DE0E944A23A02F5CDE0F5FF3CF0E9438
:10135C0053230E944A23AAE054DE00E0003180F4BB
:10136C00E02FAB89BC89F0E0EA0FFB1F0F010E9454
:10137C000723AE0FBF1FEC91D001EC930F5FEECFA4
:10138C000881659608950A921A92FA926A937A9352
:10139C008A939A93AA93BA93EA93FA93EFB7EA9340
:1013AC000E94E810E991EFBFF991E991B991A991E7
:1013BC009991899179916991F99019900990189561
:1013CC006A937A93AA93BA93EA93FA93EFB7EA9350
:1013DC00ADEDBCE00E945B23E991EFBFF991E9917F
:1013EC00B991A991799169911895EF97E397D65096
:1013FC00E0E8E0936100E1E0E0936100E0E3E0937A
:10140C00BD0CEAE3E093BE0CE0E0E093C800E8E139
:10141C00E093C900E6E0E093CA00E0E0E093CD0081
:10142C00E3E3E093CC00E2E0E093B000E3E0E09390
:10143C00B100E9EFE093B300E2E0E0937000EAE082
:10144C00E0938100E7E2E0938900EFE0E09388000D
:10145C00E2E0E0936F000E941107A0E5BBE03ADDEB
:10146C007894A0E00E949C0DA8ECB0E00E940028AB
:10147C00E0E0EA93DE01AF5BBB4F0E94461A3E2FC1
:10148C00E03009F0F0C1E091C800E07829F00E944A
:10149C00631FE093E50CF7CFEDE5FBE00E946423BE
:1014AC000E94631FE093E50CA091E50CA13309F0B9
:1014BC00E1C000E010E0E8E8FBE00E9464230E9439
:1014CC006723213120F40E9478232F5FFACF0E94EA
:1014DC0084230E948A2389F40E9484230E949423EB
:1014EC00ADB7BEB711971F930F930E94AE1B0F9110
:1014FC001F91A8EEBCE097DE06C0E4EBFBE00E9477
:10150C0064230E949D23E0E1F0E0E017F10799F6D7
:10151C000E94A123E1E0E0939C0DE6EDFBE00E942C
:10152C0064230E946723213120F40E9478232F5FCB
:10153C00FACF0E9484230E948A2309F090C0EAEF1C
:10154C00FBE00E94642320E02F5FE22FF0E0E354E5
:10155C00F34FA081AE32C1F7E22FF0E0E254F34F2B
:10156C00A1E4A083E22FF0E0E154F34FA5E4A083C3
:10157C00E22FF0E0E054F34FA3E5A0830E94A623F2
:10158C000E94AA2309F061C00E94B4230E94BD23CB
:10159C00EFE0FCE00E946423FE01E05EFD4FE2857B
:1015AC00EF702E2F0E94C623203021F0A8E9BDE059
:1015BC000E945B2320939D0D0E94A6230E94DE2394
:1015CC00E1E0F0E0FA93EA93ADB7BEB711971F9341
:1015DC000F930E941D1D0F911F91E0E0E093E70C0B
:1015EC000E94E3230E94EC2349F10E9484230E9471
:1015FC00DE230E94F423ADB7BEB711971F930F9350
:10160C000E94AE1B0F911F910E94DE23A8EEBCE03E
:10161C0076DE0E94A6230E94DE230E94F423ADB73F
:10162C00BEB711971F930F930E941D1D0F911F9111
:10163C00E091E70CEF5FE093E70CD2CF0E94F92327
:10164C00EBE1FCE00E94082407C0EAE4FCE00E9405
:10165C0064230E949D23E1E0E0939C0D04C0E0E72D
:10166C00FCE00E946423A0919C0DA13009F455CF9D
:10167C000E94A123A091E50CA23309F0F3C000E075
:10168C0010E0E8E8FBE00E9464230E94672321310C
:10169C0020F40E9478232F5FFACF0E9484230E94AB
:1016AC008A2371F40E9484230E949423ADB7BEB7A1
:1016BC0011971F930F930E94AE1B0F911F9104C0A3
:1016CC00E8E8FCE00E9464230E949D23E0E1F0E046
:1016DC00E017F107B1F60E94A123A8EEBCE0A3DD50
:1016EC00E1E0E0939C0DEDEAFCE00E9464230E9493
:1016FC006723213120F40E9478232F5FFACF0E94B8
:10170C0084230E948A2309F0A2C0EAEFFBE00E9426
:10171C006423E4EDFCE00E9464230E9467232131E2
:10172C0020F40E9478232F5FFACF0E94A6230E94F8
:10173C00AA2309F082C00E94B4230E94BD23E9EFC2
:10174C00FCE00E9464230E9484230E94DE23E1E0DB
:10175C00F0E0FA93EA93ADB7BEB711971F930F93CE
:10176C000E94AE1B0F911F9120919D0D203009F40A
:10177C0020E10E94C623E0E0E093E70CA091980DD5
:10178C00B091990D80919A0D90919B0D0E941D2402
:10179C0068F10E94E323E150F040604070400E94E9
:1017AC00EC2321F10E9484230E94DE230E94F42367
:1017BC00ADB7BEB711971F930F930E94AE1B0F913D
:1017CC001F910E94A6230E94DE230E94F423ADB732
:1017DC00BEB711971F930F930E941D1D0F911F9160
:1017EC00E091E70CEF5FE093E70CD3CF0E948423EA
:1017FC000E94DE230E94F423ADB7BEB711971F934E
:10180C000F930E94AE1B0F911F910E94A6230E9462
:10181C00DE23E22FF0E0FA93EA93ADB7BEB711974F
:10182C001F930F930E941D1D0F911F910E94F9236E
:10183C00E8E0FDE00E94082407C0EAE4FCE00E9416
:10184C0064230E949D23E1E0E0939C0D04C0E0E73B
:10185C00FCE00E946423A0919C0DA13009F443CFBD
:10186C000E94A12310CEAAE3BDE00E947007FFCF17
:10187C00FFCFFFCFAA930E94432930E01C81AD819A
:10188C00BE812D91AD83BE8308E0330FE32FE22799
:10189C00E07811F0E9E03E27220F0150B1F711502A
:1018AC0071F7E32FEE0FE1600E944A291EC50A93DF
:1018BC00E2E3E093BA15EFEFEEBDEDB5E7FFFDCF38
:1018CC00EFEFEEBDEDB5E7FFFDCF0EB50F3F21F00D
:1018DC00E091BA15E03009F401C0F2CFE02F86C4D4
:1018EC00289AEFEFEEBDEDB5E7FFFDCF0895BA9363
:1018FC00AA930E944429E4E1E093B915EFEFEEBD01
:10190C00EDB5E7FFFDCF0EB50F3F21F4E091B91512
:10191C00E03009F401C0F2CF0E3F21F0E0E00E946C
:10192C004B29E3C41D812E81EFEFEEBDEDB5E7FF32
:10193C00FDCF2F931F931F5F2F4FEEB5AF91BF912C
:10194C00EC93EFEFEEBDEDB5E7FFFDCF2F931F93BB
:10195C001F5F2F4FEEB5AF91BF91EC93EFEFEEBD44
:10196C00EDB5E7FFFDCF2F931F931F5F2F4FEEB504
:10197C00AF91BF91EC93EFEFEEBDEDB5E7FFFDCF6F
:10198C002F931F931F5F2F4FEEB5AF91BF91EC9329
:10199C00EB81FC813497EB83FC8331F6EFEFEEBDEA
:1019AC00EDB5E7FFFDCFEFEFEEBDEDB5E7FFFDCFFA
:1019BC00E1E00E944B2999C4AA930E94432977DF46
:1019CC00EF3F21F0E0E00E944A298FC4EC81EEBD8C
:1019DC00EDB5E7FFFDCFAC81AD3F69F110E02D8196
:1019EC003E81D9012F5F3F4FEC91EEBDEDB5E7FF86
:1019FC00FDCFD9012F5F3F4FEC91EEBDEDB5E7FF69
:101A0C00FDCF115071F7EFEFEEBDEDB5E7FFFDCF58
:101A1C00EFEFEEBDEDB5E7FFFDCFEFEFEEBDEDB5B2
:101A2C00E7FFFDCF0EB5E02FEF71E53021F0E0E0E0
:101A3C000E944A295AC4E1E00E944A2956C40E94D5
:101A4C001B291A930A93EE81E07881F0EE81EF77EF
:101A5C00EE83E7E7EA93A0E0B0E080E090E0EFDF10
:101A6C001E2F123018F0198108813FC4AE81AC349E
:101A7C0049F036DF28981BDFEF3F21F0EFEF19819B
:101A8C00088133C4EE81EEBDEDB5E7FFFDCFED81EE
:101A9C00EEBDEDB5E7FFFDCFEC81EEBDEDB5E7FF9B
:101AAC00FDCFEB81EEBDEDB5E7FFFDCFEA81EEBDDD
:101ABC00EDB5E7FFFDCF01E0AE81A03411F405E9EF
:101ACC0004C0AE81A83409F407E80EBDEDB5E7FFFC
:101ADC00FDCFAE81AC3429F4EFEFEEBDEDB5E7FFF1
:101AEC00FDCF0FEFEFEFEEBDEDB5E7FFFDCF1EB570
:101AFC0017FF02C0015009F401C0F4CFE12F198186
:101B0C000881F3C3BA93AA930A9304E0EFEFEEBDF6
:101B1C00EDB5E7FFFDCFA981BA811196A983BA83F0
:101B2C001197EEB5EC93015089F7C6C4AA9324978C
:101B3C000E944429EF81E03021F0E1E00E944B2922
:101B4C00AAC1EAE0E093B915E091B915E030E1F7EC
:101B5C00E091B815E27029F0E091B8150E944B297C
:101B6C009AC1209A289AE5B1E97FE5B92B9A239876
:101B7C00E4B1E760E4B9E2E5ECBDE0E0EDBD25E001
:101B8C000AE0EFEFEEBDEDB5E7FFFDCF0150C9F771
:101B9C00E0E4EA93A0E0B0E080E090E050DF1E2F9C
:101BAC002150113011F0203009F401C0E9CF20E0B0
:101BBC00113009F068C0E4E6E093B915E8E4EA9363
:101BCC00AAEAB1E080E090E03ADFE13091F5DE0185
:101BDC00139698DFAD81A13019F4AE81AA3A09F0C1
:101BEC0027C0E091B915E03049F0E9EEEA93A0E0A6
:101BFC00B0E080E090E423DFE03009F401C0F1CFE5
:101C0C00E091B915E03049F0EAE7EA93A0E0B0E0E2
:101C1C0080E090E014DFE03009F00AC0DE0113969A
:101C2C0071DFEB81E07411F0ECE001C0E4E02E2FE9
:101C3C002AC0E9EEEA93A0E0B0E080E090E0FFDE9D
:101C4C00E23018F422E019EE02C021E011E4E09138
:101C5C00B915E03041F01A93A0E0B0E080E090E0DC
:101C6C00EEDEE03009F401C0F2CFE091B915E030BE
:101C7C0049F0E0E5EA93A0E0B2E080E090E0DFDE3E
:101C8C00E03009F020E02093BB152ADE203051F023
:101C9C00E091B815EE7FE093B815E0E5ECBDE1E01E
:101CAC00EDBD11C0289803DE1BDEE0E0ECBDE4B115
:101CBC00E07FE4B9E5B1E07FE5B92098E091B81593
:101CCC00E160E093B815E091B8150E944B29E3C090
:101CDC00AA93E881E03011F0E1E002C0E091B81580
:101CEC0021960895AA93EF81E03019F4E881E03051
:101CFC0011F4E4E0D0C0E091B815E17011F0E3E02C
:101D0C00CAC0E091BB15E87071F4E981FA816B816E
:101D1C007C81A0E0B2E080E090E00E947928E98329
:101D2C00FA836B837C83A881A130A9F4E1E5EA9363
:101D3C00AA81BB818C819D8182DEE03059F4ED81DA
:101D4C00FE81FA93EA93A0E0B2E0D1DDE03011F02D
:101D5C00E0E0E88323C0E2E5EA93AA81BB818C81B1
:101D6C009D816DDEE030D1F4ED81FE81FA93EA9332
:101D7C00A0E0B2E0BCDDE03051F0ED81FE81E0503E
:101D8C00FE4FED83FE83E881E150E88369F7ECE4D4
:101D9C00EA93A0E0B0E080E090E051DEA1DDE881C4
:101DAC00E03011F0E1E001C0E0E075C0AA93EF81F2
:101DBC00E03019F4E881E03011F4E4E06CC0E0911B
:101DCC00B815E17011F0E3E066C0E091B815E4706D
:101DDC0011F0E2E060C0E091BB15E87071F4E981AC
:101DEC00FA816B817C81A0E0B2E080E090E00E94FF
:101DFC007928E983FA836B837C83A881A130A1F4D1
:101E0C00E8E5EA93AA81BB818C819D8118DEE030E4
:101E1C0051F4ED81FE81FA93EA93AEEFCDDDE03023
:101E2C0011F0E0E0E88330C0E091BB15E67039F0CA
:101E3C00E7EDEA93A981BB278827992700DEE9E51E
:101E4C00EA93AA81BB818C819D81F9DDE030E1F4BC
:101E5C00ED81FE81FA93EA93ACEFAEDDE03051F008
:101E6C00ED81FE81E050FE4FED83FE83E881E15071
:101E7C00E88371F7E0E0F0E0FA93EA93ADEF9CDDD4
:101E8C00E03011F4E1E0E8832BDDE881E03011F083
:101E9C00E1E001C0E0E028960895BA93AA93609718
:101EAC000E944329EF89E03011F0E4E087C1E09112
:101EBC00B815E17011F0E3E081C101E0EE89E0308A
:101ECC0031F42898F4DCEF3F09F400E075C1E130FF
:101EDC0009F05FC0E9E4EA93A0E0B0E080E090E0B4
:101EEC00AEDDE03049F4FE013496FA93EA93A0E1BA
:101EFC00B0E0FDDCE03009F44BC0EC81E295EF7012
:101F0C00E695E695E13079F4E0E0FC85AD85B0E04E
:101F1C00EA0FFB1F31961E2F2F2FA12FB22F8827D0
:101F2C009927EAE02EC0E985EF70AE2FEE85E078B8
:101F3C00EE1FE0E0EE1FAE0FED85E370EE0FEA0F43
:101F4C00EE5F3E2FEC85E295EF70E695E695AE2FB1
:101F5C00EB85F0E00E944F28B0E0AE0FBF1FEA8582
:101F6C00E370F0E00E944F28FE2FE0E0EA0FFB1F29
:101F7C0031961E2F2F2FA12FB22F88279927E32FB1
:101F8C00E9500E943328AC89BD890E94F82800E0F2
:101F9C0013C1E23041F4AC89BD89E0E0F2E0ED938D
:101FAC00FC9300E009C1E33009F0ABC0E091BB1534
:101FBC00E47081F1EDECEA93A0E0B0E080E090E019
:101FCC003EDDE03031F5EFEFEEBDEDB5E7FFFDCFD7
:101FDC00FE013496FA93EA93A0E1B0E088DCE0309D
:101FEC00C1F030E3303039F0EFEFEEBDEDB5E7FF87
:101FFC00FDCF3150F7CFEE85E295EF70A0E1B0E068
:10200C0080E090E00E943328AC89BD890E94F828BA
:10201C0000E076C0E9E4EA93A0E0B0E080E090E074
:10202C000EDDE03009F06CC0FE013496FA93EA93B1
:10203C00A0E1B0E05CDCE03009F462C0E091BB15DB
:10204C00E27051F1EE85EF73FF27662777270E9428
:10205C005D287F936F93FF93EF93EF85E078FF27D5
:10206C0066277727DF01CB01E7E00E943F28AF917D
:10207C00BF918F919F910E940E28EF5FFF4F6F4F82
:10208C007F4FDF01CB01E989E295EF70E695E6958C
:10209C00E1500E9433282FC0EE85EC77E695E6954B
:1020AC00FF2766277727EF5FFF4F6F4F7F4F7F9399
:1020BC006F93FF93EF93EF85E370FF2766277727E6
:1020CC00DF01CB01E3E00E943328DF01CB01EF8578
:1020DC00E07EE295EF70E695FF27662777270E9452
:1020EC000E28EF5FFF4F6F4F7F4FAF91BF918F91D6
:1020FC009F910E947928AC89BD890E94F82800E044
:10210C005BC0EA3039F4E091BB15AC89BD89EC9326
:10211C0000E052C0EB3011F439E403C0EC3001F5AF
:10212C003AE43A93A0E0B0E080E090E088DCE03064
:10213C00B1F4EC89FD89FA93EA93A0E1B0E0D7DB26
:10214C00E03069F0EC89FD89FA93EA93AFE092DB19
:10215C00AE2FEC89FD89E785EA1709F400E02CC065
:10216C00ED3071F4EAE7EA93A0E0B0E080E090E0B3
:10217C0066DCE03021F4AC89BD89C4DC00E01CC015
:10218C00EE30C9F4EDECEA93A0E0B0E080E090E032
:10219C0056DCE03079F4EFEFEEBDEDB5E7FFFDCFA7
:1021AC00EC89FD89FA93EA93A0E4B0E0A0DBE0307F
:1021BC0009F000E001C004E093DBE02F0E944A2903
:1021CC00689608950A930091B915003019F00150E2
:1021DC000093B9150091BA15003019F00150009315
:1021EC00BA15E091B815EB7FE093B81509910895F5
:1021FC002797A091B80CB091B90C109731F0A09121
:10220C00BA0CB091BB0C109729F4E0E0F0E061E25D
:10221C007AE36BC0FE013696FA93EA93FE01379689
:10222C000E942524E091B80CF091B90C0995FE019F
:10223C003396FA93EA93FE013496FA93EA93DE010D
:10224C001496E091BA0CF091BB0C0995E881F981D8
:10225C00EC5BF74066277727DF01CB01E9E10E94B1
:10226C0033287F936F93FF93EF93EA810E942A2484
:10227C00E5E10E943328AF91BF918F919F910E940D
:10228C002228DF01CB01EB81F0E00E946C280E9438
:10229C0067280E9422287F936F93FF93EF93EE8120
:1022AC000E942A24EBE00E943328AF91BF918F91BA
:1022BC009F910E9422287F936F93FF93EF93ED8160
:1022CC000E942A24E5E00E943328AF91BF918F91A0
:1022DC009F910E942228DF01CB01EC81F0E0F59563
:1022EC00E7950E946C280E94222827960895AA93AD
:1022FC000A93EA81FB81E4910E2FE03019F0E98119
:10230C00E01709F406C0EA81FB813196EA83FB836E
:10231C00F0CFE02FF0E00881249608950E941B294D
:10232C0024970A93A985BA859E960E94ED280E944F
:10233C0030240E9435240E943A240E94372909F443
:10234C0052C0E985FA85E481E03089F10E943F248E
:10235C00E03011F0E1E028C2A985BA851496E0E0DE
:10236C00EC93E985FA850E9451240D01A985BA8563
:10237C005A960E94ED28D0010E940E280E943A2401
:10238C000E943C29A0F4E985FA850381023078F09B
:10239C00A985BA855A960E94ED280E943A240E947B
:1023AC000E280E9430240E943F240150EFCF0E943F
:1023BC0035240E942D29B9F0E985FA85A181AA93CB
:1023CC00EA85FB85F296FA93EA930E9456240E94C2
:1023DC005B2411F0E1E0E8C10E943524A985BA859F
:1023EC009E960E94F828E0E0DFC1BA93AA930A9364
:1023FC00E981FA810E9462240E2F003009F05BC043
:10240C00A981BA81AC91A33029F4E981FA81E581E3
:10241C00E03009F444C0A981BA810E946A24E981A0
:10242C00FA810E947224E981FA81F296E250FE4F01
:10243C00A5E5BAEAA083B183E981FA81F296A2E517
:10244C00B2E581E691E40E947B24EC51FE4FA2E7B9
:10245C00B2E781E491E60E947B24E851FE4F0F0124
:10246C00A981BA811E960E948124F296E451FE4FF6
:10247C000F01A981BA811A960E948124A181AA9385
:10248C00EA81FB81F296FA93EA93EC81FD810E943A
:10249C0089248CDCA981BA811596E0E0EC93E98162
:1024AC00FA81A181AA93E0E0EA93A0E0B0E0F5DC28
:1024BC00E03009F001E0E02F0881239608950E9496
:1024CC001B2924970E9443290E9491240E941D24B9
:1024DC0050F0AC85BD855E960E94ED280E9491243B
:1024EC000E943C2918F00E94962460C0AC85BD85E2
:1024FC0092960E949B24AC85BD85EC91F0E0E13076
:10250C00A0E0FA0739F528853985F901F695E795A4
:10251C002E0F3F1F0E94A22409F046C00E94B72430
:10252C000C9111272F5F3F4F0E94A224E9F50E94C6
:10253C00B724EC91FE2FE0E00E2B1F2BE885E17009
:10254C0021F0F8010E94542802C0F801FF706627A0
:10255C0077272CC0E230A0E0FA0779F40E94BF2460
:10256C000E94C8240E94CF24F9F4A885B985E2E022
:10257C000E94D9240E94E22419C0E330A0E0FA079B
:10258C0099F40E94BF240E94E7240E94CF2461F496
:10259C00A885B985E4E00E94D9240E94ED28EF7F3C
:1025AC00FF7F6F7F7F7002C00E94EE240E944A2939
:1025BC002E9608950E941B2924970E9442290E945E
:1025CC00F3240E941D2450F0A989BA895E960E94BA
:1025DC00ED280E94F3240E943C2910F042E085C0B3
:1025EC00A989BA8992960E94ED28ED83FE836F83A8
:1025FC007887A989BA89EC91F0E0E130A0E0FA077C
:10260C0009F043C00D851E85F801F695E7950E0F70
:10261C001F1F0E94F82409F063C00E940E2551F080
:10262C00D901EC91EF70AE2FE985F0E00E944B28B8
:10263C00EA2B01C0E985D901EC930F5F1F4FA989E3
:10264C00BA891496E1E0EC930E94F82409F048C092
:10265C000E940E2549F00E941925E4E00E943F28B3
:10266C00FF27662777270EC0D901EC91E07F1E2E3D
:10267C000E941925E8E00E943F28FF27662777274C
:10268C00EF70E129D901EC932BC0E230A0E0FA07FE
:10269C0089F40E941E250E94C8240E94272501F55A
:1026AC00AD85BE85E2E00E943225A985BA85A0835E
:1026BC00B18316C0E330A0E0FA0789F40E941E250E
:1026CC000E94E7240E94272559F4AD85BE85E4E0DD
:1026DC000E9432250E9419250E94112901C042E056
:1026EC00A989BA891496E1E0EC93E42F0E94492958
:1026FC00639608950E941B2924970A930E943B25F8
:10270C000E941D2418F00E94402510F002E04BC0DE
:10271C0000E00E94402508F046C0E985FA85FA934E
:10272C00EA93AF81B88589859A85C9DE0E943024E9
:10273C00E981FA816B817C810E942D29A1F10E9493
:10274C003A240E94492511F402E02DC00E943A243B
:10275C000E94512511F401E026C0E985FA85FA930F
:10276C00EA930E9459250E9416290E945E2522DFB9
:10277C000E2F0030C1F4E985FA850E94632551F0D3
:10278C00A985BA851E960E945B23A985BA851596E4
:10279C00E1E0EC93E981FA816B817C81ED83FE832E
:1027AC006F837887B6CFE02F08812B9608950E940F
:1027BC001B296097AC89BD895E960E94ED280E940A
:1027CC0068250E946B250E942D29B1F4AC89BD8926
:1027DC001A960E949B240E9470250E94312939F080
:1027EC000E9475250E9470250E943C2920F00E94B1
:1027FC0096240E9478251EC00E947D25AA89BB893B
:10280C008C899D890E9482250E9489250E941D2405
:10281C0018F40E94962490C00E9475250E94892568
:10282C000E943C2918F40E948E2586C00E946B25BC
:10283C000E9478250E9493250E9498250E94562478
:10284C00EF5FFF4F6F4F7F4F0E9498250E947525B9
:10285C000E9491240E943C2960F0E2E0F0E060E0EC
:10286C0070E00E9498250E949D2518F40E94A225D4
:10287C0063C00E947D25AA85BB858C859D850E94A1
:10288C0082250E948E250E942D29A1F00E94892567
:10289C000E94512529F00E9489250E94492519F48E
:1028AC000E948E2549C00E949D2519F40E94A225E4
:1028BC0043C0C4CF0E947D250E94A725AFEFBFEF78
:1028CC008FEF9FE077DEE03019F00E94EE2434C0E9
:1028DC000E946B250E942D2991F00E947D25EA898A
:1028EC00FB896C897D890E941629AE85BF858889F4
:1028FC00998960DEE03019F00E94EE241DC00E9420
:10290C005624AC89BD891A960E94F828EC89FD8959
:10291C000E94632579F0AC89BD891E960E94F3282C
:10292C003197604070400E94FD28AC89BD89159696
:10293C00E1E0EC930E945624669608950E941B29B0
:10294C000E947525E250F040604070400E9468255E
:10295C00EC81FD81A68DB78D80A191A1E2E0F0E024
:10296C0060E070E00E94AE250E9407290E943C297D
:10297C0018F00E94A22567C3EC81FD81E281F0E092
:10298C000E9407290E946C280E9479287F936F93DC
:10299C00FF93EF93AC81BD819A960E94ED28AF9185
:1029AC00BF918F919F910E940E284DC3BA93AA9309
:1029BC0024971A930A93EE81FF810E94B3251696F1
:1029CC000E94BB250E94C2250E94492529F00E9425
:1029DC00C7250E94CC2520F0E2E0198108815AC15C
:1029EC000E94D42529F40E94C725A081A33009F0A8
:1029FC0006C00E94C725B696DF010E94BB250E9427
:102A0C00D425B1F40E94DB253896DF010E94E92819
:102A1C00AE81BF81AE17BF0720F0E2E019810881BB
:102A2C0039C10E94C725B696DF010E94ED283BC034
:102A3C000E94C725E281A0E1EA9F8001AE81BF819F
:102A4C00A017B10748F10E94C725FA93EA930E9498
:102A5C00702535DDEA83FB836C837D830E94C22560
:102A6C000E94512521F4E1E01981088113C10E94D3
:102A7C00C2250E941D2428F00E94C7250E94CC2547
:102A8C0020F0E2E01981088105C1EE81FF81E01B95
:102A9C00F10BEE83FF83D2CF0E94DB25FA93EA93EE
:102AAC000E9470254BDFDF01CB01EE81FF810E947C
:102ABC0054280E94E5250E94EA250E94C725F2961B
:102ACC00DF01EE81FF810E94F02519810881E2C0AF
:102ADC00AA9324970E944429A885B98514960E942C
:102AEC00E92831968F01002E012A31F0A885B9858D
:102AFC001E960E94FE2511F4E4E0CAC0F801EF70A6
:102B0C0009F0BCC0A885B9851E960E945B23A885D8
:102B1C00B9851A960E94FE2561F40E94C725389645
:102B2C00DF010E94E9280E171F0710F0E4E0B0C087
:102B3C00A5C0F8010E9454280F010E94C725E2810C
:102B4C00F0E03197E021F121309709F097C00E9415
:102B5C00C7250E940326B3DC0E940C260E94112676
:102B6C000E941D2410F4E2E093C00E9411260E94E2
:102B7C00512511F4E1E08CC00E94C7257E96DF013F
:102B8C000E94ED280E9411260E943C2908F467C07F
:102B9C00EF81E03011F4E4E07BC00E94C7250E9475
:102BAC00032605DE0E9416260E942D2911F4E7E06B
:102BBC006FC00E9411260E94492511F4E2E068C002
:102BCC000E9411260E94512511F4E1E061C00E947F
:102BDC00C7250E946224E03011F0E1E059C00E9448
:102BEC00C7250E9472240E94C725DF01BE96FF9361
:102BFC00EF93FD010E941C26AF91BF910E94F82813
:102C0C0020E00E94C725E2812E17A8F40E94C72558
:102C1C003496A1E0A0830E94C7250E946224E03074
:102C2C0011F0E1E035C00E94C725BE96DF010E947D
:102C3C005B232F5FE6CF0E94C725BE96FF93EF93D1
:102C4C00DF010E94ED28DF01CB01E22FF0E00E94B2
:102C5C006C280E94AE25AF91BF910E94F828EB81A1
:102C6C00FC816D817E81A885B9851A960E94F82811
:102C7C000E94C7250E941C260E94EA25F8010E948A
:102C8C00B3250E94E928F296DF01F8010E94F02595
:102C9C000E944B292A9608950E94212621F0E02FAC
:102CAC000E944A29D0C10E94302601F5AC81BD8119
:102CBC0052962D913C91D9011C91103011F404E0E5
:102CCC0015C0F901E385E87031F40E9441260E9499
:102CDC008C22E03009F001C009C0EC81FD81FA932F
:102CEC00EA93A0E0F5DE0E2F0030E9F2E02F0E940F
:102CFC004A29A9C10E942126B1F40E94302699F4D8
:102D0C00EC81FD81A289B3891C91153E11F0103024
:102D1C0009F409C0EC81FD81FA93EA93A1E0D8DEB5
:102D2C000E2F003051F3003029F50E94302611F59A
:102D3C00AC81BD8152962D913C913A932A93E0E05F
:102D4C00EA93A0E2B0E00E94B7220E9441260E94C2
:102D5C00A522AC81BD8154960E94E928E385E871D7
:102D6C00D9011C96EC93AC81BD810E94E928349664
:102D7C00A1E0A083E02F0E944A2965C1BA93AA93CF
:102D8C0025970E944129AD85BE8554963D914C9165
:102D9C004A933A93E0E2EA93ABE0B0E00E94B722A8
:102DAC00E0E0E887E9870E2F5E2FE8E0EA87AB8545
:102DBC00BC850E944C260E945126AE0FBF1FAC91C1
:102DCC00AE3211F50E9456261E3221F4A885B98523
:102DDC0013970CF003C00E946226F4CF1F3221F02F
:102DEC001C3511F0113208F402C0E6E071C00E94EB
:102DFC0051260E94692610F4E4E201C0E0E2A32F00
:102E0C00B42F1B96EC9363C00E945626113220F00F
:102E1C001F3211F01C3509F432C01E3219F0EA854C
:102E2C005E1768F0AA85A83011F41E3211F0E6E0A6
:102E3C004FC058E0EBE0EA87000F000F1FC01038BE
:102E4C0018F00360E6E044C0E8E9F0E0FA93EA9396
:102E5C00A12F4DDA309711F0E6E03AC0113410F0A2
:102E6C001B3508F002C0026007C0113610F01B378A
:102E7C0008F002C0016010520E946226C5CF0E9469
:102E8C0051260E94692610F4E4E001C0E0E01E2FF8
:102E9C00503011F4E6E01CC0A32FB42FAC91A53E2A
:102EAC0021F4A32FB42FE5E0EC93AA85A83011F4FC
:102EBC00000F000FE02FE370E13009F41061E02FF8
:102ECC00EC70E43009F41860E32FF42F1387E0E082
:102EDC000E9448292F960895BA93AA930E944329D9
:102EEC00E1E0E03029F0AC81BD81AC91A03209F079
:102EFC0006C0EC81FD813196EC83FD83F1CFAC8172
:102F0C00BD81AC91AF3229F0AC81BD81AC91AC35B7
:102F1C0059F4EC81FD813196EC83FD83AE81BF8148
:102F2C0016960E9471260AC0AE81BF810E94E928C4
:102F3C007696DF010E94ED280E947526AC81BD813A
:102F4C00AC91BB27909760F40E947B26A0E0B0E088
:102F5C002DDD0E2FAE81BF8152960E9480263EC081
:102F6C000E947B26DE01169609DF0E2F0030B1F58C
:102F7C00AE81BF8191DE0E2FAE81BF8154960E942F
:102F8C00E928E385E4703E2F003039F0043011F469
:102F9C00303009F001C005E021C03030F9F4AE81C9
:102FAC00BF8152961D912C91E12FF22FE385E07198
:102FBC0011F405E013C00E9485260E9467287F93B8
:102FCC006F93FF93EF930E948926AF91BF918F91DE
:102FDC009F910E948F260E947526C2CFE02F0E94DF
:102FEC004A29289608950E941B29EC81FD81A18114
:102FFC00AA93ED81FE81F296FA93EA93EB81FC8120
:10300C006D817E810E945B2411F0E3E01CC0EC8199
:10301C00FD810E94942611F0E2E015C0AC81BD81C7
:10302C00A859BF4F0E949E2611F4E0E00CC0EC8121
:10303C00FD81F296EE5AFF4FDF010E949E2611F49D
:10304C00E0E001C0E1E026960895AA9364970E94FF
:10305C004229AC8DBD8D0E94E928EF83F887AF81A2
:10306C00B885EC91E0533E2F3A3020F41196AC9198
:10307C00AA3309F00AC0EF81F8853296EF83F887FE
:10308C00AC8DBD8DED93FC9302C03091C0153130E9
:10309C0010F0EBE0CFC1E32F0E94AC260E94E92890
:1030AC00ED83FE83AA8DBB8DED93FC93309711F4C9
:1030BC00ECE0C0C1AD81BE81EC91E03089F0ED81D6
:1030CC00FE81A1810E946E0E4E2F40FD09C0E98D3C
:1030DC00E03011F042FD01C002C0EAE0ABC1A9C171
:1030EC00AD81BE81E0E0EC93E32FAD81BE81119602
:1030FC00EC93ED81FE81A1810E949C0D4E2F40FF2F
:10310C0002C0E3E097C1E98DE03011F042FD01C04F
:10311C0002C0EAE08FC10E94B4260E94A225EF8B68
:10312C00F88F698F7A8FDF01CB015DDF0E2F0130B5
:10313C00D9F4ED81FE81F296E254FE4F1E2F2F2F13
:10314C00E481E03089F0A12FB22F18960E94ED286F
:10315C00ED8BFE8B6F8B788F0E94B426AF89B88D68
:10316C00898D9A8D40DF0E2F033011F4E1E062C19E
:10317C00003049F4AD81BE81DD960E94E928E03033
:10318C00A2E0FA0711F0EDE055C1AD81BE81A85B5C
:10319C00BF4F0E94E2240E94B9260E94BE260E94C4
:1031AC002D2941F4AD81BE81AA5ABF4F0E94ED2852
:1031BC000E94B9260E94BE26AD81BE815A960E94FD
:1031CC00F828ED81FE81EE5BFF4FE081AD81BE8181
:1031DC001396EC93ED81FE81E381F0E0A989BA8925
:1031EC008B899C890E946C280E9479280E94B926A0
:1031FC000E94C3260E94CA26AD81BE8192960E946F
:10320C00F828ED81FE81E7ADAD81BE811296EC937D
:10321C00AD81BE81AD5BBF4F0E94E928AD81BE81FF
:10322C001896ED93FC93AD81BE81AB5BBF4F0E94B2
:10323C00E224ED87FE876F87788B0E942D2951F44D
:10324C00AD81BE81AE5ABF4F0E94ED28ED87FE873F
:10325C006F87788B0E94C3260E94F32466277727FA
:10326C000E94AE25A989BA898B899C890E9418284D
:10327C007F936F93FF93EF930E94CF26AF91BF91F3
:10328C008F919F91662777270E941D28ED81FE81E3
:10329C00E281F0E00E946C280E94B228EE5FFF4FA2
:1032AC006F4F7F4FE987FA876B877C87AD81BE8133
:1032BC005E960E94F82801E00E941925A73FEFE0D6
:1032CC00BE07E0E08E07E0E09E0708F002E00E94F7
:1032DC001925A73FEFEFBE07E0E08E07E0E09E0761
:1032EC0008F003E0033039F4AD81BE81A25ABF4F20
:1032FC000E94ED2802C00E94D726AD81BE81969611
:10330C000E94F8280E94D7267F936F93FF93EF9328
:10331C000E94CF26AF91BF918F919F910E94E5257E
:10332C00AD81BE819A960E94F828AD81BE811E9611
:10333C000E94EE240E94F828AD81BE811496E0E034
:10334C00EC93033009F05FC0AD81BE811596EC9310
:10335C00AD81BE81AE59BF4F0E94E9280E94CA269A
:10336C00AD81BE8152960E94F828ED81FE81A1812B
:10337C00AA93EE81FF81F296FA93EA93E885F98598
:10338C000E9489240E94780EE03011F5ED81FE81B7
:10339C000E949426E9F4AD81BE81D2960E94ED285C
:1033AC00E235A2E5FA07A1E66A07A1E47A0781F4FF
:1033BC00ED81FE81F296EC51FE4FDF010E94ED286B
:1033CC00E237A2E7FA07A1E46A07A1E67A0709F057
:1033DC001AC0ED81FE81F296E451FE4FDF010E948E
:1033EC00ED28AD81BE811A960E94F828ED81FE81F0
:1033FC00F296E851FE4FDF010E94ED28AD81BE81AF
:10340C001E960E94F828AD81BE810C930E946A24FE
:10341C00AD81BE8156960E947126AEEBB5E1ED9161
:10342C00FD913196FE93EE93AD81BE811696ED9390
:10343C00FC93E0E00E9449296E960895BA93AA93F2
:10344C00EA81FB81309771F0AA81BB81EC91E0306D
:10345C0049F0EA81FB81A681B781E881F981EA17FD
:10346C00FB0711F0E9E00AC0EA81FB81A1810E940F
:10347C006E0EE17011F0E3E001C0E0E024960895D7
:10348C00BA93AA931A930A93AC81A13010F0EBE093
:10349C0020C0EC810E94AC260D911C91002E012ABB
:1034AC0019F0D801E0E0EC93EA81FB81309721F030
:1034BC00AA81BB81E0E0EC93EC81ACEBB5E1F0E0F0
:1034CC00EE0FFF1FEA0FFB1FAA81BB81A083B18304
:1034DC00E0E01981088125960895AA93A2970E948D
:1034EC004429A8A5B9A50E948026EDA1EF71EDA3F2
:1034FC00FE01B696FA93EA93FE017196FA93EA935B
:10350C00E9A5EE71AE2FA1DD0E2F003009F01CC124
:10351C00FE013396EBA3FCA3FE013F96FA93EA93CC
:10352C00A8A5B9A5D9DC0E2FEDA1EC7109F49CC0AE
:10353C002897003089F0043021F4DE015796DADB4D
:10354C000E2F003019F0E02F2896FEC0EDA5E86094
:10355C00EDA719A52AA56BC0EDA5E47019F0E8E05C
:10356C002896F2C019A52AA5012E022A29F0E12FCE
:10357C00F22FE385E17119F0E7E02896E5C0EDA59F
:10358C00E87009F454C00E9485260E9467287F9336
:10359C006F93FF93EF930E948926AF91BF918F9108
:1035AC009F910E948F260E946825E12FF22F74961E
:1035BC000E94DE267A960E94DE267C960E945E256C
:1035CC000E941129AF89B88D1496E1E0EC93AF8974
:1035DC00B88D9E960E949B240E9475250E942D29D1
:1035EC00B9F0EF89F88DFA93EA930E94C22582D83C
:1035FC000E2F003011F02896A7C00E947525E150BF
:10360C00F04060407040AF89B88D1A960E94F8283F
:10361C00EF89F88DFA93EA93AE81BF8188859985FD
:10362C000E9494110E2F003011F028968DC0EDA53C
:10363C00E870C1F0E12FF22F3B96A0E0A0830E942E
:10364C00FE100E9478250E949325A12FB22F1E9662
:10365C000E94F828AF89B88D1496E1E0EC93EDA5A3
:10366C00E062EDA728961BC0003011F0E02F6CC073
:10367C0019A12AA1012E022A29F0E12FF22FE385AC
:10368C00E07111F0E4E060C0EDA1E27029F0E12FEF
:10369C00F22FE385E17009F402C0E7E055C0AF8575
:1036AC00B8899E960E94ED28A8A5B9A55A960E94A5
:1036BC00F828E9A1FAA1A8A5B9A55E96ED93FC930B
:1036CC00EDA1A8A5B9A51496EC930E9485260E949D
:1036DC0067287F936F93FF93EF930E948926AF9196
:1036EC00BF918F919F910E948F26A8A5B9A51E9678
:1036FC000E94F828A12FB22F5C960E94ED28A8A555
:10370C00B9A51A960E94F828A8A5B9A516960E94E4
:10371C007126A8A5B9A51596EFEFEC93A8A5B9A5A8
:10372C0056960E947126EF85F889A8A5B9A5ED9348
:10373C00FC93AF85B88916960E94E928A8A5B9A56F
:10374C001296ED93FC93E0E00E944B29AA96089503
:10375C00BA93AA932E970E944229EF89F88DED8394
:10376C00FE83AB89BC890E9480260E94E5260E94BC
:10377C00EA260E94EF2611F0E02F55C1E98DFA8D53
:10378C00A481A07811F0E2E04EC1E98DFA8DA481FC
:10379C00A17011F4E7E047C1E98DFA8DA285B385DC
:1037AC00848595859F938F93BF93AF930E94F62644
:1037BC00EF91FF916F917F910E9418280E94FD2636
:1037CC00AD89BE89882799270E94372920F4EF817B
:1037DC00F885ED8BFE8BED89FE89309709F422C1BB
:1037EC000E94F626FD01BC01F170309709F0E8C08B
:1037FC00E98DFA8D05800E94E526E2810E16D8F13E
:10380C000E94F6260E94312931F4A98DBA8D1E969C
:10381C000E94ED2808C00E94E5260E94EA260E941C
:10382C0002270E946512EF87F88B698B7A8BAF8524
:10383C00B88989899A890E941D2420F40E9407273F
:10384C00E2E0F1C0AF85B88989899A890E94512537
:10385C0021F40E940727E1E0E6C0EF85F889698929
:10386C007A89A98DBA8D52960E94F828A98DBA8DA5
:10387C001596E0E0EC930E94E5260E94EA260E9451
:10388C0002275CD80E940E270E9413270E942D2924
:10389C0021F40E940727E2E0C6C00E9418270E946C
:1038AC001D270E946C280E940E280E940E27AD89AD
:1038BC00BE890E94222709F44CC00E941827E30FEE
:1038CC00F41F0F010E94E526E281D001F0E0EA1717
:1038DC00FB0758F40E94E526E281F0E0DF010E942C
:1038EC001827AE1BBF0B3A2F4B2F0E94E526E18108
:1038FC00EA930E947B26EE85FF85688979890E9470
:10390C001629A32F0E94780EE03021F00E94072781
:10391C00E1E089C0E98DFA8DA481A07429F00E94A0
:10392C002B270E94322708F00FC00E942B270E94E1
:10393C003B27AD81BE8188279927EA0FFB1F0E9488
:10394C00EA26B0960E944427A98DBA8D0E944A2778
:10395C0051C0E98DFA8DA481A07489F00E94E526EE
:10396C000E945727EC8DFD8D0E945F2721F00E944D
:10397C000727E1E058C0A98DBA8D0E946A270E94E2
:10398C002B270E94372979F00E94E5260E945727A1
:10399C00EE85FF85688979890E945B2421F00E945D
:1039AC000727E1E040C00E941327A98DBA8D5696D7
:1039BC000E94F828A98DBA8D1596EC91EF5FEC93C7
:1039CC00A98DBA8D0E946F270E947427ED89FE89FC
:1039DC00E117F20710F41D892E890E94B426AB8DD5
:1039EC00BC8D0E946F27AB8DBC8D9096EA0FFB1F90
:1039FC000E947B27E12FF22F0E942823ED83FE8368
:103A0C00E98DFA8D0E948127D0010E94F828AB899C
:103A1C00BC890E948B27ED89FE89E11BF20BED8B93
:103A2C00FE8BD9CEE0E00E9449296B960895BA939B
:103A3C00AA932A970E944229EB89FC89ED83FE8385
:103A4C00AF85B8890E9480260E9492270E949727F2
:103A5C000E94EF2611F0E02F96C1ED89FE89A4811A
:103A6C00A07811F0E2E08FC1ED89FE89A481A270EB
:103A7C0011F4E7E088C1ED89FE89A285B3858485C0
:103A8C009585E989FA890E94E5257F936F93FF93C9
:103A9C00EF930E949C27AF91BF918F919F910E94B1
:103AAC003C2918F4E0E0E98BEA8BE989FA89309734
:103ABC0009F44FC10E94A227FD01BC01F17030979F
:103ACC0009F00DC1ED89FE8905800E949227E281E3
:103ADC000E1608F450C0AD89BE8916960E94FE25BC
:103AEC00E1F4AD89BE891E960E94ED280E940E2736
:103AFC000E9413270E942D2979F40E949227FA9391
:103B0C00EA930E945E250E94DD130E940E27AD8968
:103B1C00BE891E960E94F8280AC00E9492270E9415
:103B2C0097270E9402270E94DD130E940E270E94F5
:103B3C0013270E942D2909F40CC10E941D270E94F5
:103B4C00492521F40E94A927E2E01DC10E941D27EE
:103B5C000E94512521F40E94A927E1E014C10E9482
:103B6C001327AD89BE8952960E94F828AD89BE896B
:103B7C001596E0E0EC93ED89FE89A481A07489F0A0
:103B8C000E9492270E94B027E88DF98D0E945F2732
:103B9C0021F00E94A927E1E0F6C0AD89BE890E9400
:103BAC006A270E9492270E9497270E9402270E9450
:103BBC00A4140E94FD260E942D2921F40E94A927FD
:103BCC00E2E0E1C00E94B827AF81B88589859A856B
:103BDC000E946C280E940E28EF83F88769877A87E9
:103BEC00A989BA890E94222709F44EC00E94B827DD
:103BFC00E30FF41F0F010E949227E281D001F0E045
:103C0C00EA17FB0758F40E949227E281F0E0DF01EB
:103C1C000E94B827AE1BBF0B3A2F4B2F0E94922746
:103C2C00E181EA930E947B260E94A725A32F0E9484
:103C3C00DC0EE03021F00E94A927E1E0A4C00E9434
:103C4C00BD270E943227D8F4ED89FE89B0960E94D8
:103C5C009727A689B789808D918DE985FA856B8523
:103C6C007C850E943B27AF81B88588279927EA0F6E
:103C7C00FB1F0E944427AD89BE890E946A27AD892B
:103C8C00BE890E944A274DC00E94BD270E94372939
:103C9C00C9F00E94A2270D010E949C27D0010E940E
:103CAC003C2958F40E9492270E94B027EA85FB8594
:103CBC006C857D850E945B2409F404C00E94A927B1
:103CCC00E1E061C00E945925AD89BE8956960E94DB
:103CDC00F828AD89BE891596EC91EF5FEC93AD8910
:103CEC00BE890E946F270E947427E989FA89E1171F
:103CFC00F20710F419892A89AD89BE890E946F27B1
:103D0C00AD89BE899096EA0FFB1FFA93EA93EF8177
:103D1C00F8850E947B27AD89BE891496EC91E064EE
:103D2C00EC93E12FF22F0E942823ED83FE83ED8983
:103D3C00FE890E948127D0010E94F828AF85B8899E
:103D4C000E948B27E989FA89E11BF20BE98BFA8B2C
:103D5C00ACCE0E94A2270D010E949C27D0010E948C
:103D6C00372950F4AD89BE8916960E94ED28AD898D
:103D7C00BE891A960E94F828AD89BE891496EC91DA
:103D8C00E062EC93E0E00E94492967960895BA93AB
:103D9C00AA9324970E9444290E94C427FA93EA9379
:103DAC00E985FA850E94EF2609F075C0EF81F88548
:103DBC00A481A07209F46FC0A481A074A1F00E9428
:103DCC00C427E181EA93E885F985B096FA93EA93E2
:103DDC00EA85FB850E945F2711F0E1E05DC0AF81B1
:103DEC00B8850E946A270E94C427FA93EA93E98552
:103DFC00FA85A28DB38D848D958D0E9494110E2F12
:103E0C00003009F048C0AF81B8855E961D912C91A9
:103E1C00A12FB22F1B96EC91E062EC93AF81B88589
:103E2C001A960E94ED28A12FB22F5C960E94F828BA
:103E3C00AF81B8851E960E94E928A12FB22F5A9601
:103E4C00ED93FC93EF81F885A685B78580899189E0
:103E5C00FD01BC010E946228A12FB22F5496ED9354
:103E6C00FC930E94FE100E941626A12FB22F56968C
:103E7C000E94F828AF81B8851496EC91EF7DEC93F5
:103E8C000E94C4273496A1E0A0830E94C427DF01BE
:103E9C000E94FB110E2FE02F0E944B2929960895AA
:103EAC000E94352374DF0E2F003021F4A981BA81D2
:103EBC000E948026E02F08811CC0E091C800E078A9
:103ECC00E1F3E091CE000895AA93E091C800E0726E
:103EDC00E1F3E881E093CE0021960895BA93AA937A
:103EEC00AA81F2DFA881B981ED91FD913196FE9303
:103EFC00EE9323960895BA93AA932B970E94412987
:103F0C0000E0A989BA890E948026EF89F88D319644
:103F1C00EF8BF88F3197E4913E2FE03009F461C1BB
:103F2C00E02FE03039F4353211F401E002C00E9488
:103F3C00C92756C1E130A9F4353219F40E94C927BA
:103F4C004EC102E050E010E03D3211F411E048C1E6
:103F5C003B3211F45BE244C1303211F450E240C107
:103F6C0002C0E23039F440E003E0303311F4106861
:103F7C0037C102C0E33091F4303310F03A3308F01B
:103F8C0007C0AAE04A9F402DE32FE0534E0F28C1F3
:103F9C003C3619F4126005E023C103C0E53009F08A
:103FAC001FC1E32FE33649F40E94D027ED89FE8927
:103FBC00A481AA930E94D62712C1E33769F40E9408
:103FCC00D027AD89BE8914960E944C26AE81BF8144
:103FDC000E94C7220E2F0FC0E03791F40E94D02709
:103FEC00AD89BE8914960E944C26AE81BF810E9479
:103FFC00D3220E2F18601F77E0E0E88B20E06AC018
:10400C00E43611F0E93611F4146002C0E537A1F47E
:10401C00EAE0E88B11FF08C0E0E0FAEC6AE97BE328
:10402C000E9498250AE022C0E0E1F7E260E070E02F
:10403C000E94982505E01AC0E83511F4186003C0F9
:10404C00E83709F0CCC0E0E1E88B11FF08C0E0E0F4
:10405C00F0E060E070E10E94982508E007C0E0E025
:10406C00F0E160E070E00E94982504E011FF08C0C8
:10407C000E94D027AD89BE8914960E94ED2813C0EA
:10408C0012FF0AC00E94D027AD89BE8914960E94E7
:10409C00E9280E946C2807C00E94D027AD89BE89F0
:1040AC0014960E94E224EC87FD876E877F8712FFAF
:1040BC0011C0AF85AA234AF40E948E250E942B289A
:1040CC00EC87FD876E877F875DE2503011F00F5FC4
:1040DC0001C01B7F10FD11C0041778F417FF08C036
:1040EC0012FF04C01B7F352F015001C030E301C00B
:1040FC0030E20E94C9274150EFCF202FE889E030F1
:10410C00B9F42030A1F013FF06C0EE81FF81359188
:10411C00EE83FF8305C0AE81BF813D91AE83BF832B
:10412C000E94C927403009F041502150EACF4DC0C0
:10413C000E9456240E9489250E94B2283E2F3A30B4
:10414C0030F013FF02C0395C01C0395A01C0305D38
:10415C0014FD1BC0313328F40E9491240E94492580
:10416C0009F409C0421710F010FF01C013C030E26F
:10417C0017FF0BC030E3106112FF07C01B7F5A936F
:10418C000E94D627403009F041500E94C927403088
:10419C0009F0415021500E9456240E9489250E940A
:1041AC00E528EC87FD876E877F87E8890E9491243C
:1041BC00FF27662777270E94B2280E9498250E9425
:1041CC0056240E942D2909F0B3CF10FF08C04030AF
:1041DC0031F04150E0E2EA930E94D627F8CF00E09C
:1041EC0094CEA989BA890E94E9280E944829699627
:1041FC000895FF92F82E26971A930A93DE011496CF
:10420C000E940A288D01E0E0EC83ED83EE83EF83BE
:10421C00DE0118960E94DC27E4E7FFE10E942524CA
:10422C006ADE198108812896FF9008950E94352333
:10423C00E0E0EC93AB81BC81EC910E2FE03019F0F7
:10424C00E0E0EC9302C039DE0E2FE02F08810C94D5
:10425C00C522FF92BA93AA9324970E944129E0E0C9
:10426C00F0E0E887F9875E2FE889F9893196E88BC9
:10427C00F98B3197E4912E2FE03009F425C10E947F
:10428C00E527C1F0EDB7FEB7FA93EA935F930E946E
:10429C00EA275F912E2FE03019F00E94E52709F4F0
:1042AC0007C00E94F0271CF4EFEFFFEF0FC1EACF1D
:1042BC00522F09C1253209F0EEC040E0E889F98996
:1042CC002591E88BF98B203310F02A3308F007C0C6
:1042DC00AAE04A9F402DE22FE0534E0FEFCF203043
:1042EC0009F4F2C0EDB7FEB7FA93EA935F930E941C
:1042FC00EA275F913E2FAE2F0E94E922E03039F081
:10430C000E94F0271CF4EFEFFFEFE0C0EBCF303052
:10431C0009F4D1C0532F403009F44FEFE22FE336AC
:10432C0099F40E94F527EDB7FEB7FA93EA935F93E1
:10433C000E94EA275F91D801EC930E94F0271CF4AD
:10434C00EFEFFFEFC3C0A1C0E33741F50E94F527A3
:10435C00E42F4150E030F1F0EDB7FEB7FA93EA9359
:10436C005F930E94EA275F912E2FE03019F00E9494
:10437C00E52739F00E94F0271CF4EFEFFFEFA6C001
:10438C0009C01F930F930F5F1F4FE22FAF91BF9187
:10439C00EC93DECFD801E0E0EC9377C06894F1F8B1
:1043AC00E894F2F8E22FE43611F0E93619F4E894C7
:1043BC00F1F802C0E53711F43AE008C0E83711F41F
:1043CC0030E104C0E53209F466C07EC0E0E0EE8363
:1043DC00EF836894F0F8E42F4150E03009F446C0C4
:1043EC00EDB7FEB7FA93EA935F930E94EA275F91C9
:1043FC002E2FE13238F40E94F0271CF4EFEFFFEF80
:10440C0065C017C0F1FC08C06894F1F82D3211F4A6
:10441C00F2F8E1CF2B32F9F2303131F4A22F0E94B5
:10442C00F422E03031F009C0A22F0E94E022E030EB
:10443C0021F4F0FC49C0522F19C0213610F0275539
:10444C0005C0213410F0275301C02053E32FAE8157
:10445C00BF81F0E00E947128DF01E22FF0E0EA0F4B
:10446C00FB1FEE83FF83E894F0F8B5CF0E94F5278D
:10447C00F2FE06C0EE81FF810E942728EE83FF83A7
:10448C00EE81FF81D801ED93FC93E885F985319697
:10449C00E887F98718C0EDB7FEB7FA93EA935F93F4
:1044AC000E94EA275F91E21771F00E94F0271CF43A
:1044BC00EFEFFFEF0BC0E885F985309719F4EFEFBC
:1044CC00FFEF04C001C0D0CEE885F9850E944829D1
:1044DC006296FF900895FF92F82E23971A930A93F1
:1044EC00DE0111960E940A288D01E0E0EB83EC833B
:1044FC00DE0115960E94DC27ECE1F1E20E942524F6
:10450C00A8DE198108812596FF900895BA93AA9385
:10451C006627772789919991E991F991A991B99198
:10452C00009629F001976D9171916717C9F3671B7C
:10453C0010F4EFEF0895E0E009F0E3950895BA93D5
:10454C00AA9399818881009641F0BD81AC81FB8151
:10455C00EA8161916D930197E1F7FD81EC812696DB
:10456C000895BA93AA93B981A881109631F0FC8171
:10457C00EB816A8161931197E9F7EB81FC812596B8
:10458C000895BA93AA93A991B991EE27FF276D913B
:10459C00662311F03196FBCF0895BA93AA93AA27FC
:1045AC00BB27E991F9910590002011F01196FBCFF2
:1045BC00FD010895AA93E1E0F991F03310F0FA337C
:1045CC0008F0EE270895AA93E1E0F991F03229F072
:1045DC00F93010F0FE3008F0EE270895AA93E1E0D0
:1045EC00F991F05340F0FA3038F0FF75F750FA308B
:1045FC0010F0F03108F0EE270895A2E0B0E00C9432
:10460C000028E02FF0E0DE01119608950E943E078D
:10461C000C943B07E981E07F0E2F02950F70A02FC1
:10462C00F5CFE981EF700E2FA02F0E943E07E5CF4A
:10463C0080E00E94FF2022960895AD81BE81AE0FCE
:10464C00BF1F0895AD81BE81EA0FFB1F0895E09155
:10465C00E60CA981BA81F0E0AE0FBF1F0895BA93A2
:10466C00AA930A93A981BA810895E22FF0E0DE01A2
:10467C001496EA0FFB1F0895E22FF0E0DE0114966A
:10468C00AE0FBF1FEC910895FE013196FA93EA9399
:10469C00EB89FC89FA93EA930895DE0111960E9446
:1046AC00AB08DE0111960C94C8080E94F328EF5F4A
:1046BC00FF4F6F4F7F4F0E94FD280895FA93EA93A6
:1046CC00B7CFE1EBFBE0FA93EA93EEECFCE0662764
:1046DC0077270E94162984E00E947122269622E0F8
:1046EC0022E00895A22FB0E0A354B34FE22FF0E0E4
:1046FC003297E253F34FE081EC930895FE01E05EB4
:10470C00FD4FFA93EA930895EDEBFCE0FA93EA93EC
:10471C00A1E00E94731A3E2F30300895E8EEFCE0C1
:10472C00FA93EA93E0E1F0E0FA93EA930895A32F69
:10473C00BB270C949507DE01A05EBD4F0C94561F51
:10474C00FE01FA93EA930895EDEBFCE0FA93EA93F9
:10475C00ABE00E94731A3E2F30300895E091DD0CCF
:10476C00F091DE0C6091DF0C7091E00C0895E093F9
:10477C00E10CF093E20C6093E30C7093E40C08955D
:10478C00FE01E05EFD4F3A96DF010E94ED28DF014D
:10479C00CB01E0E1F0E060E070E00E94B228E09331
:1047AC00980DF093990D60939A0D70939B0D08954D
:1047BC00EDE9FDE0FA93EA930895E091980DF091FC
:1047CC00990D60919A0D70919B0D0895A091E70C35
:1047DC00BB27882799270E9437290895E0E1F0E04C
:1047EC00FA93EA930895DE010E94561FA091E10C02
:1047FC00B091E20C8091E30C9091E40CAFDF0E943D
:10480C001828B5CFFA93EA93E091E10CF091E20C01
:10481C006091E30C7091E40C0E941629CEDF0E948B
:10482C00162988E00E94FF202A96E0E00895A23025
:10483C00E0E0BE07E0E08E07E0E09E070895FA9303
:10484C00EA93DE0118960895F0E00E946C28DF01CF
:10485C00CB010895E983FA836B837C830895ED8102
:10486C00FE816F8178850895A981BA818B819C81A5
:10487C000895E985FA85A181AA93EA85FB85F296CC
:10488C00FA93EA93EC81FD816E817F810E94162957
:10489C00A1E00C94DC0EA2A1B3A184A195A1089572
:1048AC00E885F9856A857B8508950E941629A1E023
:1048BC000E94780EE0300895FA93EA93A0E0B0E0FD
:1048CC0080E090E00C9494119E96E0E0F0E060E0C3
:1048DC0070E00E94F8280895F296FA93EA93E0E0CB
:1048EC00EA93A0E0B2E00C94B7220E941129E9816E
:1048FC00FA81F29608950E94ED28D0010E94F828C2
:10490C00E981FA810895A289B389848995890E94E5
:10491C001B29A1E00895A885B9858A859B850895F2
:10492C00E1E0F0E060E070E008950E94ED28EC8397
:10493C00FD836E837F830895EC85FD85FA93EA935E
:10494C00D901E0E0F2E00E949F28AE81BF8188850A
:10495C009985662777270E9413280E949411E030CE
:10496C000895AC85BD85D296F901F170AE0FBF1FCD
:10497C000895EC85FD85FA93EA93AA85BB858C8511
:10498C009D850895E0E0F1E060E070E00E94B228BF
:10499C000895AE81BF81888599850E9413280E9455
:1049AC009411E03008950E949928F170AC85BD8572
:1049BC00D296AE0FBF1F08950E94E928662777276D
:1049CC000895E0E8F0E060E070E00E94B2280895FD
:1049DC00EFEFFFEF6FEF7FEF0895AD85BE858F850D
:1049EC0098890895E989FA89FA93EA93D801E0E065
:1049FC00F2E00E949F28AF81B88589859A85662749
:104A0C0077270E9413280E9494114E2F403008954E
:104A1C00A989BA89D296F801F170EA0FFB1F9F01A0
:104A2C00ED85E1700895A985BA858B859C850895DF
:104A3C00E989FA89FA93EA93AF85B88989899A89C1
:104A4C000895AF81B88589859A850E9413280E94A4
:104A5C0094114E2F403008950E949928F170A98925
:104A6C00BA89D296EA0FFB1F0895AD81BE818F8162
:104A7C0098850895A985BA855E960E94ED28F5DF84
:104A8C000E943C290895A130E0E0BE07E0E08E07CB
:104A9C00E0E09E070895AF3FEFEFBE07EFEF8E0704
:104AAC00EFEF9E070895EF81F88569857A85089563
:104ABC00A0E0B0E080E090E00895A685B7858089FD
:104ACC009189E9CF0E940C290895E889F9896A89AE
:104ADC007B890895AC81BD818E819F8108950E9450
:104AEC0002290895EC83FD836E837F830895EC89FE
:104AFC00FD89FA93EA9308950E946512EC87FD876D
:104B0C006E877F870895AC85BD858E859F850895BA
:104B1C00EC85FD856E857F850895EC81FD816E8128
:104B2C007F810895E887F9876A877B870895F5DF89
:104B3C00F2DE0E9437290895E0E0F0E060E070E0DA
:104B4C000895EA85FB856C857D850E94162908955C
:104B5C000E9420290E9418280895A885B9851496CA
:104B6C00ED93FC93A885B98508950E94ED28EA83FE
:104B7C00FB836C837D830895AA81BB818C819D818D
:104B8C000895A885B9850E94E92808957E96DF01CD
:104B9C000E94ED28F1DF0E943C290895EA81FB81F7
:104BAC006C817D810E942D290895EA81FB816C81A5
:104BBC007D81A885B9851A960E94F828E2CF6627D0
:104BCC0077270E940E280895A885B9851E960E9405
:104BDC00F8280895EF70F070EE0F0E944B28EA0F42
:104BEC00FB1FA885B9855296ED93FC93E0E00895E0
:104BFC000E94ED280E942D290895FA93EA93EA85E4
:104C0C00FB85A285B385848595850895EB83FC830C
:104C1C006D837E830895AB81BC818D819E810895C7
:104C2C00F5DFEB81FC816D817E810895FA93EA9327
:104C3C001CDF0C94A414BA93AA930E944329EC8110
:104C4C00FD81FA93EA93A0E0B0E00E94DC140E2FF1
:104C5C0000300895AC81BD810E94E928FA93EA9353
:104C6C00EE81FF81A685B785808991890E94941178
:104C7C000E2F003008953A932A93EE81FF81A48978
:104C8C00B589BA93AA93ABE0B0E008950E94E928E5
:104C9C00EE83FF830895E885F985AE81BF81089581
:104CAC00E885F9853196E887F9873197AE81BF8120
:104CBC00AE0FBF1F1C910895E52F5F5FF0E0E30F6F
:104CCC00F41F10830895EA0FFB1FAB85BC85ED9391
:104CDC00FC931132089530DF0E94F8280895AE81BC
:104CEC00BF8116960E94F8280895EE81FF81FA93F1
:104CFC00EA930895E0E0F0E0ED93FC930895A12F82
:104D0C00B22F549659CEA12FB22F5A960E94E92851
:104D1C000895662777270E9422280895F296E2507C
:104D2C00FE4FDF010E94E928E535AAEAFA0708954B
:104D3C000E94ED28EF7FFF7F6F7F7070E634A1E457
:104D4C00FA07A4E56A07A0E07A070895ACEBB5E191
:104D5C00F0E0EE0FFF1FAE0FBF1F0895ED81FE8137
:104D6C00FA93EA930895E98BFA8B6B8B7C8B0895FD
:104D7C00E989FA896B897C890895AD81BE81A05C33
:104D8C00BF4F0E94E9280895AD89BE898F89988DFF
:104D9C0016CFED81FE81A085B185FD010E945428BE
:104DAC000895ED81FE8177DDE3DF0E940E280895E2
:104DBC00A0E0B0E0A083B183E12FF22F0895A98D7C
:104DCC00BA8D0E94E9280895FA93EA93EB8DFC8D35
:104DDC000895A281B3810E94241A0E2F00300895E9
:104DEC00E98DFA8DA681B781808591850895EF8331
:104DFC00F88769877A8757CEA289B3898489958980
:104E0C000895A98DBA8D1496EC91E068EC930895F1
:104E1C00EB87FC876D877E870895EB85FC856D8518
:104E2C007E850895E98DFA8DE581F0E00895AB85D6
:104E3C00BC858D859E850895E0E0F2E00E949F2858
:104E4C003E2F4F2F032E042A0895E98DFA8DA68943
:104E5C00B789808D918DE1CF0E941D28E32FF42F0F
:104E6C00662777270E943C2908950E941D28E0E0C0
:104E7C00F2E060E070E00E9479280895FA93EA93DA
:104E8C00A0E0B2E00C94A5221596EC91E30FEC9304
:104E9C00E32FF42FEE0FFF1FFE2FE0E01E2F2F2F1E
:104EAC000895E181EA93EA8DFB8DB096FA93EA932B
:104EBC000895A689B789808D918D0E941B29A1E048
:104ECC000E94DC0EE03008951496EC91EF7BEC938D
:104EDC00089516960E94E928F1700895A0E0B2E0BA
:104EEC00AE1BBF0B1A2F2B2F0895FA93EA93A12F09
:104EFC00B22F0C94A52236960F01DF010E94ED28EB
:104F0C00DF01CB01E12FF22F5ACEED91FD91E10F94
:104F1C00F21FFE93EE930895AD89BE890E94E92895
:104F2C000895FA93EA93EF89F88D0895AD89BE89B7
:104F3C001A960E94ED280895ED89FE89A681B78105
:104F4C00808591850895AD89BE891496EC91E068B1
:104F5C00EC930895E181EA93EE89FF89B096FA9378
:104F6C00EA930895ED89FE89E581F0E00895ED89D5
:104F7C00FE89A689B789808D918D95CDAF81B88535
:104F8C000E94E92808953A93AA89BB89EC89FD8986
:104F9C0009950895ED89FE893497ED8BFE8B089564
:104FAC00AA89BB89EC89FD89099508950E940A2874
:104FBC000E94E928FA93EA931A930A930895A22F70
:104FCC000E94E922E0300895AC85BD85EE85FF8511
:104FDC0009950895AA85BB85AC91A0300895EE85FE
:104FEC00FF853497EE87FF87AE85BF8514960D91AC
:104FFC001C910895109639F080ED97E00197F1F728
:10500C00A8951197C9F708950024AF0DB01D089508
:10501C00EA0FFB1F681F791F0895AE0FBF1F861F75
:10502C00971F0895EA1BFB0B680B790B0895AE1BB9
:10503C00BF0B860B970B0895EA2BFB2B682B792B58
:10504C000895F195E195F0400895F095609570956F
:10505C00E195FF4F6F4F7F4F0895EE230E2EFD010C
:10506C00BC0131F0EE0FFF1F661F771F0A94D1F7BA
:10507C000895EE230E2EFD01BC0131F07695679557
:10508C00F795E7950A94D1F70895EE0FFF1FEE0FF1
:10509C00FF1FEE0FFF1FEE0FFF1F0895F695E7950C
:1050AC00F695E795F695E795F695E7950895EE0F45
:1050BC00FF1F661F771F0895E62FF72F60E070E043
:1050CC0008956E2F7F2FE0E0F0E008956F2F660FAC
:1050DC00660B762F0895FA9FF02DEB9FF00DEA9F4B
:1050EC00E02DF10D08957A9F702D6B9F700DF89F38
:1050FC00700DE99F700D6A9F602D710DFB9F600D07
:10510C00711DE89F600D711D8827FA9FF02D610DB0
:10511C00781FEB9FF00D611D781FEA9FE02DF10DBC
:10512C00681F781F08956E2F6A9FF0016B9FF00D1A
:10513C0008950024112490E1AA0FBB1F001C111C20
:10514C000E1A1F0A18F40E0E1F1E01C0A1609A95AC
:10515C0099F7FD01D00108953F934F935F9300247D
:10516C0011244427552730E2AA0FBB1F881F991F13
:10517C00001C111C441F551F0E1A1F0A460B570BFF
:10518C0028F40E0E1F1E461F571F01C0A1603A9532
:10519C0059F7FD01BC01D001CA015F914F913F91BC
:1051AC000895E894B7FF04C0A095B0951196689443
:1051BC00F7FD47DFBEDFFD010EF443DF0895CCDFC2
:1051CC00FD01BC010895ED91FC9111970895ED91AD
:1051DC00FD916D917C9113970895ED91FD916D91D9
:1051EC007D910895ED93FD936D937C9308957E933B
:1051FC006E93FE93EE930895E881F9816A817B8129
:10520C000895A881B9818A819B810895E883F983E7
:10521C006A837B830895A083B183828393830895EB
:10522C007A936A93FA93EA9308959A938A93BA932A
:10523C00AA930895182E862F612D192E972F712D54
:10524C001B2EBF2FF12D1A2EAE2FE12D0895309766
:10525C0060407040089500240A160B0608060906E3
:10526C000895EA17FB07680779070895AE17BF077B
:10527C008607970708955A934A933A932A931A9359
:10528C000A9308955D814C813B812A8119810881A3
:10529C000895AC0FBD1F05900D928A95E1F7089506
:00000001FF
