:020000000C945E
:10000200AD070C9400000C9400000C9400000C94BA
:1000120000000C9400000C9400000C9400000C945E
:1000220000000C9400000C9400000C9400000C944E
:1000320000000C943B090C9400000C9400000C94FA
:1000420000000C941E090C9400000C9400000C9407
:1000520000000C9400000C9400000C9400000C941E
:1000620000000C9400000C9400000C9400000C940E
:1000720000000C9400000C9400000C9400000C94FE
:1000820000000C9400000C9400000C9400000C94EE
:1000920000000C940000637C777BF26B6FC530012B
:1000A200672BFED7AB76CA82C97DFA5947F0ADD429
:1000B200A2AF9CA472C0B7FD9326363FF7CC34A5FD
:1000C200E5F171D8311504C723C31896059A0712B2
:1000D20080E2EB27B27509832C1A1B6E5AA0523BA1
:1000E200D6B329E32F8453D100ED20FCB15B6ACB58
:1000F200BE394A4C58CFD0EFAAFB434D338545F960
:10010200027F503C9FA851A3408F929D38F5BCB608
:10011200DA2110FFF3D2CD0C13EC5F974417C4A77A
:100122007E3D645D197360814FDC222A908846EE21
:10013200B814DE5E0BDBE0323A0A4906245CC2D315
:10014200AC629195E479E7C8376D8DD54EA96C56AE
:10015200F4EA657AAE08BA78252E1CA6B4C6E8DDA4
:10016200741F4BBD8B8A703EB5664803F60E61352F
:1001720057B986C11D9EE1F8981169D98E949B1ECC
:1001820087E9CE5528DF8CA1890DBFE642684199E7
:100192002D0FB054BB1652096AD53036A538BF4070
:1001A200A39E81F3D7FB7CE339829B2FFF87348E9A
:1001B2004344C4DEE9CB547B9432A6C2233DEE4CC9
:1001C200950B42FAC34E082EA16628D924B2765B5B
:1001D200A2496D8BD12572F8F66486689816D4A46C
:1001E2005CCC5D65B6926C704850FDEDB9DA5E1577
:1001F2004657A78D9D8490D8AB008CBCD30AF7E4F8
:100202005805B8B34506D02C1E8FCA3F0F02C1AFA6
:10021200BD0301138A6B3A9111414F67DCEA97F2F1
:10022200CFCEF0B4E67396AC7422E7AD3585E2F931
:1002320037E81C75DF6E47F11A711D29C5896FB742
:10024200620EAA18BE1BFC563E4BC6D279209ADB20
:10025200C0FE78CD5AF41FDDA8338807C731B1122A
:1002620010592780EC5F60517FA919B54A0D2DE521
:100272007A9F93C99CEFA0E03B4DAE2AF5B0C8EB44
:10028200BB3C83539961172B047EBA77D626E1696A
:10029200146355210C7D8D01020408102040801B3F
:1002A2003600000306050C0F0A09181B1E1D141741
:1002B2001211303336353C3F3A39282B2E2D242764
:1002C2002221606366656C6F6A69787B7E7D7477D4
:1002D2007271505356555C5F5A59484B4E4D4447C4
:1002E2004241C0C3C6C5CCCFCAC9D8DBDEDDD4D734
:1002F200D2D1F0F3F6F5FCFFFAF9E8EBEEEDE4E724
:10030200E2E1A0A3A6A5ACAFAAA9B8BBBEBDB4B793
:10031200B2B1909396959C9F9A99888B8E8D848783
:1003220082819B989D9E97949192838085868F8CE3
:10033200898AABA8ADAEA7A4A1A2B3B0B5B6BFBC23
:10034200B9BAFBF8FDFEF7F4F1F2E3E0E5E6EFEC13
:10035200E9EACBC8CDCEC7C4C1C2D3D0D5D6DFDC83
:10036200D9DA5B585D5E57545152434045464F4C73
:10037200494A6B686D6E67646162737075767F7CE3
:10038200797A3B383D3E37343132232025262F2CD3
:10039200292A0B080D0E07040102131015161F1C43
:1003A200191A00020406080A0C0E10121416181A62
:1003B2001C1E20222426282A2C2E30323436383A8B
:1003C2003C3E40424446484A4C4E50525456585A7B
:1003D2005C5E60626466686A6C6E70727476787A6B
:1003E2007C7E80828486888A8C8E90929496989A5B
:1003F2009C9EA0A2A4A6A8AAACAEB0B2B4B6B8BA4B
:10040200BCBEC0C2C4C6C8CACCCED0D2D4D6D8DA3A
:10041200DCDEE0E2E4E6E8EAECEEF0F2F4F6F8FA2A
:10042200FCFE1B191F1D131117150B090F0D0301DC
:1004320007053B393F3D333137352B292F2D2321FA
:1004420027255B595F5D535157554B494F4D4341EA
:1004520047457B797F7D737177756B696F6D6361DA
:1004620067659B999F9D939197958B898F8D8381CA
:100472008785BBB9BFBDB3B1B7B5ABA9AFADA3A1BA
:10048200A7A5DBD9DFDDD3D1D7D5CBC9CFCDC3C1AA
:10049200C7C5FBF9FFFDF3F1F7F5EBE9EFEDE3E19A
:1004A200E7E50009121B242D363F48415A536C657B
:1004B2007E779099828BB4BDA6AFD8D1CAC3FCF522
:1004C200EEE73B3229201F160D04737A6168575EEE
:1004D200454CABA2B9B08F869D94E3EAF1F8C7CE42
:1004E200D5DC767F646D525B40493E372C251A136A
:1004F2000801E6EFF4FDC2CBD0D9AEA7BCB58A8322
:1005020098914D445F5669607B72050C171E212835
:10051200333ADDD4CFC6F9F0EBE2959C878EB1B8C1
:10052200A3AAECE5FEF7C8C1DAD3A4ADB6BF8089B1
:10053200929B7C756E6758514A43343D262F1019A1
:10054200020BD7DEC5CCF3FAE1E89F968D84BBB2ED
:10055200A9A0474E555C636A71780F061D142B22C1
:1005620039309A938881BEB7ACA5D2DBC0C9F6FFF9
:10057200E4ED0A0318112E273C35424B5059666FA1
:10058200747DA1A8B3BA858C979EE9E0FBF2CDC435
:10059200DFD63138232A151C070E79706B625D5441
:1005A2004F46000B161D2C273A3158534E45747F87
:1005B2006269B0BBA6AD9C978A81E8E3FEF5C4CF21
:1005C200D2D97B706D66575C414A2328353E0F04B1
:1005D2001912CBC0DDD6E7ECF1FA9398858EBFB441
:1005E200A9A2F6FDE0EBDAD1CCC7AEA5B8B38289F9
:1005F200949F464D505B6A617C771E150803323921
:10060200242F8D869B90A1AAB7BCD5DEC3C8F9F270
:10061200EFE43D362B20111A070C656E73784942C0
:100622005F54F7FCE1EADBD0CDC6AFA4B9B2838850
:10063200959E474C515A6B607D761F1409023338E0
:10064200252E8C879A91A0ABB6BDD4DFC2C9F8F330
:10065200EEE53C372A21101B060D646F7279484380
:100662005E55010A171C2D263B3059524F44757EA8
:100672006368B1BAA7AC9D968B80E9E2FFF4C5CE60
:10068200D3D87A716C67565D404B2229343F0E05F0
:100692001813CAC1DCD7E6EDF0FB9299848FBEB580
:1006A200A8A3000D1A1734392E236865727F5C5196
:1006B200464BD0DDCAC7E4E9FEF3B8B5A2AF8C81E0
:1006C200969BBBB6A1AC8F829598D3DEC9C4E7EAEC
:1006D200FDF06B66717C5F524548030E1914373A80
:1006E2002D206D60777A5954434E05081F12313C14
:1006F2002B26BDB0A7AA8984939ED5D8CFC2E1ECA0
:10070200FBF6D6DBCCC1E2EFF8F5BEB3A4A98A872B
:10071200909D060B1C11323F28256E6374795A573F
:10072200404DDAD7C0CDEEE3F4F9B2BFA8A5868B6F
:100732009C910A07101D3E332429626F7875565B1F
:100742004C41616C7B7655584F420904131E3D3073
:10075200272AB1BCABA685889F92D9D4C3CEEDE03F
:10076200F7FAB7BAADA0838E9994DFD2C5C8EBE68B
:10077200F1FC676A7D70535E49440F0215183B36DF
:10078200212C0C01161B3835222F64697E73505DB3
:100792004A47DCD1C6CBE8E5F2FFB4B9AEA3808DFF
:1007A2009A97000E1C123836242A707E6C624846D4
:1007B200545AE0EEFCF2D8D6C4CA909E8C82A8A607
:1007C200B4BADBD5C7C9E3EDFFF1ABA5B7B9939DC9
:1007D2008F813B352729030D1F114B455759737DD7
:1007E2006F61ADA3B1BF959B8987DDD3C1CFE5EB27
:1007F200F9F74D43515F757B69673D33212F050B37
:10080200191776786A644E40525C06081A143E3014
:10081200222C96988A84AEA0B2BCE6E8FAF4DED026
:10082200C2CC414F5D537977656B313F2D23090768
:10083200151BA1AFBDB39997858BD1DFCDC3E9E776
:10084200F5FB9A948688A2ACBEB0EAE4F6F8D2DC54
:10085200CEC07A746668424C5E500A041618323C66
:100862002E20ECE2F0FED4DAC8C69C92808EA4AAB6
:10087200B8B60C02101E343A28267C72606E444AC6
:10088200585637392B250F01131D47495B557F7188
:10089200636DD7D9CBC5EFE1F3FDA7A9BBB59F9196
:1008A200838D20222A2B2C5B3D5D7C7F000000047F
:1008B2000002000180004000200010000800040037
:1008C20002000000008000400020001000080040EC
:1008D2000020001000080004000203030302020CBF
:1008E2000008000100062831292041206861726455
:1008F200206572726F72206F63637572656420691E
:100902006E20746865206C6F77206C6576656C204C
:100912006469736B20492F4F206C61796572200ADC
:100922000028322920417373657274696F6E2066E4
:1009320061696C6564200A002833292054686520A7
:10094200706879736963616C20647269766520648A
:100952006F65736E277420776F726B200A002834DC
:100962002920436F756C64206E6F742066696E6413
:10097200207468652066696C65200A002835292084
:10098200436F756C64206E6F742066696E642074A8
:1009920068652070617468200A002836292054682E
:1009A200652070617468206E616D6520666F726D7E
:1009B200617420697320696E76616C6964200A0033
:1009C2002837292041636365732064656E69656415
:1009D2002064756520746F2070726F686962697433
:1009E200656420616363657373206F72206469724A
:1009F2006563746F72792066756C6C200A00283802
:100A0200292041636365732064656E6965642064AF
:100A1200756520746F2070726F68696269746564AD
:100A220020616363657373200A00283929205468A2
:100A3200652066696C652F6469726563746F72798B
:100A4200206F626A65637420697320696E76616CD7
:100A52006964200A002831302920546865207068B2
:100A620079736963616C20647269766520697320A9
:100A720077726974652070726F746563746564203F
:100A82000A002831312920546865206C6F67696338
:100A9200616C206472697665206E756D6265722084
:100AA200697320696E76616C6964200A00283132AC
:100AB200292054686520766F6C756D6520686173B6
:100AC200206E6F20776F726B2061726561200A0061
:100AD20028313329205468657265206973206E6F4E
:100AE2002076616C69642046415420766F6C756D86
:100AF20065200A002831342920665F6D6B667328F1
:100B0200292061626F727465642064756520746F58
:100B1200206120706172616D657465722065727208
:100B22006F72200A002831352920436F756C6420CA
:100B32006E6F7420616363657373207468652076D9
:100B42006F6C756D652077697468696E207468656D
:100B520020646566696E656420706572696F6420E1
:100B62000A000A0D0A4D454E55204349465241445A
:100B72004F204145532020203129434946524152BA
:100B8200202032294445534349465241520A0D0A14
:100B92000D0A000A0D446120656C206E6F6D627251
:100BA200652064656C206172636869766F20646594
:100BB200206C61206C6C6176653A200025730045DB
:100BC20072726F7220656E20656C20617263686953
:100BD200766F206465206C61206C6C6176650A0D0D
:100BE20000446120656C206E6F6D627265206465E1
:100BF2006C206172636869766F2061206369667236
:100C020061723A20004172636869766F20656E6393
:100C12006F6E747261646F0A0D0043696672616E71
:100C2200646F2E2E2E0A00204E756D20426C6F715D
:100C32007565733A2020002020256C752F256C7570
:100C4200202020202020202020202000434F4D5013
:100C52004C455441444F2E2E2E20202020000A0DB8
:100C62000A0D0A4172636869766F2063726966725F
:100C720061646F20656E20256C75206D7365672039
:100C820028256C7520626C6F71756573290A0D0ACF
:100C92000D004361646120626C6F71756520746F31
:100CA2006D6F20656E2070726F6D6564696F2025AF
:100CB2006C75207365670A0D004E756D65726F2045
:100CC20064652062797465732F6269747320636945
:100CD200667261646F733A20256C7520627974655F
:100CE200732F256C7520626974730A0D005469654F
:100CF2006D706F206465206C6563747572612F6519
:100D020073637269747572613A20256C75206D7314
:100D120065670A0D005469656D706F20746F7461A8
:100D22006C2064656C2070726F6365736F3A202566
:100D32006C75207365670A0D0A004572726F722026
:100D4200616C2067656E65726172206172636869A9
:100D5200766F2064652073616C6964612025690A7D
:100D6200004172636869766F206E6F20656E636FF3
:100D72006E747261646F0A0D004572726F72206543
:100D82006E20656C206172636869766F20646520ED
:100D92006C61206C6C6176652025690A0D004461E6
:100DA20020656C206E6F6D6272652064656C2061D7
:100DB20072636869766F2061206465736369667225
:100DC20061723A200025732000446120656C206E18
:100DD2006F6D6272652064656C206172636869760A
:100DE2006F2064652073616C6964613A2000446518
:100DF2007363696672616E646F2E2E2E200A004440
:100E0200657363696672616E646F2E2E2E202020D8
:100E1200004E756D20426C6F717565733A0020202B
:100E2200256C75202F20256C752020202020202065
:100E3200202020202000202020256C752F256C7575
:100E420020202020202020202020202020202000C0
:100E52000A0D0A0D4172636869766F2064657363D7
:100E62007269667261646F20656E20256C75206DF3
:100E72007365672028256C7520626C6F71756573C8
:100E8200290A0D004E756D65726F206465206279C6
:100E92007465732F62697473206465736369667223
:100EA20061646F733A20256C752062797465732FC3
:100EB200256C7520626974730A0D005469656D7042
:100EC2006F20746F74616C2064656C2070726F6344
:100ED20065736F3A20256C7520736567200A0D0AC9
:100EE200004572726F7220616C2067656E65726177
:100EF20072206172636869766F2064652073616C29
:100F0200696461202569004472697665204E4F202C
:100F120044657465637461646F000100EBFE904D7B
:100F220053444F53352E30004E4F204E414D4520F5
:100F32002020204641543332202020004E4F204EA4
:100F4200414D4520202020464154202020202000D1
:100F52000100D30D1C0F0000F894EE27EFBBF1E067
:100F6200F5BFE5BF8DE0A2E0BB27ED938A95E9F7D7
:100F720080E090E2A0E0B1E0ED930197E9F7E2E5CD
:100F8200FFE085919591009761F0A591B59105904B
:100F92001590BF01F00105900D920197E1F7FB0159
:100FA200F0CF8BBFE0E0EEBBEFEFEDBFE0E2EEBFD4
:100FB200C8EBDCE00C94C40B2C978CE0A0E0B0E012
:100FC200ECEDF8E00E94AA2D0A93849A859A809A01
:100FD200819A829A839AA2E3B0E00E945B2C00E09D
:100FE2000C3058F40E94B8250E94BC25AE0FBF1FDA
:100FF200AC910E94C1250F5FF3CFECE0E093BC0CF3
:10100200A091BC0C20D008812D9608958C9A8C98C2
:101012000895AA93E881E87011F08B9A01C08B9829
:10102200E881E47011F08A9A01C08A98E881E2703E
:1010320011F0899A01C08998E881E17011F0889ACB
:1010420001C0889887C0AA930A938D980E94B825F8
:101052000E94C5250E94CC25D9DF0881DEC2AA9351
:101062000A938D9A0E94B8250E94C5250E94CC251C
:10107200CDDF0881D2C2BA93AA930A9300E0E02F8F
:101082000F5FA981BA81F0E0EA0FFB1FA491E7DFAD
:10109200E02FA981BA81F0E0EA0FFB1FE491E03072
:1010A20071F798C2BA93AA930A9300E0E02F0F5FF8
:1010B2000E94D325AC91D3DFA981BA81EE27A00F7C
:1010C200BE1FEC91E03091F785C2A1E0BCDF08952C
:1010D200AA93E881F0E0309719F4A981A05814C0CE
:1010E200E130A0E0FA0719F4A981A0540DC0E23062
:1010F200A0E0FA0719F4A981AC5606C0E330A0E0DB
:10110200FA0719F4A981AC529EDF87C2AA93E8813B
:10111200F0E0EC55FD4F1DC0AA93E881F0E0EC55DC
:10112200FC4F17C0AA93E881F0E0EC55FB4F11C0C9
:10113200AA93E881F0E0EC55FA4F0BC0AA93E8813C
:10114200F0E0EC55F94F05C0AA93E881F0E0EC55C8
:10115200F84FE49121960895BA93AA93E881F98110
:10116200E130A0E0FA0719F4E8EEF8E061C0E230FD
:10117200A0E0FA0719F4E3E2F9E05AC0E330A0E094
:10118200FA0719F4EAE3F9E053C0E430A0E0FA0701
:1011920019F4E0E6F9E04CC0E530A0E0FA0719F4F2
:1011A200EEE7F9E045C0E630A0E0FA0719F4ECE911
:1011B200F9E03EC0E730A0E0FA0719F4E2ECF9E00A
:1011C20037C0E830A0E0FA0719F4E0E0FAE030C0F6
:1011D200E930A0E0FA0719F4ECE2FAE029C0EA30BB
:1011E200A0E0FA0719F4E7E5FAE022C0EB30A0E04C
:1011F200FA0719F4E4E8FAE01BC0EC30A0E0FA07C1
:1012020019F4EFEAFAE014C0ED30A0E0FA0719F49D
:10121200E2EDFAE00DC0EE30A0E0FA0719F4E6EFD5
:10122200FAE006C0EF30A0E0FA0731F4E7E2FBE0B3
:10123200FA93EA930E94D925F0C10A921A92FA927D
:101242006A937A938A939A93AA93BA93EA93FA93B4
:10125200EFB7EA930E943913E991EFBFF991E9914F
:10126200B991A9919991899179916991F99019907E
:10127200099018956A937A93AA93BA93EA93FA9388
:10128200EFB7EA93ABEFBCE00E94DE25E991EFBF36
:10129200F991E991B991A991799169911895BA93C6
:1012A200AA930A9300E0E0E0E093080DA091080DF4
:1012B200A03190F4E091080D0E94D3250C91E091A9
:1012C200080D0E94D325E02FF0E0E856FF4FE4918D
:1012D200EC930E94E725EACF7DC10E94ED2511968D
:1012E2000C91E981FA81E581A981BA811196EC9389
:1012F200E981FA81E1850E94F325E5850E94FA25BC
:1013020005870E9401261F960C91E981FA81E385E7
:10131200A981BA811F96EC93E981FA81E7810E9443
:101322001E26E3810E942526038354C1BA93AA9301
:101332000E949D2D00E0003108F03FC00E942C2643
:10134200FF93EF93A12FE8DEEF93A22FDFDEAF91A1
:10135200EA27E327E427AF91BF910E945126FF932A
:10136200EF93A22FD9DEEF93A32FD0DEAF91EA271E
:10137200E127E427AF91BF910E945A26FF93EF9392
:10138200A32FCADEEF93A42FC1DEAF91EA27E12794
:10139200E227AF91BF910E946326FF93EF93A42FA0
:1013A200BBDEEF93A12FB2DEAF91EA27E227E3275C
:1013B200AF91BF91EC930C5FBECF98C1AA93E0E0CE
:1013C200E093080DA091080DA03190F40E946C26C4
:1013D200EA0FFB1FFF93EF930E946C260E94722676
:1013E2000E947D26AF91BF91EC930E94E725EACF40
:1013F200C7C0BA93AA9324970E949E2D00E110E0E1
:10140200003B08F05EC020E02430B8F40E9486263B
:10141200BF01A22FBB27EE27A00FBE1FE4E0F0E022
:101422000E94812DEA1BFB0BA885B985AE0FBF1F59
:10143200EC91DB01EC932F5FE7CFA02FBB27E0E11C
:10144200F0E00E94322D309719F53C81ED81EC835A
:10145200EE81ED83EF81EE83FE013796308320E04B
:10146200243068F40E9486260F010E948D26F0E047
:10147200E856FF4FE491D001EC932F5FF1CFE12FBB
:10148200F0E0E856FD4FE491AC81EA27EC831F5F60
:1014920020E02430A8F4E02FA885B985F0E0EA0F17
:1014A200FB1FBF01E02FF0E07097AE0FBF1F0C9043
:1014B2000E948D26E025DB01EC930F5F2F5FE9CFC1
:1014C2009FCF0E94A52D2A960895BA93AA9360975A
:1014D2000A9300E0003178F40E94BC25EA0FFB1F5A
:1014E2000F01AB89BC89EE27A00FBE1FEC91D00182
:1014F200EC930F5FEFCF0E949526A0E05FDF01E043
:101502000A3058F40E949E26DE0111960FDF0E94D7
:101512009526A02F53DF0F5FF3CF0E949E260E94D5
:101522009526AAE04BDF00E0003148F4E02F0E944C
:10153200A6260E94BC250E94AD260F5FF5CF20C1D2
:10154200AA93E0E0E093080DA091080DA031C0F449
:101552000E946C26EA0FFB1FFF93EF930E946C26FA
:101562000E947226A0EAB0E00E94812DEA1BFB0BCA
:101572000E947D26AF91BF91EC930E94E725E4CFB4
:10158200259608950E94ED251D960C91E981FA8118
:10159200E185A981BA811D96EC93E981FA81E58101
:1015A2000E94FA25E1810E94F32501830E9401260F
:1015B20013960C91E981FA81E781A981BA81139688
:1015C200EC93E981FA81E3850E942526E7850E9452
:1015D2001E260787088123960895BA93AA93E0E00E
:1015E200E093080DA091080DA031B8F4E091080D28
:1015F200A881B981F0E0EA0FFB1F0F01E091080D0D
:10160200F0E0AE0FBF1FEC91F0E0E856FE4FE49120
:10161200D001EC930E94E725E5CF22960895BA9374
:10162200AA930E949D2D00E0003108F05FC00E9445
:101632002C26FF93EF93A12F87DDEF93A22F78DD66
:10164200AF91EA27EF93A32F79DDAF91EA27EF93CA
:10165200A42F68DDAF91EA27AF91BF910E94512676
:10166200FF93EF93A12F5EDDEF93A22F6DDDAF917C
:10167200EA27EF93A32F5CDDAF91EA27EF93A42F24
:101682005DDDAF91EA27AF91BF910E945A26FF9389
:10169200EF93A12F53DDEF93A22F44DDAF91EA2701
:1016A200EF93A32F51DDAF91EA27EF93A42F40DDF3
:1016B200AF91EA27AF91BF910E946326FF93EF9308
:1016C200A12F36DDEF93A22F39DDAF91EA27EF93F9
:1016D200A32F28DDAF91EA27EF93A42F35DDAF9139
:1016E200EA27AF91BF91EC930C5F9ECF0E94A42D8D
:1016F20027960895BA93AA9360970A93E0E0E0933D
:10170200080DA091080DA03190F4E091080DF0E0D1
:10171200DE011196EA0FFB1F0F01E091080DAB8964
:10172200BC89F0E00E94AD260E94E725EACF0E9424
:101732009526A0E005DF01E00A3048F40E94B326B6
:10174200A02FFEDEDE0111966ADF0F5FF5CF0E9449
:10175200B326AAE0F5DEE0E0E093080DA091080DC3
:10176200A03170F4E091080D0E94A626E091080DC8
:10177200F0E0DE0111960E94AD260E94E725EECF31
:10178200088165960895EF97E397D650E0E8E093D5
:101792006100E1E0E0936100E0E3E093BD0CEAE385
:1017A200E093BE0CE0E0E093C800E8E1E093C900FA
:1017B200E6E0E093CA00E0E0E093CD00E3E3E093EB
:1017C200CC00E2E0E093B000E3E0E093B100E9EFA7
:1017D200E093B300E2E0E0937000EAE0E09381007E
:1017E200E7E2E0938900EFE0E0938800E2E0E09333
:1017F2006F000E94DD077894A0E00E94ED0F0E9426
:10180200BC26E0E0EA93DE01AF5BBB4F0E94941C72
:101812002E2FE03009F07DC2E091C800E07829F077
:101822000E94A921E093070DF7CFE4E6FBE00E94B6
:10183200C0260E94A921E093070DA091070DA133B4
:1018420009F01FC100E010E0E5E9FBE00E94C026BC
:101852000E94C326A091080DA13128F40E94D72628
:101862000E94E725F7CF0E94E5260E94EB2671F43D
:101872000E94E5260E94F526ADB7BEB711971F93C9
:101882000F930E94FC1D0F911F9104C0E1ECFBE03D
:101892000E94C0260E94FE26E0E1F0E0E017F10778
:1018A20099F60E940227AAE0BDE0A3DDE1E0E09301
:1018B200C20DE3EEFBE00E94C0260E94C326A09167
:1018C200080DA13128F40E94D7260E94E725F7CF00
:1018D2000E94E5260E94EB2609F0C8C0E7E0FCE082
:1018E2000E94C026E0E0E093080D0E94E725F0E0A8
:1018F200E354F34FA081AE32C1F7E091080DF0E05E
:10190200E254F34FA1E4A083E091080DF0E0E1542A
:10191200F34FA5E4A083E091080DF0E0E054F34F0B
:10192200A3E5A0830E9407270E940B2709F094C019
:101932000E9415270E941E270E942727ACE1BCE0C7
:101942000E942E27AEECBCE0ADDBA0EDB7E00E941A
:101952005B2CFE01E05EFD4FE285EF70E093080D27
:101962000E943527E091080DE03021F0AAEBBDE09E
:101972000E94DE25E091080DE093C30D0E94072727
:101982000E944D270E945227ADB7BEB711971F93F1
:101992000F930E94671F0F911F910E9457270E9469
:1019A20063270E946C2799F10E94E5260E944D2729
:1019B2000E947727ADB7BEB711971F930F930E946E
:1019C200FC1D0F911F910E944D27AAE0BDE07DDD15
:1019D2000E9407270E944D270E947727ADB7BEB706
:1019E20011971F930F930E94671F0F911F91AEEBE8
:1019F200BDE00E94DE250E947C2741F40E948527DB
:101A02000E948D27E9E3FCE00E949227C8CF0E9442
:101A120085270E948D27EAE3FCE00E94AD270E9401
:101A2200B0270E94B727AEE4BCE00E943C080E94A7
:101A3200C427E0E6FCE00E94E3270E94EE270E9412
:101A4200F427EBEBFCE00E94AD270E940B28E7E1B4
:101A5200FDE00E94332807C0ECE3FDE00E94C026AF
:101A62000E94FE26E1E0E093C20D04C0E3E6FDE041
:101A72000E94C026A091C20DA13009F41ACF0E9483
:101A82000227A091070DA23309F042C100E010E045
:101A9200E5E9FBE00E94C0260E94C326A091080D42
:101AA200A13128F40E94D7260E94E725F7CF0E9491
:101AB200E5260E94EB2671F40E94E5260E94F52697
:101AC200ADB7BEB711971F930F930E94FC1D0F91E4
:101AD2001F9104C0EBE7FDE00E944428E0E1F0E042
:101AE200E017F107A9F60E940227E1E0E093C20D98
:101AF200E0EAFDE00E94C026EEEBFBE00E945128E6
:101B02000E9424252696ECEEFCE0FA93EA93E7EC99
:101B1200FDE00E9451280E947C232896E2E0E09397
:101B2200080DE093080DA091080DA13128F40E9440
:101B3200D7260E94E725F7CF0E94E5260E94EB26D2
:101B420009F0DBC0E7E0FCE00E94C026EBECFDE020
:101B52000E94C0260E94C326A091080DA13128F43C
:101B62000E94D7260E94E725F7CF0E9407270E94EE
:101B72000B2709F0B8C00E9415270E941E270E9459
:101B82002727E0EFFDE00E94C026A1E0BEE00E9410
:101B92002E27ACEEBCE00E9453080E94E5260E946C
:101BA2004D270E945227ADB7BEB711971F930F93CF
:101BB2000E94FC1D0F911F91E091C30DE093080D4F
:101BC200E03019F4E0E1E093080D0E9435270E940D
:101BD2005727A091BA0DB091BB0D8091BC0D909189
:101BE200BD0D0E945B2808F449C00E946327E150A2
:101BF200F040604070400E946C2781F10E94E5260F
:101C02000E944D270E947727ADB7BEB711971F9349
:101C12000F930E94FC1D0F911F910E944D270E945D
:101C220063280E944D270E947727ADB7BEB7119750
:101C32001F930F930E94671F0F911F91AEEBBDE0A0
:101C42000E94DE250E947C2741F40E9468280E949F
:101C52008D27E0E2FEE00E949227C7CF0E9468280B
:101C62000E948D27E8E3FEE00E94AD270E94B02784
:101C72000E94B727AEE4BCE00E943C080E94E52621
:101C82000E944D270E947727ADB7BEB711971F93C9
:101C92000F930E94FC1D0F911F910E944D270E94DD
:101CA20063280E944D270E945227ADB7BEB71197F5
:101CB2001F930F930E94671F0F911F910E94C427C9
:101CC200E2E5FEE00E94E3270E94EE270E94F4274D
:101CD200E6E8FEE00E94AD270E940B28EDEBFEE055
:101CE2000E94332807C0E3EEFEE00E9444280E94CF
:101CF200FE26E1E0E093C20D04C0E3E6FDE00E94AF
:101D0200C026A091C20DA13009F4F2CE0E94022792
:101D120083CDA9E0BFE00E943C08FFCFFFCFFFCFF9
:101D2200AA930E949E2D30E01C81AD81BE812D912F
:101D3200AD83BE8308E0330FE32FE227E07811F092
:101D4200E9E03E27220F0150B1F7115071F7E32F5E
:101D5200EE0FE1600E94A52D1EC50A93E2E3E09317
:101D6200D50DEFEFEEBDEDB5E7FFFDCFEFEFEEBD29
:101D7200EDB5E7FFFDCF0EB50F3F21F0E091D50D98
:101D8200E03009F401C0F2CFE02F86C4289AEFEFC9
:101D9200EEBDEDB5E7FFFDCF0895BA93AA930E9479
:101DA2009F2DE4E1E093D40DEFEFEEBDEDB5E7FF3B
:101DB200FDCF0EB50F3F21F4E091D40DE03009F4D0
:101DC20001C0F2CF0E3F21F0E0E00E94A62DE3C455
:101DD2001D812E81EFEFEEBDEDB5E7FFFDCF2F9315
:101DE2001F931F5F2F4FEEB5AF91BF91EC93EFEFB3
:101DF200EEBDEDB5E7FFFDCF2F931F931F5F2F4F72
:101E0200EEB5AF91BF91EC93EFEFEEBDEDB5E7FF0D
:101E1200FDCF2F931F931F5F2F4FEEB5AF91BF9151
:101E2200EC93EFEFEEBDEDB5E7FFFDCF2F931F93E0
:101E32001F5F2F4FEEB5AF91BF91EC93EB81FC8109
:101E42003497EB83FC8331F6EFEFEEBDEDB5E7FFA0
:101E5200FDCFEFEFEEBDEDB5E7FFFDCFE1E00E9474
:101E6200A62D99C4AA930E949E2D77DFEF3F21F001
:101E7200E0E00E94A52D8FC4EC81EEBDEDB5E7FF39
:101E8200FDCFAC81AD3F69F110E02D813E81D901DA
:101E92002F5F3F4FEC91EEBDEDB5E7FFFDCFD901CE
:101EA2002F5F3F4FEC91EEBDEDB5E7FFFDCF115037
:101EB20071F7EFEFEEBDEDB5E7FFFDCFEFEFEEBD52
:101EC200EDB5E7FFFDCFEFEFEEBDEDB5E7FFFDCFDF
:101ED2000EB5E02FEF71E53021F0E0E00E94A52D74
:101EE2005AC4E1E00E94A52D56C40E94762D1A9391
:101EF2000A93EE81E07881F0EE81EF77EE83E7E7F7
:101F0200EA93A0E0B0E080E090E0EFDF1E2F123015
:101F120018F0198108813FC4AE81AC3449F036DF34
:101F220028981BDFEF3F21F0EFEF1981088133C4BE
:101F3200EE81EEBDEDB5E7FFFDCFED81EEBDEDB576
:101F4200E7FFFDCFEC81EEBDEDB5E7FFFDCFEB8105
:101F5200EEBDEDB5E7FFFDCFEA81EEBDEDB5E7FFE2
:101F6200FDCF01E0AE81A03411F405E904C0AE81D9
:101F7200A83409F407E80EBDEDB5E7FFFDCFAE8149
:101F8200AC3429F4EFEFEEBDEDB5E7FFFDCF0FEF77
:101F9200EFEFEEBDEDB5E7FFFDCF1EB517FF02C0B7
:101FA200015009F401C0F4CFE12F19810881F3C374
:101FB200BA93AA930A9304E0EFEFEEBDEDB5E7FF03
:101FC200FDCFA981BA811196A983BA831197EEB583
:101FD200EC93015089F7C6C4AA9324970E949F2DBF
:101FE200EF81E03021F0E1E00E94A62DAAC1EAE0F3
:101FF200E093D40DE091D40DE030E1F7E091D30D00
:10200200E27029F0E091D30D0E94A62D9AC1209A88
:10201200289AE5B1E97FE5B92B9A2398E4B1E76004
:10202200E4B9E2E5ECBDE0E0EDBD25E00AE0EFEF6A
:10203200EEBDEDB5E7FFFDCF0150C9F7E0E4EA934D
:10204200A0E0B0E080E090E050DF1E2F2150113080
:1020520011F0203009F401C0E9CF20E0113009F07D
:1020620068C0E4E6E093D40DE8E4EA93AAEAB1E0BA
:1020720080E090E03ADFE13091F5DE01139698DFDF
:10208200AD81A13019F4AE81AA3A09F027C0E091DE
:10209200D40DE03049F0E9EEEA93A0E0B0E080E050
:1020A20090E423DFE03009F401C0F1CFE091D40DD8
:1020B200E03049F0EAE7EA93A0E0B0E080E090E0A7
:1020C20014DFE03009F00AC0DE01139671DFEB8104
:1020D200E07411F0ECE001C0E4E02E2F2AC0E9EE3A
:1020E200EA93A0E0B0E080E090E0FFDEE23018F496
:1020F20022E019EE02C021E011E4E091D40DE030BB
:1021020041F01A93A0E0B0E080E090E0EEDEE03033
:1021120009F401C0F2CFE091D40DE03049F0E0E5DE
:10212200EA93A0E0B2E080E090E0DFDEE03009F088
:1021320020E02093D60D2ADE203051F0E091D30D1D
:10214200EE7FE093D30DE0E5ECBDE1E0EDBD11C023
:10215200289803DE1BDEE0E0ECBDE4B1E07FE4B9E9
:10216200E5B1E07FE5B92098E091D30DE160E0931D
:10217200D30DE091D30D0E94A62DE3C0AA93E8816E
:10218200E03011F0E1E002C0E091D30D2196089514
:10219200AA93EF81E03019F4E881E03011F4E4E031
:1021A200D0C0E091D30DE17011F0E3E0CAC0E0913C
:1021B200D60DE87071F4E981FA816B817C81A0E02F
:1021C200B2E080E090E00E94D42CE983FA836B8332
:1021D2007C83A881A130A9F4E1E5EA93AA81BB81BD
:1021E2008C819D8182DEE03059F4ED81FE81FA938B
:1021F200EA93A0E0B2E0D1DDE03011F0E0E0E88364
:1022020023C0E2E5EA93AA81BB818C819D816DDEC8
:10221200E030D1F4ED81FE81FA93EA93A0E0B2E0DE
:10222200BCDDE03051F0ED81FE81E050FE4FED83E8
:10223200FE83E881E150E88369F7ECE4EA93A0E0E9
:10224200B0E080E090E051DEA1DDE881E03011F005
:10225200E1E001C0E0E075C0AA93EF81E03019F43B
:10226200E881E03011F4E4E06CC0E091D30DE1705C
:1022720011F0E3E066C0E091D30DE47011F0E2E00A
:1022820060C0E091D60DE87071F4E981FA816B814A
:102292007C81A0E0B2E080E090E00E94D42CE9834F
:1022A200FA836B837C83A881A130A1F4E8E5EA93E9
:1022B200AA81BB818C819D8118DEE03051F4ED81D1
:1022C200FE81FA93EA93AEEFCDDDE03011F0E0E06B
:1022D200E88330C0E091D60DE67039F0E7EDEA937D
:1022E200A981BB278827992700DEE9E5EA93AA811D
:1022F200BB818C819D81F9DDE030E1F4ED81FE81CD
:10230200FA93EA93ACEFAEDDE03051F0ED81FE815D
:10231200E050FE4FED83FE83E881E150E88371F7E0
:10232200E0E0F0E0FA93EA93ADEF9CDDE03011F4E7
:10233200E1E0E8832BDDE881E03011F0E1E001C06B
:10234200E0E028960895BA93AA9360970E949E2D82
:10235200EF89E03011F0E4E087C1E091D30DE17044
:1023620011F0E3E081C101E0EE89E03031F4289818
:10237200F4DCEF3F09F400E075C1E13009F05FC021
:10238200E9E4EA93A0E0B0E080E090E0AEDDE03086
:1023920049F4FE013496FA93EA93A0E1B0E0FDDC41
:1023A200E03009F44BC0EC81E295EF70E695E695DA
:1023B200E13079F4E0E0FC85AD85B0E0EA0FFB1F87
:1023C20031961E2F2F2FA12FB22F88279927EAE0AF
:1023D2002EC0E985EF70AE2FEE85E078EE1FE0E0CB
:1023E200EE1FAE0FED85E370EE0FEA0FEE5F3E2FAC
:1023F200EC85E295EF70E695E695AE2FEB85F0E081
:102402000E94AA2CB0E0AE0FBF1FEA85E370F0E095
:102412000E94AA2CFE2FE0E0EA0FFB1F31961E2F2E
:102422002F2FA12FB22F88279927E32FE9500E943F
:102432008E2CAC89BD890E94532D00E013C1E2307D
:1024420041F4AC89BD89E0E0F2E0ED93FC9300E059
:1024520009C1E33009F0ABC0E091D60DE47081F11F
:10246200EDECEA93A0E0B0E080E090E03EDDE03009
:1024720031F5EFEFEEBDEDB5E7FFFDCFFE0134968E
:10248200FA93EA93A0E1B0E088DCE030C1F030E3F7
:10249200303039F0EFEFEEBDEDB5E7FFFDCF315053
:1024A200F7CFEE85E295EF70A0E1B0E080E090E03A
:1024B2000E948E2CAC89BD890E94532D00E076C00B
:1024C200E9E4EA93A0E0B0E080E090E00EDDE030E5
:1024D20009F06CC0FE013496FA93EA93A0E1B0E0F1
:1024E2005CDCE03009F462C0E091D60DE27051F19B
:1024F200EE85EF73FF27662777270E94B82C7F931C
:102502006F93FF93EF93EF85E078FF276627772796
:10251200DF01CB01E7E00E949A2CAF91BF918F912E
:102522009F910E94692CEF5FFF4F6F4F7F4FDF013A
:10253200CB01E989E295EF70E695E695E1500E94BC
:102542008E2C2FC0EE85EC77E695E695FF27662761
:102552007727EF5FFF4F6F4F7F4F7F936F93FF930D
:10256200EF93EF85E370FF2766277727DF01CB0123
:10257200E3E00E948E2CDF01CB01EF85E07EE29545
:10258200EF70E695FF27662777270E94692CEF5F99
:10259200FF4F6F4F7F4FAF91BF918F919F910E94DD
:1025A200D42CAC89BD890E94532D00E05BC0EA3077
:1025B20039F4E091D60DAC89BD89EC9300E052C0AC
:1025C200EB3011F439E403C0EC3001F53AE43A930C
:1025D200A0E0B0E080E090E088DCE030B1F4EC898B
:1025E200FD89FA93EA93A0E1B0E0D7DBE03069F02D
:1025F200EC89FD89FA93EA93AFE092DBAE2FEC8986
:10260200FD89E785EA1709F400E02CC0ED3071F48A
:10261200EAE7EA93A0E0B0E080E090E066DCE03038
:1026220021F4AC89BD89C4DC00E01CC0EE30C9F4E1
:10263200EDECEA93A0E0B0E080E090E056DCE03020
:1026420079F4EFEFEEBDEDB5E7FFFDCFEC89FD8943
:10265200FA93EA93A0E4B0E0A0DBE03009F000E0F6
:1026620001C004E093DBE02F0E94A52D6896089537
:102672000A930091D40D003019F001500093D40D4B
:102682000091D50D003019F001500093D50DE09165
:10269200D30DEB7FE093D30D099108952797A09175
:1026A200B80CB091B90C109731F0A091BA0CB0915E
:1026B200BB0C109729F4E0E0F0E061E27AE36BC032
:1026C200FE013696FA93EA93FE0137960E9470282D
:1026D200E091B80CF091B90C0995FE013396FA938A
:1026E200EA93FE013496FA93EA93DE011496E0919E
:1026F200BA0CF091BB0C0995E881F981EC5BF740CB
:1027020066277727DF01CB01E9E10E948E2C7F93B8
:102712006F93FF93EF93EA810E947528E5E10E948F
:102722008E2CAF91BF918F919F910E947D2CDF01E2
:10273200CB01EB81F0E00E94C72C0E94C22C0E94C8
:102742007D2C7F936F93FF93EF93EE810E94752808
:10275200EBE00E948E2CAF91BF918F919F910E94CE
:102762007D2C7F936F93FF93EF93ED810E947528E9
:10277200E5E00E948E2CAF91BF918F919F910E94B4
:102782007D2CDF01CB01EC81F0E0F595E7950E940D
:10279200C72C0E947D2C27960895AA930A93EA815A
:1027A200FB81E4910E2FE03019F0E981E01709F482
:1027B20006C0EA81FB813196EA83FB83F0CFE02FEA
:1027C200F0E00881249608950E94762D24970A93BA
:1027D200A985BA859E960E94482D0E947B280E9458
:1027E20080280E9485280E94922D09F452C0E98512
:1027F200FA85E481E03089F10E948A28E03011F004
:10280200E1E028C2A985BA851496E0E0EC93E98557
:10281200FA850E949C280D01A985BA855A960E94C4
:10282200482DD0010E94692C0E9485280E94972D74
:10283200A0F4E985FA850381023078F0A985BA858A
:102842005A960E94482D0E9485280E94692C0E9457
:102852007B280E948A280150EFCF0E9480280E9484
:10286200882DB9F0E985FA85A181AA93EA85FB85CD
:10287200F296FA93EA930E94A1280E94A62811F0E8
:10288200E1E0E8C10E948028A985BA859E960E944F
:10289200532DE0E0DFC1BA93AA930A93E981FA814A
:1028A2000E94AD280E2F003009F05BC0A981BA81C9
:1028B200AC91A33029F4E981FA81E581E03009F491
:1028C20044C0A981BA810E94B528E981FA810E9497
:1028D200BD28E981FA81F296E250FE4FA5E5BAEAF7
:1028E200A083B183E981FA81F296A2E5B2E581E69D
:1028F20091E40E94C628EC51FE4FA2E7B2E781E4C0
:1029020091E60E94C628E851FE4F0F01A981BA81C3
:102912001E960E94CC28F296E451FE4F0F01A98127
:10292200BA811A960E94CC28A181AA93EA81FB81DE
:10293200F296FA93EA93EC81FD810E94D4288CDC12
:10294200A981BA811596E0E0EC93E981FA81A1812F
:10295200AA93E0E0EA93A0E0B0E0F5DCE03009F011
:1029620001E0E02F0881239608950E94762D249796
:102972000E949E2D0E94DC280E945B2850F0AC85AC
:10298200BD855E960E94482D0E94DC280E94972DEC
:1029920018F00E94E12860C0AC85BD8592960E9425
:1029A200E628AC85BD85EC91F0E0E130A0E0FA07C5
:1029B20039F528853985F901F695E7952E0F3F1FE0
:1029C2000E94ED2809F046C00E9402290C911127AD
:1029D2002F5F3F4F0E94ED28E9F50E940229EC91FA
:1029E200FE2FE0E00E2B1F2BE885E17021F0F801AD
:1029F2000E94AF2C02C0F801FF70662777272CC017
:102A0200E230A0E0FA0779F40E940A290E94132911
:102A12000E941A29F9F4A885B985E2E00E942429C6
:102A22000E942D2919C0E330A0E0FA0799F40E9410
:102A32000A290E9432290E941A2961F4A885B985BF
:102A4200E4E00E9424290E94482DEF7FFF7F6F7FE0
:102A52007F7002C00E9439290E94A52D2E960895EA
:102A62000E94762D24970E949D2D0E943E290E944D
:102A72005B2850F0A989BA895E960E94482D0E946F
:102A82003E290E94972D10F042E085C0A989BA899B
:102A920092960E94482DED83FE836F837887A989E1
:102AA200BA89EC91F0E0E130A0E0FA0709F043C006
:102AB2000D851E85F801F695E7950E0F1F1F0E94E2
:102AC200432909F063C00E94592951F0D901EC91C0
:102AD200EF70AE2FE985F0E00E94A62CEA2B01C030
:102AE200E985D901EC930F5F1F4FA989BA89149622
:102AF200E1E0EC930E94432909F048C00E94592961
:102B020049F00E946429E4E00E949A2CFF2766277C
:102B120077270EC0D901EC91E07F1E2E0E94642916
:102B2200E8E00E949A2CFF2766277727EF70E129B9
:102B3200D901EC932BC0E230A0E0FA0789F40E949D
:102B420069290E9413290E94722901F5AD85BE856B
:102B5200E2E00E947D29A985BA85A083B18316C0CF
:102B6200E330A0E0FA0789F40E9469290E94322921
:102B72000E94722959F4AD85BE85E4E00E947D2948
:102B82000E9464290E946C2D01C042E0A989BA8981
:102B92001496E1E0EC93E42F0E94A42D639608952D
:102BA2000E94762D24970A930E9486290E945B2810
:102BB20018F00E948B2910F002E04BC000E00E9446
:102BC2008B2908F046C0E985FA85FA93EA93AF812A
:102BD200B88589859A85C9DE0E947B28E981FA81B8
:102BE2006B817C810E94882DA1F10E9485280E9420
:102BF200942911F402E02DC00E9485280E949C298C
:102C020011F401E026C0E985FA85FA93EA930E945D
:102C1200A4290E94712D0E94A92922DF0E2F0030C3
:102C2200C1F4E985FA850E94AE2951F0A985BA85D9
:102C32001E960E94DE25A985BA851596E1E0EC93E1
:102C4200E981FA816B817C81ED83FE836F837887D2
:102C5200B6CFE02F08812B9608950E94762D6097BB
:102C6200AC89BD895E960E94482D0E94B3290E94BC
:102C7200B6290E94882DB1F4AC89BD891A960E94AA
:102C8200E6280E94BB290E948C2D39F00E94C0299F
:102C92000E94BB290E94972D20F00E94E1280E94E9
:102CA200C3291EC00E94C829AA89BB898C899D8913
:102CB2000E94CD290E94D4290E945B2818F40E9408
:102CC200E12890C00E94C0290E94D4290E94972D19
:102CD20018F40E94D92986C00E94B6290E94C329ED
:102CE2000E94DE290E94E3290E94A128EF5FFF4F84
:102CF2006F4F7F4F0E94E3290E94C0290E94DC2867
:102D02000E94972D60F0E2E0F0E060E070E00E9447
:102D1200E3290E94E82918F40E94ED2963C00E9469
:102D2200C829AA85BB858C859D850E94CD290E94D4
:102D3200D9290E94882DA1F00E94D4290E949C29A1
:102D420029F00E94D4290E94942919F40E94D929B9
:102D520049C00E94E82919F40E94ED2943C0C4CF5A
:102D62000E94C8290E94F229AFEFBFEF8FEF9FE0C8
:102D720077DEE03019F00E94392934C00E94B6296A
:102D82000E94882D91F00E94C829EA89FB896C89EA
:102D92007D890E94712DAE85BF858889998960DE03
:102DA200E03019F00E9439291DC00E94A128AC8987
:102DB200BD891A960E94532DEC89FD890E94AE2985
:102DC20079F0AC89BD891E960E944E2D31976040E4
:102DD20070400E94582DAC89BD891596E1E0EC93B4
:102DE2000E94A128669608950E94762D0E94C0290D
:102DF200E250F040604070400E94B329EC81FD81B6
:102E0200A68DB78D80A191A1E2E0F0E060E070E0D4
:102E12000E94F9290E94622D0E94972D18F00E94AB
:102E2200ED2967C3EC81FD81E281F0E00E94622D11
:102E32000E94C72C0E94D42C7F936F93FF93EF9331
:102E4200AC81BD819A960E94482DAF91BF918F911E
:102E52009F910E94692C4DC3BA93AA9324971A9307
:102E62000A93EE81FF810E94FE2916960E94062A8D
:102E72000E940D2A0E94942929F00E94122A0E947F
:102E8200172A20F0E2E0198108815AC10E941F2A04
:102E920029F40E94122AA081A33009F006C00E94E0
:102EA200122AB696DF010E94062A0E941F2AB1F456
:102EB2000E94262A3896DF010E94442DAE81BF81EE
:102EC200AE17BF0720F0E2E01981088139C10E94E4
:102ED200122AB696DF010E94482D3BC00E94122A98
:102EE200E281A0E1EA9F8001AE81BF81A017B10714
:102EF20048F10E94122AFA93EA930E94BB2935DD17
:102F0200EA83FB836C837D830E940D2A0E949C29A5
:102F120021F4E1E01981088113C10E940D2A0E9467
:102F22005B2828F00E94122A0E94172A20F0E2E071
:102F32001981088105C1EE81FF81E01BF10BEE834F
:102F4200FF83D2CF0E94262AFA93EA930E94BB29DA
:102F52004BDFDF01CB01EE81FF810E94AF2C0E948B
:102F6200302A0E94352A0E94122AF296DF01EE814F
:102F7200FF810E943B2A19810881E2C0AA9324970B
:102F82000E949F2DA885B98514960E94442D3196E2
:102F92008F01002E012A31F0A885B9851E960E9464
:102FA200492A11F4E4E0CAC0F801EF7009F0BCC08C
:102FB200A885B9851E960E94DE25A885B9851A9630
:102FC2000E94492A61F40E94122A3896DF010E9467
:102FD200442D0E171F0710F0E4E0B0C0A5C0F801A1
:102FE2000E94AF2C0F010E94122AE281F0E0319779
:102FF200E021F121309709F097C00E94122A0E9425
:103002004E2AB3DC0E94572A0E945C2A0E945B2847
:1030120010F4E2E093C00E945C2A0E949C2911F401
:10302200E1E08CC00E94122A7E96DF010E94482DA8
:103032000E945C2A0E94972D08F467C0EF81E0305D
:1030420011F4E4E07BC00E94122A0E944E2A05DE9F
:103052000E94612A0E94882D11F4E7E06FC00E944D
:103062005C2A0E94942911F4E2E068C00E945C2A62
:103072000E949C2911F4E1E061C00E94122A0E9480
:10308200AD28E03011F0E1E059C00E94122A0E94FE
:10309200BD280E94122ADF01BE96FF93EF93FD0125
:1030A2000E94672AAF91BF910E94532D20E00E9497
:1030B200122AE2812E17A8F40E94122A3496A1E065
:1030C200A0830E94122A0E94AD28E03011F0E1E0B4
:1030D20035C00E94122ABE96DF010E94DE252F5FB4
:1030E200E6CF0E94122ABE96FF93EF93DF010E9461
:1030F200482DDF01CB01E22FF0E00E94C72C0E9495
:10310200F929AF91BF910E94532DEB81FC816D8112
:103112007E81A885B9851A960E94532D0E94122A93
:103122000E94672A0E94352AF8010E94FE290E9405
:10313200442DF296DF01F8010E943B2A0E94A62D3F
:103142002A9608950E946C2A21F0E02F0E94A52D54
:10315200D0C10E947B2A01F5AC81BD8152962D918E
:103162003C91D9011C91103011F404E015C0F90111
:10317200E385E87031F40E948C2A0E944125E030F8
:1031820009F001C009C0EC81FD81FA93EA93A0E045
:10319200F5DE0E2F0030E9F2E02F0E94A52DA9C125
:1031A2000E946C2AB1F40E947B2A99F4EC81FD8181
:1031B200A289B3891C91153E11F0103009F409C09F
:1031C200EC81FD81FA93EA93A1E0D8DE0E2F003064
:1031D20051F3003029F50E947B2A11F5AC81BD81A3
:1031E20052962D913C913A932A93E0E0EA93A0E221
:1031F200B0E00E946C250E948C2A0E945A25AC8164
:10320200BD8154960E94442DE385E871D9011C9634
:10321200EC93AC81BD810E94442D3496A1E0A08341
:10322200E02F0E94A52D65C1BA93AA9325970E940B
:103232009C2DAD85BE8554963D914C914A933A930F
:10324200E0E2EA93ABE0B0E00E946C25E0E0E887C0
:10325200E9870E2F5E2FE8E0EA87AB85BC850E94E6
:10326200972A0E949C2AAE0FBF1FAC91AE3211F575
:103272000E94A12A1E3221F4A885B98513970CF069
:1032820003C00E94AD2AF4CF1F3221F01C3511F089
:10329200113208F402C0E6E071C00E949C2A0E942A
:1032A200B42A10F4E4E201C0E0E2A32FB42F1B968B
:1032B200EC9363C00E94A12A113220F01F3211F058
:1032C2001C3509F432C01E3219F0EA855E1768F027
:1032D200AA85A83011F41E3211F0E6E04FC058E082
:1032E200EBE0EA87000F000F1FC0103818F00360F0
:1032F200E6E044C0E4EAF8E0FA93EA93A12F4DDA5B
:10330200309711F0E6E03AC0113410F01B3508F0A6
:1033120002C0026007C0113610F01B3708F002C06D
:10332200016010520E94AD2AC5CF0E949C2A0E94C1
:10333200B42A10F4E4E001C0E0E01E2F503011F492
:10334200E6E01CC0A32FB42FAC91A53E21F4A32F1D
:10335200B42FE5E0EC93AA85A83011F4000F000F1A
:10336200E02FE370E13009F41061E02FEC70E430FB
:1033720009F41860E32FF42F1387E0E00E94A32DD5
:103382002F960895BA93AA930E949E2DE1E0E03011
:1033920029F0AC81BD81AC91A03209F006C0EC816C
:1033A200FD813196EC83FD83F1CFAC81BD81AC917F
:1033B200AF3229F0AC81BD81AC91AC3559F4EC81CE
:1033C200FD813196EC83FD83AE81BF8116960E940A
:1033D200BC2A0AC0AE81BF810E94442D7696DF01CD
:1033E2000E94482D0E94C02AAC81BD81AC91BB27AE
:1033F200909760F40E94C62AA0E0B0E02DDD0E2F67
:10340200AE81BF8152960E94CB2A3EC00E94C62A3C
:10341200DE01169609DF0E2F0030B1F5AE81BF81B5
:1034220091DE0E2FAE81BF8154960E94442DE3851A
:10343200E4703E2F003039F0043011F4303009F0DE
:1034420001C005E021C03030F9F4AE81BF8152964F
:103452001D912C91E12FF22FE385E07111F405E02B
:1034620013C00E94D02A0E94C22C7F936F93FF93B5
:10347200EF930E94D42AAF91BF918F919F910E94A6
:10348200DA2A0E94C02AC2CFE02F0E94A52D2896D8
:1034920008950E94762DEC81FD81A181AA93ED8190
:1034A200FE81F296FA93EA93EB81FC816D817E8133
:1034B2000E94A62811F0E3E01CC0EC81FD810E946D
:1034C200DF2A11F0E2E015C0AC81BD81A859BF4FDF
:1034D2000E94E92A11F4E0E00CC0EC81FD81F29631
:1034E200EE5AFF4FDF010E94E92A11F4E0E001C029
:1034F200E1E026960895AA9364970E949D2DAC8DD3
:10350200BD8D0E94442DEF83F887AF81B885EC9181
:10351200E0533E2F3A3020F41196AC91AA3309F0D1
:103522000AC0EF81F8853296EF83F887AC8DBD8DA6
:10353200ED93FC9302C03091DB0D313010F0EBE0E3
:10354200CCC1E32F0E94F72A0E94442DED83FE8313
:10355200AA8DBB8DED93FC93309711F4ECE0BDC1C5
:10356200AD81BE81EC91E03089F0ED81FE81A181D7
:103572000E94BF104E2F40FD09C0E98DE03011F0CE
:1035820042FD01C002C0EAE0A8C1A6C1AD81BE8170
:10359200E0E0EC93E32FAD81BE811196EC93ED81D7
:1035A200FE81A1810E94ED0F4E2F40FF02C0E3E099
:1035B20094C1E98DE03011F042FD01C002C0EAE0A1
:1035C2008CC10E94FF2A0E94ED29EF8BF88F698F30
:1035D2007A8FDF01CB015DDF0E2F0130D9F4ED814F
:1035E200FE81F296E254FE4F1E2F2F2FE481E0302F
:1035F20089F0A12FB22F18960E94482DED8BFE8BD9
:103602006F8B788F0E94FF2AAF89B88D898D9A8D32
:1036120040DF0E2F033011F4E1E05FC1003049F4C6
:10362200AD81BE81DD960E94442DE030A2E0FA0712
:1036320011F0EDE052C1AD81BE81A85BBF4F0E9487
:103642002D290E94042B0E94092B0E94882D41F4EF
:10365200AD81BE81AA5ABF4F0E94482D0E94042B01
:103662000E94092BAD81BE815A960E94532DED8195
:10367200FE81EE5BFF4FE081AD81BE811396EC933C
:10368200ED81FE81E381F0E0A989BA898B899C8969
:103692000E94C72C0E94D42C0E94042B0E940E2B45
:1036A2000E94152BAD81BE8192960E94532DED8111
:1036B200FE81E7ADAD81BE811296EC93AD81BE81F4
:1036C200AD5BBF4F0E94442DAD81BE811896ED9334
:1036D200FC93AD81BE81AB5BBF4F0E942D29ED876C
:1036E200FE876F87788B0E94882D51F4AD81BE8151
:1036F200AE5ABF4F0E94482DED87FE876F87788BA9
:103702000E940E2B0E943E29662777270E94F929E4
:10371200A989BA898B899C890E94732C7F936F93A4
:10372200FF93EF930E941A2BAF91BF918F919F91BC
:10373200662777270E94782CED81FE81E281F0E0F6
:103742000E94C72C0E940D2DEE5FFF4F6F4F7F4FDF
:10375200E987FA876B877C87AD81BE815E960E947E
:10376200532D01E00E946429A73FEFE0BE07E0E08D
:103772008E07E0E09E0708F002E00E946429A73F5E
:10378200EFEFBE07E0E08E07E0E09E0708F003E0FF
:10379200033039F4AD81BE81A25ABF4F0E94482D39
:1037A20002C00E94222BAD81BE8196960E94532DAB
:1037B2000E94222B7F936F93FF93EF930E941A2B09
:1037C200AF91BF918F919F910E94302AAD81BE81AE
:1037D2009A960E94532DAD81BE811E960E94392970
:1037E2000E94532DAD81BE811496E0E0EC9303302C
:1037F20009F05FC0AD81BE811596EC93AD81BE81AB
:10380200AE59BF4F0E94442D0E94152BAD81BE813F
:1038120052960E94532DED81FE81A181AA93EE81E1
:10382200FF81F296FA93EA93E885F9850E94D428FB
:103832000E94C910E03011F5ED81FE810E94DF2A5D
:10384200E9F4AD81BE81D2960E94482DE235A2E50F
:10385200FA07A1E66A07A1E47A0781F4ED81FE8105
:10386200F296EC51FE4FDF010E94482DE237A2E7AB
:10387200FA07A1E46A07A1E67A0709F01AC0ED8106
:10388200FE81F296E451FE4FDF010E94482DAD8188
:10389200BE811A960E94532DED81FE81F296E85167
:1038A200FE4FDF010E94482DAD81BE811E960E940F
:1038B200532DAD81BE810C930E94B528AD81BE818E
:1038C20056960E94BC2AA9EDBDE00E94292BAD812B
:1038D200BE811696ED93FC93E0E00E94A42D6E96B5
:1038E2000895BA93AA93EA81FB81309771F0AA8175
:1038F200BB81EC91E03049F0EA81FB81A681B7817E
:10390200E881F981EA17FB0711F0E9E00AC0EA81D0
:10391200FB81A1810E94BF10E17011F0E3E001C0C0
:10392200E0E024960895BA93AA931A930A93AC817D
:10393200A13010F0EBE020C0EC810E94F72A0D913B
:103942001C91002E012A19F0D801E0E0EC93EA81E3
:10395200FB81309721F0AA81BB81E0E0EC93EC81FE
:10396200A7EDBDE0F0E0EE0FFF1FEA0FFB1FAA81FB
:10397200BB81A083B183E0E0198108812596089577
:10398200AA93A2970E949F2DA8A5B9A50E94CB2A0F
:10399200EDA1EF71EDA3FE01B696FA93EA93FE0153
:1039A2007196FA93EA93E9A5EE71AE2FA4DD0E2F7C
:1039B200003009F01CC1FE013396EBA3FCA3FE010B
:1039C2003F96FA93EA93A8A5B9A5DCDC0E2FEDA1E8
:1039D200EC7109F49CC02897003089F0043021F47E
:1039E200DE015796DDDB0E2F003019F0E02F28960E
:1039F200FEC0EDA5E860EDA719A52AA56BC0EDA54F
:103A0200E47019F0E8E02896F2C019A52AA5012E63
:103A1200022A29F0E12FF22FE385E17119F0E7E0A4
:103A22002896E5C0EDA5E87009F454C00E94D02A9A
:103A32000E94C22C7F936F93FF93EF930E94D42A2C
:103A4200AF91BF918F919F910E94DA2A0E94B32970
:103A5200E12FF22F74960E942F2B7A960E942F2B21
:103A62007C960E94A9290E946C2DAF89B88D14966C
:103A7200E1E0EC93AF89B88D9E960E94E6280E9401
:103A8200C0290E94882DB9F0EF89F88DFA93EA9344
:103A92000E940D2A85D80E2F003011F02896A7C05B
:103AA2000E94C029E150F04060407040AF89B88D5B
:103AB2001A960E94532DEF89F88DFA93EA93AE81FC
:103AC200BF81888599850E94E5130E2F003011F081
:103AD20028968DC0EDA5E870C1F0E12FF22F3B963C
:103AE200A0E0A0830E944F130E94C3290E94DE29F6
:103AF200A12FB22F1E960E94532DAF89B88D149616
:103B0200E1E0EC93EDA5E062EDA728961BC0003042
:103B120011F0E02F6CC019A12AA1012E022A29F06E
:103B2200E12FF22FE385E07111F0E4E060C0EDA136
:103B3200E27029F0E12FF22FE385E17009F402C06F
:103B4200E7E055C0AF85B8899E960E94482DA8A58A
:103B5200B9A55A960E94532DE9A1FAA1A8A5B9A523
:103B62005E96ED93FC93EDA1A8A5B9A51496EC93EE
:103B72000E94D02A0E94C22C7F936F93FF93EF93EF
:103B82000E94D42AAF91BF918F919F910E94DA2A0D
:103B9200A8A5B9A51E960E94532DA12FB22F5C96FF
:103BA2000E94482DA8A5B9A51A960E94532DA8A532
:103BB200B9A516960E94BC2AA8A5B9A51596EFEF3D
:103BC200EC93A8A5B9A556960E94BC2AEF85F88960
:103BD200A8A5B9A5ED93FC93AF85B88916960E9466
:103BE200442DA8A5B9A51296ED93FC93E0E00E949E
:103BF200A62DAA960895BA93AA932E970E949D2D58
:103C0200EF89F88DED83FE83AB89BC890E94CB2AB4
:103C12000E94362B0E943B2B0E94402B11F0E02F7A
:103C220051C1E98DFA8DA481A07811F0E2E04AC178
:103C3200E98DFA8DA481A17011F4E7E043C1E98D09
:103C4200FA8DA285B385848595859F938F93BF93C3
:103C5200AF930E94472BEF91FF916F917F910E944A
:103C6200732C0E944E2BAD89BE89882799270E940A
:103C7200922D20F4EF81F885ED8BFE8BED89FE8984
:103C8200309709F41EC10E94472BFD01BC01F1705F
:103C9200309709F0E8C0E98DFA8D05800E94362B35
:103CA200E2810E16D8F10E94472B0E948C2D31F42E
:103CB200A98DBA8D1E960E94482D08C00E94362BEF
:103CC2000E943B2B0E94532B0E94B614EF87F88B65
:103CD200698B7A8BAF85B88989899A890E945B281A
:103CE20020F40E94582BE2E0EDC0AF85B8898989A3
:103CF2009A890E949C2921F40E94582BE1E0E2C09B
:103D0200EF85F88969897A89A98DBA8D52960E94C0
:103D1200532DA98DBA8D1596E0E0EC930E94362BB7
:103D22000E943B2B0E94532B5FD80E945F2B0E9464
:103D3200642B0E94882D21F40E94582BE2E0C2C01D
:103D42000E94692B0E946E2B0E94C72C0E94692C34
:103D52000E945F2BAD89BE890E94732B09F44CC06F
:103D62000E94692BE30FF41F0F010E94362BE281A0
:103D7200D001F0E0EA17FB0758F40E94362BE281EB
:103D8200F0E0DF010E94692BAE1BBF0B3A2F4B2FD5
:103D92000E94362BE181EA930E94C62AEE85FF85B6
:103DA200688979890E94712DA32F0E94C910E03081
:103DB20021F00E94582BE1E085C0E98DFA8DA481A3
:103DC200A07429F00E947C2B0E94832B08F00FC064
:103DD2000E947C2B0E948C2BAD81BE818827992763
:103DE200EA0FFB1F0E943B2BB0960E94952BA98DD8
:103DF200BA8D0E949B2B51C0E98DFA8DA481A074CB
:103E020089F00E94362B0E94A82BEC8DFD8D0E941A
:103E1200B02B21F00E94582BE1E054C0A98DBA8D3D
:103E22000E94BB2B0E947C2B0E94922D79F00E9453
:103E3200362B0E94A82BEE85FF85688979890E941E
:103E4200A62821F00E94582BE1E03CC00E94642B7E
:103E5200A98DBA8D56960E94532DA98DBA8D1596AD
:103E6200EC91EF5FEC93A98DBA8D0E94C02B0E945A
:103E7200C52BED89FE89E117F20710F41D892E8901
:103E82000E94FF2AAB8DBC8D0E94C02BAB8DBC8DD6
:103E92009096EA0FFB1F0E94CC2B0E94D22BE98D39
:103EA200FA8D0E94DB2BD0010E94532DAB89BC8975
:103EB2000E94E52BED89FE89E11BF20BED8BFE8B57
:103EC200DDCEE0E00E94A42D6B960895BA93AA93EA
:103ED2002A970E949D2DEB89FC89ED83FE83AF8595
:103EE200B8890E94CB2A0E94EC2B0E94F12B0E94DF
:103EF200402B11F0E02F92C1ED89FE89A481A078B8
:103F020011F0E2E08BC1ED89FE89A481A27011F467
:103F1200E7E084C1ED89FE89A285B3858485958514
:103F2200E989FA890E94302A7F936F93FF93EF9376
:103F32000E94F62BAF91BF918F919F910E94972D76
:103F420018F4E0E0E98BEA8BE989FA89309709F401
:103F52004BC10E94FC2BFD01BC01F170309709F0AE
:103F62000DC1ED89FE8905800E94EC2BE2810E16BF
:103F720008F450C0AD89BE8916960E94492AE1F420
:103F8200AD89BE891E960E94482D0E945F2B0E9419
:103F9200642B0E94882D79F40E94EC2BFA93EA9309
:103FA2000E94A9290E942E160E945F2BAD89BE890C
:103FB2001E960E94532D0AC00E94EC2B0E94F12BE8
:103FC2000E94532B0E942E160E945F2B0E94642B8C
:103FD2000E94882D09F408C10E946E2B0E94942928
:103FE20021F40E94032CE2E019C10E946E2B0E9470
:103FF2009C2921F40E94032CE1E010C10E94642B51
:10400200AD89BE8952960E94532DAD89BE891596FF
:10401200E0E0EC93ED89FE89A481A07489F00E940E
:10402200EC2B0E940A2CE88DF98D0E94B02B21F016
:104032000E94032CE1E0F2C0AD89BE890E94BB2B35
:104042000E94EC2B0E94F12B0E94532B0E94F5162A
:104052000E944E2B0E94882D21F40E94032CE2E044
:10406200DDC00E94122CAF81B88589859A850E9495
:10407200C72C0E94692CEF83F88769877A87A98900
:10408200BA890E94732B09F44EC00E94122CE30FCE
:10409200F41F0F010E94EC2BE281D001F0E0EA173D
:1040A200FB0758F40E94EC2BE281F0E0DF010E9452
:1040B200122CAE1BBF0B3A2F4B2F0E94EC2BE1812F
:1040C200EA930E94C62A0E94F229A32F0E942D1170
:1040D200E03021F00E94032CE1E0A0C00E94172CE6
:1040E2000E94832BD8F4ED89FE89B0960E94F12BB1
:1040F200A689B789808D918DE985FA856B857C8546
:104102000E948C2BAF81B88588279927EA0FFB1F65
:104112000E94952BAD89BE890E94BB2BAD89BE89B9
:104122000E949B2B4DC00E94172C0E94922DC9F019
:104132000E94FC2B0D010E94F62BD0010E94972DAC
:1041420058F40E94EC2B0E940A2CEA85FB856C85B0
:104152007D850E94A62809F404C00E94032CE1E098
:104162005DC00E94A429AD89BE8956960E94532D36
:10417200AD89BE891596EC91EF5FEC93AD89BE894E
:104182000E94C02B0E94C52BE989FA89E117F20728
:1041920010F419892A89AD89BE890E94C02BAD8984
:1041A200BE899096EA0FFB1FFA93EA93EF81F88596
:1041B2000E94CC2BAD89BE891496EC91E064EC93FD
:1041C2000E94D22BED89FE890E94DB2BD0010E9436
:1041D200532DAF85B8890E94E52BE989FA89E11B45
:1041E200F20BE98BFA8BB0CE0E94FC2B0D010E94E0
:1041F200F62BD0010E94922D50F4AD89BE891696FD
:104202000E94482DAD89BE891A960E94532DAD8910
:10421200BE891496EC91E062EC93E0E00E94A42D3A
:1042220067960895BA93AA9324970E949F2D0E949D
:104232001E2CFA93EA93E985FA850E94402B09F035
:1042420075C0EF81F885A481A07209F46FC0A481C2
:10425200A074A1F00E941E2CE181EA93E885F98501
:10426200B096FA93EA93EA85FB850E94B02B11F08F
:10427200E1E05DC0AF81B8850E94BB2B0E941E2C7D
:10428200FA93EA93E985FA85A28DB38D848D958D93
:104292000E94E5130E2F003009F048C0AF81B885A7
:1042A2005E961D912C91A12FB22F1B96EC91E0628C
:1042B200EC93AF81B8851A960E94482DA12FB22F98
:1042C2005C960E94532DAF81B8851E960E94442DA4
:1042D200A12FB22F5A96ED93FC93EF81F885A68514
:1042E200B78580899189FD01BC010E94BD2CA12F57
:1042F200B22F5496ED93FC930E944F130E94612AB1
:10430200A12FB22F56960E94532DAF81B8851496D5
:10431200EC91EF7DEC930E941E2C3496A1E0A083D9
:104322000E941E2CDF010E944C140E2FE02F0E94CF
:10433200A62D299608950E94ED2574DF0E2F0030D8
:1043420021F4A981BA810E94CB2AE02F088119C0E9
:10435200E091C800E078E1F3E091CE000895AA93DD
:10436200E091C800E072E1F3E881E093CE0021968B
:104372000895BA93AA93AA81F2DFA881B9810E9413
:10438200292B23960895BA93AA931A930A93AA8182
:10439200BB8112960E94442D309729F1AA81BB81DC
:1043A20014960E94442D8F01309761F00230E0E0B4
:1043B2001E0780F0F80131978F01AA81BB81149604
:1043C200ED93FC93AA81BB8112960E94292B31970F
:1043D200AC81A083AA81BB810E94442DFF2312F0ED
:1043E2000E94292B06C0AA81BB81EFEFFFEFED935C
:1043F200FC93198108810C947A25BA93AA932B977E
:104402000E949C2D00E0A989BA890E94CB2AEF89DB
:10441200F88D3196EF8BF88F3197E4913E2FE03093
:1044220009F461C1E02FE03039F4353211F401E0D2
:1044320002C00E94232C56C1E130A9F4353219F48E
:104442000E94232C4EC102E050E010E03D3211F4F4
:1044520011E048C13B3211F45BE244C1303211F445
:1044620050E240C102C0E23039F440E003E03033B0
:1044720011F4106837C102C0E33091F4303310F008
:104482003A3308F007C0AAE04A9F402DE32FE053D9
:104492004E0F28C13C3619F4126005E023C103C057
:1044A200E53009F01FC1E32FE33649F40E942A2CBC
:1044B200ED89FE89A481AA930E94302C12C1E337B0
:1044C20069F40E942A2CAD89BE8914960E94972A0B
:1044D200AE81BF810E947C250E2F0FC0E03791F480
:1044E2000E942A2CAD89BE8914960E94972AAE8119
:1044F200BF810E9488250E2F18601F77E0E0E88BAD
:1045020020E06AC0E43611F0E93611F4146002C00A
:10451200E537A1F4EAE0E88B11FF08C0E0E0FAEC2D
:104522006AE97BE30E94E3290AE022C0E0E1F7E2C4
:1045320060E070E00E94E32905E01AC0E83511F45A
:10454200186003C0E83709F0CCC0E0E1E88B11FF46
:1045520008C0E0E0F0E060E070E10E94E32908E0DA
:1045620007C0E0E0F0E160E070E00E94E32904E0CF
:1045720011FF08C00E942A2CAD89BE8914960E94A0
:10458200482D13C012FF0AC00E942A2CAD89BE8991
:1045920014960E94442D0E94C72C07C00E942A2C08
:1045A200AD89BE8914960E942D29EC87FD876E87FE
:1045B2007F8712FF11C0AF85AA234AF40E94D9292E
:1045C2000E94862CEC87FD876E877F875DE25030E4
:1045D20011F00F5F01C01B7F10FD11C0041778F4AA
:1045E20017FF08C012FF04C01B7F352F015001C006
:1045F20030E301C030E20E94232C4150EFCF202F44
:10460200E889E030B9F42030A1F013FF06C0EE8152
:10461200FF813591EE83FF8305C0AE81BF813D915D
:10462200AE83BF830E94232C403009F041502150B9
:10463200EACF4DC00E94A1280E94D4290E940D2DCC
:104642003E2F3A3030F013FF02C0395C01C0395AB4
:1046520001C0305D14FD1BC0313328F40E94DC28F8
:104662000E94942909F409C0421710F010FF01C0FA
:1046720013C030E217FF0BC030E3106112FF07C016
:104682001B7F5A930E94302C403009F041500E9407
:10469200232C403009F0415021500E94A1280E9451
:1046A200D4290E94402DEC87FD876E877F87E88999
:1046B2000E94DC28FF27662777270E940D2D0E9483
:1046C200E3290E94A1280E94882D09F0B3CF10FF90
:1046D20008C0403031F04150E0E2EA930E94302CB1
:1046E200F8CF00E094CEA989BA890E94442D0E9495
:1046F200A32D69960895FF92F82E26970E949E2D6B
:10470200DE011C960E94362C309719F4EFEFFFEF72
:1047120021C0DE0116960E94652C8D01DE011C96D9
:104722000E94652C0E94972AE0E0E887E987DE0173
:104732001A960E94362C0E943B2CE4ECF1E2FA938A
:10474200EA93DE011A9659DE9F01AE81BF81E0E055
:10475200EC93F9010E94A52D2A96FF900895FF92ED
:10476200F82E26971A930A93DE0114960E94652C5E
:104772008D01E0E0EC83ED83EE83EF83DE0118969A
:104782000E94362C0E943B2CEAEBF1E20E94702838
:1047920034DE198108812896FF9008950E94ED2544
:1047A200E0E0EC93AB81BC81EC910E2FE03019F08C
:1047B200E0E0EC9302C0CCDD0E2FE02F08810C94D8
:1047C2007A25FF92BA93AA9324970E949C2DE0E047
:1047D200F0E0E887F9875E2FE889F9893196E88B5E
:1047E200F98B3197E4912E2FE03009F425C10E9414
:1047F200402CC1F0EDB7FEB7FA93EA935F930E94A3
:10480200452C5F912E2FE03019F00E94402C09F4C4
:1048120007C00E944B2C1CF4EFEFFFEF0FC1EACF51
:10482200522F09C1253209F0EEC040E0E889F9892A
:104832002591E88BF98B203310F02A3308F007C05A
:10484200AAE04A9F402DE22FE0534E0FEFCF2030D7
:1048520009F4F2C0EDB7FEB7FA93EA935F930E94B0
:10486200452C5F913E2FAE2F0E949E25E03039F0FD
:104872000E944B2C1CF4EFEFFFEFE0C0EBCF303087
:1048820009F4D1C0532F403009F44FEFE22FE33641
:1048920099F40E94502CEDB7FEB7FA93EA935F9316
:1048A2000E94452C5F91D801EC930E944B2C1CF482
:1048B200EFEFFFEFC3C0A1C0E33741F50E94502CD8
:1048C200E42F4150E030F1F0EDB7FEB7FA93EA93EE
:1048D2005F930E94452C5F912E2FE03019F00E94C9
:1048E200402C39F00E944B2C1CF4EFEFFFEFA6C0D6
:1048F20009C01F930F930F5F1F4FE22FAF91BF911C
:10490200EC93DECFD801E0E0EC9377C06894F1F845
:10491200E894F2F8E22FE43611F0E93619F4E8945B
:10492200F1F802C0E53711F43AE008C0E83711F4B3
:1049320030E104C0E53209F466C07EC0E0E0EE83F7
:10494200EF836894F0F8E42F4150E03009F446C058
:10495200EDB7FEB7FA93EA935F930E94452C5F91FD
:104962002E2FE13238F40E944B2C1CF4EFEFFFEFB4
:1049720065C017C0F1FC08C06894F1F82D3211F43B
:10498200F2F8E1CF2B32F9F2303131F4A22F0E944A
:10499200A925E03031F009C0A22F0E949525E03010
:1049A20021F4F0FC49C0522F19C0213610F02755CE
:1049B20005C0213410F0275301C02053E32FAE81EC
:1049C200BF81F0E00E94CC2CDF01E22FF0E0EA0F81
:1049D200FB1FEE83FF83E894F0F8B5CF0E94502CC2
:1049E200F2FE06C0EE81FF810E94822CEE83FF83DD
:1049F200EE81FF81D801ED93FC93E885F98531962C
:104A0200E887F98718C0EDB7FEB7FA93EA935F9388
:104A12000E94452C5F91E21771F00E944B2C1CF40E
:104A2200EFEFFFEF0BC0E885F985309719F4EFEF50
:104A3200FFEF04C001C0D0CEE885F9850E94A32D06
:104A42006296FF900895FF92F82E23971A930A9385
:104A5200DE0111960E94652C8D01E0E0EB83EC8370
:104A6200DE0115960E94362C0E943B2CEFECF3E2FD
:104A72000E947028A6DE198108812596FF9008956C
:104A8200BA93AA936627772789919991E991F99127
:104A9200A991B991009629F001976D9171916717CB
:104AA200C9F3671B10F4EFEF0895E0E009F0E39516
:104AB2000895BA93AA9399818881009641F0BD81A5
:104AC200AC81FB81EA8161916D930197E1F7FD81F0
:104AD200EC8126960895BA93AA93B981A88110967B
:104AE20031F0FC81EB816A8161931197E9F7EB81E7
:104AF200FC8125960895BA93AA93A991B991EE27BC
:104B0200FF276D91662311F03196FBCF0895BA937A
:104B1200AA93AA27BB27E991F9910590002011F0E9
:104B22001196FBCFFD010895AA93E1E0F991F033CC
:104B320010F0FA3308F0EE270895AA93E1E0F99114
:104B4200F03229F0F93010F0FE3008F0EE27089527
:104B5200AA93E1E0F991F05340F0FA3038F0FF7592
:104B6200F750FA3010F0F03108F0EE270895A2E085
:104B7200B0E00C945B2CE02FF0E0DE01119608957A
:104B82000E940A080C940708E981E07F0E2F029523
:104B92000F70A02FF5CFE981EF700E2FA02F0E948A
:104BA2000A08E5CFA981BA81F0E0AE0FBF1F0895D0
:104BB20080E00E94B023229608950E944E2DEF5F5E
:104BC200FF4F6F4F7F4F0E94582D0895E091080DBF
:104BD200EF5FE093080D0895BA93AA930A93A9810F
:104BE200BA810895A981BA811596EC93E981FA8177
:104BF2000895A981BA811996EC93E981FA81089501
:104C0200A981BA8112960C91E981FA81E285A98182
:104C1200BA811296EC93E981FA810287A981BA815D
:104C220016960C91E685A981BA811696EC93E981D4
:104C3200FA810687A981BA810895A981BA811B9652
:104C4200EC93E981FA810895A981BA811796EC93D0
:104C5200E981FA810895AD81BE81EE27A00FBE1FC2
:104C62001C91E02FF0E03196AD81BE81AE0FBF1FE7
:104C72002C91E02FF0E03296AD81BE81AE0FBF1FC6
:104C82003C91E02FF0E03396AD81BE81AE0FBF1FA5
:104C92004C91E02FAD81BE81F0E0EA0FFB1F089539
:104CA200EC93E02FF0E03196AD81BE81EA0FFB1F5D
:104CB2000895EC93E02FF0E03296AD81BE81EA0FC9
:104CC200FB1F0895EC93E02FF0E03396AD81BE8197
:104CD200EA0FFB1F0895E091080DAB81BC81F0E063
:104CE2000895AE0FBF1F8C916091080D7727E88160
:104CF200A0E1EA9FF0010895E60FF71FA981BA81AA
:104D0200AE0FBF1FEC91E8270895E22FF0E0DE011D
:104D12001496EA0FFB1F0895E22FF0E0DE011496CD
:104D2200AE0FBF1FEC910895FE013196FA93EA93FC
:104D3200EB89FC89FA93EA930895DE0111960E94A9
:104D42005009DE0111960C946E09AB89BC89F0E022
:104D5200EA0FFB1F0F010895AE0FBF1FEC91D001A8
:104D6200EC930895DE0111960E94C30ADE011196AA
:104D72000E94EE0AD9CFA8ECB0E00C945B2CFA9317
:104D8200EA9316CFEEEBFBE0FA93EA93EEECFCE04B
:104D9200662777270E94712D84E00E94242526969B
:104DA200E2E0E093080DE093080D0895A091080D4C
:104DB200B0E0A354B34FE091080DF0E03297E25314
:104DC200F34FE081EC930895FE01E05EFD4FFA930C
:104DD200EA930895EDEBFCE0FA93EA93A1E00E94D6
:104DE200C11C2E2F20300895EAE0FDE0FA93EA93E9
:104DF200E0E1F0E0FA93EA930895A22FBB270C9426
:104E0200AD08DE01A05EBD4F0C949C21FE01FA9319
:104E1200EA930895EDEBFCE0FA93EA93ABE00E948B
:104E2200C11C2E2F20300895E091FB0CF091FC0C58
:104E32006091FD0C7091FE0C0895E093FF0CF093CD
:104E4200000D6093010D7093020D08950E94660893
:104E5200E0E0EA93A0E00C9469080E943C08E0E0DC
:104E6200EA93A1E00C946908FE01E05EFD4F3A96D8
:104E7200DF010E94482DDF01CB01E0E1F0E060E0BC
:104E820070E00E940D2DE093BA0DF093BB0D60937C
:104E9200BC0D7093BD0D0895E3ECFDE0FA93EA9327
:104EA2000895E1E0F0E0FA93EA930895E0E0E093F8
:104EB200BE0DE093BF0DE093C00DE093C10DE093F2
:104EC200090D0895E091BA0DF091BB0D6091BC0DF2
:104ED2007091BD0D0895A091BE0DB091BF0D80914E
:104EE200C00D9091C10D0E94922D0895E0E1F0E075
:104EF200FA93EA930895E091090DEF5FE093090DAB
:104F0200A091090DA4360895E0E0EA93A0E00E9482
:104F12006908A9E2BCE0A1CFEDEDFCE0FA93EA93C7
:104F22000895FA93EA93E091BE0DF091BF0D60915E
:104F3200C00D7091C10D0E94712DC4DF0E94712DB0
:104F420088E00E947C232C96ADEDBCE00E945308C1
:104F5200E0E0E093090D0895FA93EA93B3CF0E943B
:104F6200712DB0DF0E94712D88E008950E947C238C
:104F72002C96ADEDBCE00E945308E0E0EA93A1E07C
:104F82000E946908F8CEDE010E949C21E091FF0C8C
:104F9200F091000D6091010D7091020DE093030DEF
:104FA200F093040D6093050D7093060DA091FF0C14
:104FB200B091000D8091010D9091020D35DF0E949C
:104FC200732C3BCFFA93EA93E091FF0CF091000D22
:104FD2006091010D7091020DC2CF0E94B0232A96FA
:104FE200E4E9FCE0B9CFA091FF0CB091000D8091F3
:104FF200010D9091020D0E940D2DA8EEB3E080E00C
:1050020090E00E94D42C0E94712D84E00E94B02373
:1050120026960895A0E1B0E080E090E00E94D42CB2
:105022000E94712D4FDFA0E8B0E080E090E00E9486
:10503200D42C0E94712D88E00E94B0232A96EFEEB4
:10504200FCE0FA93EA93E091030DF091040D609174
:10505200050D7091060D0E94712D84E00E94B0230F
:1050620026960895FA93EA93DFDEA8EEB3E080E095
:1050720090E00E94D42C0E94712D84E00E94B02303
:105082002696E0E00895FA93EA93E22FFF27662737
:1050920077270E94712D84E00E94B02326960895FE
:1050A200FA93EA93EEECFCE0662777270E94712DD3
:1050B20084E00895A230E0E0BE07E0E08E07E0E081
:1050C2009E070895AAE0BDE00E947B0B9FCEE0E020
:1050D200EA93A0E00E946908A3E1BEE0BECEFA9383
:1050E200EA93DE0118960895F0E00E94C72CDF01D2
:1050F200CB010895E983FA836B837C830895ED8164
:10510200FE816F8178850895A981BA818B819C8106
:105112000895E985FA85A181AA93EA85FB85F2962D
:10512200FA93EA93EC81FD816E817F810E94712D59
:10513200A1E00C942D11A2A1B3A184A195A108957F
:10514200E885F9856A857B8508950E94712DA1E025
:105152000E94C910E0300895FA93EA93A0E0B0E00B
:1051620080E090E00C94E5139E96E0E0F0E060E0D1
:1051720070E00E94532D0895F296FA93EA93E0E0CC
:10518200EA93A0E0B2E00C946C250E946C2DE981B8
:10519200FA81F29608950E94482DD0010E94532D63
:1051A200E981FA810895A289B389848995890E9447
:1051B200762DA1E00895A885B9858A859B850895F5
:1051C200E1E0F0E060E070E008950E94482DEC8399
:1051D200FD836E837F830895EC85FD85FA93EA93C0
:1051E200D901E0E0F2E00E94FA2CAE81BF8188850D
:1051F2009985662777270E946E2C0E94E513E0307E
:105202000895AC85BD85D296F901F170AE0FBF1F2E
:105212000895EC85FD85FA93EA93AA85BB858C8572
:105222009D850895E0E0F1E060E070E00E940D2DC0
:105232000895AE81BF81888599850E946E2C0E9457
:10524200E513E03008950E94F42CF170AC85BD8521
:10525200D296AE0FBF1F08950E94442D662777276E
:105262000895E0E8F0E060E070E00E940D2D0895FE
:10527200EFEFFFEF6FEF7FEF0895AD85BE858F856E
:1052820098890895E989FA89FA93EA93D801E0E0C6
:10529200F2E00E94FA2CAF81B88589859A8566274B
:1052A20077270E946E2C0E94E5134E2F40300895FE
:1052B200A989BA89D296F801F170EA0FFB1F9F0102
:1052C200ED85E1700895A985BA858B859C85089541
:1052D200E989FA89FA93EA93AF85B88989899A8923
:1052E2000895AF81B88589859A850E946E2C0E94A7
:1052F200E5134E2F403008950E94F42CF170A989D5
:10530200BA89D296EA0FFB1F0895AD81BE818F81C3
:1053120098850895A985BA855E960E94482DF5DF85
:105322000E94972D0895A130E0E0BE07E0E08E07CD
:10533200E0E09E070895AF3FEFEFBE07EFEF8E0765
:10534200EFEF9E070895EF81F88569857A850895C4
:10535200A0E0B0E080E090E00895A685B78580895E
:105362009189E9CF0E94672D0895E889F9896A89B0
:105372007B890895AC81BD818E819F8108950E94B1
:105382005D2D0895EC83FD836E837F830895EC8900
:10539200FD89FA93EA9308950E94B614EC87FD877B
:1053A2006E877F870895AC85BD858E859F8508951C
:1053B200EC85FD856E857F850895EC81FD816E818A
:1053C2007F810895E887F9876A877B870895F5DFEB
:1053D200F2DE0E94922D0895E0E0F0E060E070E0DD
:1053E2000895EA85FB856C857D850E94712D08955F
:1053F2000E947B2D0E94732C0895A885B98514966E
:10540200ED93FC93A885B98508950E94482DEA83FF
:10541200FB836C837D830895AA81BB818C819D81EE
:105422000895A885B9850E94442D08957E96DF01CE
:105432000E94482DF1DF0E94972D0895EA81FB8199
:105442006C817D810E94882D0895EA81FB816C81A7
:105452007D81A885B9851A960E94532DE2CF6627D1
:1054620077270E94692C0895A885B9851E960E9407
:10547200532D0895EF70F070EE0F0E94A62CEA0FE4
:10548200FB1FA885B9855296ED93FC93E0E0089541
:105492000E94482D0E94882D0895FA93EA93EA8586
:1054A200FB85A285B385848595850895EB83FC836E
:1054B2006D837E830895AB81BC818D819E81089529
:1054C200F5DFEB81FC816D817E810895FA93EA9389
:1054D2001CDF0C94F516BA93AA930E949E2DEC81C0
:1054E200FD81FA93EA93A0E0B0E00E942D170E2FFF
:1054F20000300895AC81BD810E94442DFA93EA9355
:10550200EE81FF81A685B785808991890E94E51386
:105512000E2F003008953A932A93EE81FF81A489D9
:10552200B589BA93AA93ABE0B0E008950E94442DE6
:10553200EE83FF830895E885F985AE81BF810895E2
:10554200E885F9853196E887F9873197AE81BF8181
:10555200AE0FBF1F1C910895E52F5F5FF0E0E30FD0
:10556200F41F10830895EA0FFB1FAB85BC85ED93F2
:10557200FC931132089530DF0E94532D0895AE81BD
:10558200BF8116960E94532D0895EE81FF81FA93F2
:10559200EA930895E0E0F0E0ED93FC930895A12FE3
:1055A200B22F549659CEA12FB22F5A960E94442D53
:1055B2000895662777270E947D2C0895F296E2507F
:1055C200FE4FDF010E94442DE535AAEAFA0708954D
:1055D2000E94482DEF7FFF7F6F7F7070E634A1E459
:1055E200FA07A4E56A07A0E07A070895A7EDBDE0EF
:1055F200F0E0EE0FFF1FAE0FBF1F0895ED81FE8199
:10560200FA93EA930895E98BFA8B6B8B7C8B08955E
:10561200E989FA896B897C890895AD81BE81A05C94
:10562200BF4F0E94442D0895AD89BE898F89988D00
:1056320016CFED81FE81A085B185FD010E94AF2CC0
:105642000895ED81FE8177DDE3DF0E94692C0895E4
:10565200ED91FD913196FE93EE930895A0E0B0E0B6
:10566200A083B183E12FF22F0895A98DBA8D0E94F4
:10567200442D0895FA93EA93EB8DFC8D0895A2814F
:10568200B3810E94721C0E2F00300895E98DFA8DAD
:10569200A681B781808591850895EF83F887698710
:1056A2007A8751CEA289B389848995890895A98D73
:1056B200BA8D1496EC91E068EC930895EB87FC8721
:1056C2006D877E870895EB85FC856D857E850895BF
:1056D200E98DFA8DE581F0E00895AB85BC858D8575
:1056E2009E850895E0E0F2E00E94FA2C3E2F4F2FB3
:1056F200032E042A0895E98DFA8DA689B789808D33
:10570200918DE1CF0E94782CE32FF42F6627772723
:105712000E94972D08950E94782CE0E0F2E060E06C
:1057220070E00E94D42C0895FA93EA93A0E0B2E0CC
:105732000C945A251596EC91E30FEC93E32FF42F7A
:10574200EE0FFF1FFE2FE0E01E2F2F2F0895E181A5
:10575200EA93EA8DFB8DB096FA93EA930895A689AF
:10576200B789808D918D0E94762DA1E00E942D1126
:10577200E03008951496EC91EF7BEC930895169621
:105782000E94442DF1700895A0E0B2E0AE1BBF0B61
:105792001A2F2B2F0895FA93EA93A12FB22F0C946C
:1057A2005A25E12FF22FAD81BE81EA0FFB1FED8357
:1057B200FE83089536960F01DF010E94482DDF0116
:1057C200CB01E12FF22F4BCEED91FD91E10FF21FB4
:1057D200FE93EE930895AD89BE890E94442D0895EB
:1057E200FA93EA93EF89F88D0895AD89BE891A96E6
:1057F2000E94482D0895ED89FE89A681B781808592
:1058020091850895AD89BE891496EC91E068EC9378
:105812000895E181EA93EE89FF89B096FA93EA93BB
:105822000895ED89FE89E581F0E00895ED89FE890C
:10583200A689B789808D918D86CDAF81B8850E946A
:10584200442D08953A93AA89BB89EC89FD8909956B
:105852000895ED89FE893497ED8BFE8B0895AA8910
:10586200BB89EC89FD89099508950E94652C0E94E7
:10587200442D0895FA93EA931A930A930895A22F56
:105882000E949E25E0300895AC85BD85EE85FF859A
:1058920009950895AA85BB85AC91A0300895EE853F
:1058A200FF853497EE87FF87AE85BF8514960D91ED
:1058B2001C910895109639F080ED97E00197F1F769
:1058C200A8951197C9F708950024AF0DB01D08954A
:1058D200EA0FFB1F681F791F0895AE0FBF1F861FB7
:1058E200971F0895EA1BFB0B680B790B0895AE1BFB
:1058F200BF0B860B970B0895EA2BFB2B682B792B9A
:105902000895F195E195F0400895F09560957095B0
:10591200E195FF4F6F4F7F4F0895EE230E2EFD014D
:10592200BC0131F0EE0FFF1F661F771F0A94D1F7FB
:105932000895EE230E2EFD01BC0131F07695679598
:10594200F795E7950A94D1F70895EE0FFF1FEE0F32
:10595200FF1FEE0FFF1FEE0FFF1F0895F695E7954D
:10596200F695E795F695E795F695E7950895EE0F86
:10597200FF1F661F771F0895E62FF72F60E070E084
:1059820008956E2F7F2FE0E0F0E008956F2F660FED
:10599200660B762F0895FA9FF02DEB9FF00DEA9F8C
:1059A200E02DF10D08957A9F702D6B9F700DF89F79
:1059B200700DE99F700D6A9F602D710DFB9F600D48
:1059C200711DE89F600D711D8827FA9FF02D610DF2
:1059D200781FEB9FF00D611D781FEA9FE02DF10DFE
:1059E200681F781F08956E2F6A9FF0016B9FF00D5C
:1059F20008950024112490E1AA0FBB1F001C111C62
:105A02000E1A1F0A18F40E0E1F1E01C0A1609A95ED
:105A120099F7FD01D00108953F934F935F930024BE
:105A220011244427552730E2AA0FBB1F881F991F54
:105A3200001C111C441F551F0E1A1F0A460B570B40
:105A420028F40E0E1F1E461F571F01C0A1603A9573
:105A520059F7FD01BC01D001CA015F914F913F91FD
:105A62000895E894B7FF04C0A095B0951196689484
:105A7200F7FD47DFBEDFFD010EF443DF0895CCDF03
:105A8200FD01BC010895ED91FC9111970895ED91EE
:105A9200FD916D917C9113970895ED91FD916D911A
:105AA2007D910895ED93FD936D937C9308957E937C
:105AB2006E93FE93EE930895E881F9816A817B816A
:105AC2000895A881B9818A819B810895E883F98329
:105AD2006A837B830895A083B1838283938308952D
