:100000000C94EB060C9400000C9400000C9400007F
:100010000C9400000C9400000C9400000C94000060
:100020000C9400000C9400000C9400000C94000050
:100030000C9400000C9479080C9400000C940000BF
:100040000C9400000C945C080C9400000C940000CC
:100050000C9400000C9400000C9400000C94000020
:100060000C9400000C9400000C9400000C94000010
:100070000C9400000C9400000C9400000C94000000
:100080000C9400000C9400000C9400000C940000F0
:100090000C9400000C940000637C777BF26B6FC5BE
:1000A0003001672BFED7AB76CA82C97DFA5947F07B
:1000B000ADD4A2AF9CA472C0B7FD9326363FF7CC57
:1000C00034A5E5F171D8311504C723C31896059AF4
:1000D000071280E2EB27B27509832C1A1B6E5AA017
:1000E000523BD6B329E32F8453D100ED20FCB15B02
:1000F0006ACBBE394A4C58CFD0EFAAFB434D33856B
:1001000045F9027F503C9FA851A3408F929D38F53E
:10011000BCB6DA2110FFF3D2CD0C13EC5F97441775
:10012000C4A77E3D645D197360814FDC222A9088EC
:1001300046EEB814DE5E0BDBE0323A0A4906245C78
:10014000C2D3AC629195E479E7C8376D8DD54EA9DD
:100150006C56F4EA657AAE08BA78252E1CA6B4C6A9
:10016000E8DD741F4BBD8B8A703EB5664803F60E02
:10017000613557B986C11D9EE1F8981169D98E94F1
:100180009B1E87E9CE5528DF8CA1890DBFE642680A
:1001900041992D0FB054BB1652096AD53036A53897
:1001A000BF40A39E81F3D7FB7CE339829B2FFF875F
:1001B000348E4344C4DEE9CB547B9432A6C2233D43
:1001C000EE4C950B42FAC34E082EA16628D924B2F4
:1001D000765BA2496D8BD12572F8F6648668981615
:1001E000D4A45CCC5D65B6926C704850FDEDB9DA74
:1001F0005E154657A78D9D8490D8AB008CBCD30A62
:10020000F7E45805B8B34506D02C1E8FCA3F0F023D
:10021000C1AFBD0301138A6B3A9111414F67DCEA0C
:1002200097F2CFCEF0B4E67396AC7422E7AD358585
:10023000E2F937E81C75DF6E47F11A711D29C5898F
:100240006FB7620EAA18BE1BFC563E4BC6D2792071
:100250009ADBC0FE78CD5AF41FDDA8338807C7317A
:10026000B11210592780EC5F60517FA919B54A0D72
:100270002DE57A9F93C99CEFA0E03B4DAE2AF5B0E7
:10028000C8EBBB3C83539961172B047EBA77D62603
:10029000E169146355210C7D8D0102040810204092
:1002A000801B3600000306050C0F0A09181B1E1DD3
:1002B00014171211303336353C3F3A39282B2E2D86
:1002C00024272221606366656C6F6A69787B7E7D76
:1002D00074777271505356555C5F5A59484B4E4D66
:1002E00044474241C0C3C6C5CCCFCAC9D8DBDEDD56
:1002F000D4D7D2D1F0F3F6F5FCFFFAF9E8EBEEED46
:10030000E4E7E2E1A0A3A6A5ACAFAAA9B8BBBEBD35
:10031000B4B7B2B1909396959C9F9A99888B8E8D25
:10032000848782819B989D9E9794919283808586F5
:100330008F8C898AABA8ADAEA7A4A1A2B3B0B5B685
:10034000BFBCB9BAFBF8FDFEF7F4F1F2E3E0E5E675
:10035000EFECE9EACBC8CDCEC7C4C1C2D3D0D5D665
:10036000DFDCD9DA5B585D5E575451524340454655
:100370004F4C494A6B686D6E676461627370757645
:100380007F7C797A3B383D3E373431322320252635
:100390002F2C292A0B080D0E070401021310151625
:1003A0001F1C191A00020406080A0C0E101214165B
:1003B000181A1C1E20222426282A2C2E30323436CD
:1003C000383A3C3E40424446484A4C4E50525456BD
:1003D000585A5C5E60626466686A6C6E70727476AD
:1003E000787A7C7E80828486888A8C8E909294969D
:1003F000989A9C9EA0A2A4A6A8AAACAEB0B2B4B68D
:10040000B8BABCBEC0C2C4C6C8CACCCED0D2D4D67C
:10041000D8DADCDEE0E2E4E6E8EAECEEF0F2F4F66C
:10042000F8FAFCFE1B191F1D131117150B090F0DF0
:10043000030107053B393F3D333137352B292F2D3C
:10044000232127255B595F5D535157554B494F4D2C
:10045000434147457B797F7D737177756B696F6D1C
:10046000636167659B999F9D939197958B898F8D0C
:1004700083818785BBB9BFBDB3B1B7B5ABA9AFADFC
:10048000A3A1A7A5DBD9DFDDD3D1D7D5CBC9CFCDEC
:10049000C3C1C7C5FBF9FFFDF3F1F7F5EBE9EFEDDC
:1004A000E3E1E7E50009121B242D363F48415A538A
:1004B0006C657E779099828BB4BDA6AFD8D1CAC344
:1004C000FCF5EEE73B3229201F160D04737A6168B4
:1004D000575E454CABA2B9B08F869D94E3EAF1F824
:1004E000C7CED5DC767F646D525B40493E372C2504
:1004F0001A130801E6EFF4FDC2CBD0D9AEA7BCB504
:100500008A8398914D445F5669607B72050C171E73
:100510002128333ADDD4CFC6F9F0EBE2959C878EE3
:10052000B1B8A3AAECE5FEF7C8C1DAD3A4ADB6BF53
:100530008089929B7C756E6758514A43343D262FC3
:100540001019020BD7DEC5CCF3FAE1E89F968D8433
:10055000BBB2A9A0474E555C636A71780F061D14A3
:100560002B2239309A938881BEB7ACA5D2DBC0C9A3
:10057000F6FFE4ED0A0318112E273C35424B505983
:10058000666F747DA1A8B3BA858C979EE9E0FBF2F3
:10059000CDC4DFD63138232A151C070E79706B6263
:1005A0005D544F46000B161D2C273A3158534E45CB
:1005B000747F6269B0BBA6AD9C978A81E8E3FEF5C3
:1005C000C4CFD2D97B706D66575C414A2328353E33
:1005D0000F041912CBC0DDD6E7ECF1FA9398858EA3
:1005E000BFB4A9A2F6FDE0EBDAD1CCC7AEA5B8B393
:1005F0008289949F464D505B6A617C771E15080383
:100600003239242F8D869B90A1AAB7BCD5DEC3C8F2
:10061000F9F2EFE43D362B20111A070C656E737862
:1006200049425F54F7FCE1EADBD0CDC6AFA4B9B2D2
:100630008388959E474C515A6B607D761F14090242
:100640003338252E8C879A91A0ABB6BDD4DFC2C9B2
:10065000F8F3EEE53C372A21101B060D646F727922
:1006600048435E55010A171C2D263B3059524F4412
:10067000757E6368B1BAA7AC9D968B80E9E2FFF402
:10068000C5CED3D87A716C67565D404B2229343F72
:100690000E051813CAC1DCD7E6EDF0FB9299848FE2
:1006A000BEB5A8A3000D1A1734392E236865727FD2
:1006B0005C51464BD0DDCAC7E4E9FEF3B8B5A2AF42
:1006C0008C81969BBBB6A1AC8F829598D3DEC9C4B2
:1006D000E7EAFDF06B66717C5F524548030E191422
:1006E000373A2D206D60777A5954434E05081F1212
:1006F000313C2B26BDB0A7AA8984939ED5D8CFC202
:10070000E1ECFBF6D6DBCCC1E2EFF8F5BEB3A4A971
:100710008A87909D060B1C11323F28256E637479E1
:100720005A57404DDAD7C0CDEEE3F4F9B2BFA8A5D1
:10073000868B9C910A07101D3E332429626F7875C1
:10074000565B4C41616C7B7655584F420904131E31
:100750003D30272AB1BCABA685889F92D9D4C3CEA1
:10076000EDE0F7FAB7BAADA0838E9994DFD2C5C891
:10077000EBE6F1FC676A7D70535E49440F02151881
:100780003B36212C0C01161B3835222F64697E73F1
:10079000505D4A47DCD1C6CBE8E5F2FFB4B9AEA361
:1007A000808D9A97000E1C123836242A707E6C6257
:1007B0004846545AE0EEFCF2D8D6C4CA909E8C82C9
:1007C000A8A6B4BADBD5C7C9E3EDFFF1ABA5B7B9AD
:1007D000939D8F813B352729030D1F114B45575999
:1007E000737D6F61ADA3B1BF959B8987DDD3C1CF09
:1007F000E5EBF9F74D43515F757B69673D33212F79
:10080000050B191776786A644E40525C06081A1474
:100810003E30222C96988A84AEA0B2BCE6E8FAF468
:10082000DED0C2CC414F5D537977656B313F2D23CC
:100830000907151BA1AFBDB39997858BD1DFCDC338
:10084000E9E7F5FB9A948688A2ACBEB0EAE4F6F834
:10085000D2DCCEC07A746668424C5E500A04161828
:10086000323C2E20ECE2F0FED4DAC8C69C92808E98
:10087000A4AAB8B60C02101E343A28267C72606E08
:10088000444A585637392B250F01131D47495B55EC
:100890007F71636DD7D9CBC5EFE1F3FDA7A9BBB5D8
:1008A0009F91838D20222A2B2C5B3D5D7C7F000055
:1008B0000004000200018000400020001000080039
:1008C000040002000000008000400020001000082A
:1008D000004000200010000800040002030303028F
:1008E000020C00080001000628312920412068611F
:1008F0007264206572726F72206F636375726564D3
:1009000020696E20746865206C6F77206C65766551
:100910006C206469736B20492F4F206C617965727C
:100920000028322920417373657274696F6E2066E6
:1009300061696C65640028332920546865207068FB
:1009400079736963616C20647269766520646F6590
:10095000736E277420776F726B2000283429204330
:100960006F756C64206E6F742066696E64207468A5
:10097000652066696C650028352920436F756C64B5
:10098000206E6F742066696E6420746865207061E3
:1009900074680028362920546865207061746820C6
:1009A0006E616D6520666F726D6174206973206978
:1009B0006E76616C69640028372920416363657332
:1009C0002064656E6965642064756520746F2070AD
:1009D000726F6869626974656420616363657373CB
:1009E000206F72206469726563746F727920667516
:1009F0006C6C20002838292041636365732064658E
:100A00006E6965642064756520746F2070726F680C
:100A1000696269746564206163636573732000288B
:100A20003929205468652066696C652F6469726590
:100A300063746F7279206F626A65637420697320D2
:100A4000696E76616C696420002831302920546811
:100A50006520706879736963616C2064726976657A
:100A60002069732077726974652070726F74656392
:100A700074656420002831312920546865206C6F2A
:100A8000676963616C206472697665206E756D625A
:100A9000657220697320696E76616C696420002834
:100AA0003132292054686520766F6C756D65206839
:100AB0006173206E6F20776F726B206172656120A9
:100AC0000028313329205468657265206973206ECF
:100AD0006F2076616C69642046415420766F6C7596
:100AE0006D6520002831342920665F6D6B667328A0
:100AF000292061626F727465642064756520746F6B
:100B0000206120706172616D65746572206572721A
:100B10006F7220002831352920436F756C64206E78
:100B20006F74206163636573732074686520766FEA
:100B30006C756D652077697468696E2074686520CE
:100B4000646566696E656420706572696F64200013
:100B50004D454E55204349465241444F204145534F
:100B60002020203129434946524152202032294435
:100B700045534349465241520A0D000A0D44612033
:100B8000656C206E6F6D6272652064656C206172A9
:100B9000636869766F206465206C61206C6C617697
:100BA000653A20002573004572726F7220656E20D1
:100BB000656C206172636869766F206465206C6182
:100BC000206C6C6176650A0D00446120656C206EB6
:100BD0006F6D6272652064656C206172636869760E
:100BE0006F2061206369667261723A20004172630E
:100BF0006869766F20656E636F6E747261646F0AE8
:100C00000D0043696672616E646F20004E756D2041
:100C1000426C6F717565733A0020256C752F256CD9
:100C200075004C4953544F212020202020202020A3
:100C30002020004172636869766F20637269667272
:100C400061646F20656E20256C75206D736567206B
:100C500028256C7520626C6F71756573290A0D0A01
:100C60000D004572726F7220616C2067656E65724F
:100C70006172206172636869766F206465207361B8
:100C80006C6964612025690A004172636869766F46
:100C9000206E6F20656E636F6E747261646F0A0DF3
:100CA000004572726F7220656E20656C2061726300
:100CB0006869766F206465206C61206C6C61766574
:100CC0002025690A0D00446120656C206E6F6D62FD
:100CD00072652064656C206172636869766F20615B
:100CE000206465736369667261723A200044612012
:100CF000656C206E6F6D6272652064656C20617238
:100D0000636869766F2064652073616C6964613A19
:100D1000200044657363696672616E646F2E2E2EC7
:100D20000020256C75202F20256C750041726368AA
:100D300069766F20646573637269667261646F209F
:100D4000656E20256C75206D7365672028256C7590
:100D500020626C6F71756573290A0D0A0D0045726A
:100D6000726F7220616C2067656E657261722061BE
:100D700072636869766F2064652073616C69646171
:100D8000202569004472697665204E4F20446574C1
:100D900065637461646F00000100EBFE904D534485
:100DA0004F53352E30004E4F204E414D45202020D0
:100DB000204641543332202020004E4F204E414DDA
:100DC00045202020204641542020202020000100E2
:100DD000C20D980D0000F894EE27EFBBF1E0F5BFCF
:100DE000E5BF8DE0A2E0BB27ED938A95E9F780E0AF
:100DF00090E2A0E0B1E0ED930197E9F7EEECFDE0C1
:100E000085919591009761F0A591B5910590159008
:100E1000BF01F00105900D920197E1F7FB01F0CFC2
:100E20008BBFE0E0EEBBEFEFEDBFE0E2EEBFC8EB63
:100E3000DCE00C94670B2C978CE0A0E0B0E0ECEDCC
:100E4000F8E00E94812C0A93849A859A809A819A6C
:100E5000829A839AA2E3B0E00E94322B00E00C3029
:100E600058F40E943D250E944125AE0FBF1FAC9152
:100E70000E9446250F5FF3CFECE0E093BC0CA091FD
:100E8000BC0C20D008812D9608958C9A8C980895DA
:100E9000AA93E881E87011F08B9A01C08B98E881E1
:100EA000E47011F08A9A01C08A98E881E27011F02A
:100EB000899A01C08998E881E17011F0889A01C08F
:100EC000889887C0AA930A938D980E943D250E9416
:100ED0004A250E945125D9DF08819BC2AA930A9313
:100EE0008D9A0E943D250E944A250E945125CDDF02
:100EF00008818FC2BA93AA930A9300E0E02F0F5F94
:100F0000A981BA81F0E0EA0FFB1FA491E7DFE02F8F
:100F1000A981BA81F0E0EA0FFB1FE491E03071F79C
:100F2000DEC2BA93AA930A9300E0E02F0F5F0E94FB
:100F30005825AC91D3DFA981BA81EE27A00FBE1F3F
:100F4000EC91E03091F7CBC2A1E0BCDF0895AA9309
:100F5000E881F0E0309719F4A981A05814C0E1307D
:100F6000A0E0FA0719F4A981A0540DC0E230A0E076
:100F7000FA0719F4A981AC5606C0E330A0E0FA07DD
:100F800019F4A981AC529EDF44C2AA93E881F0E033
:100F9000EC55FD4F1DC0AA93E881F0E0EC55FC4FE5
:100FA00017C0AA93E881F0E0EC55FB4F11C0AA935B
:100FB000E881F0E0EC55FA4F0BC0AA93E881F0E02D
:100FC000EC55F94F05C0AA93E881F0E0EC55F84FD5
:100FD000E49121960895BA93AA93E881F981E130CA
:100FE000A0E0FA0719F4E8EEF8E061C0E230A0E012
:100FF000FA0719F4E1E2F9E05AC0E330A0E0FA0799
:1010000019F4E6E3F9E053C0E430A0E0FA0719F47C
:10101000EBE5F9E04CC0E530A0E0FA0719F4E7E7AA
:10102000F9E045C0E630A0E0FA0719F4E3E9F9E099
:101030003EC0E730A0E0FA0719F4E7EBF9E037C06B
:10104000E830A0E0FA0719F4E4EFF9E030C0E93045
:10105000A0E0FA0719F4EFE1FAE029C0EA30A0E0D5
:10106000FA0719F4E9E4FAE022C0EB30A0E0FA074D
:1010700019F4E5E7FAE01BC0EC30A0E0FA0719F438
:10108000EFE9FAE014C0ED30A0E0FA0719F4E1EC62
:10109000FAE00DC0EE30A0E0FA0719F4E4EEFAE051
:1010A00006C0EF30A0E0FA0731F4E4E1FBE0FA9388
:1010B000EA930E945E25ADC10A921A92FA926A934F
:1010C0007A938A939A93AA93BA93EA93FA93EFB78F
:1010D000EA930E94BE12E991EFBFF991E991B991AB
:1010E000A9919991899179916991F99019900990B3
:1010F00018956A937A93AA93BA93EA93FA93EFB7FF
:10110000EA93ACEEBCE00E946325E991EFBFF99150
:10111000E991B991A991799169911895AA93E0E023
:10112000E093F50CA091F50CA03190F40E946C2591
:10113000EA0FFB1FFF93EF930E946C250E9472251C
:101140000E947D25AF91BF91EC930E948625EACF46
:10115000D3C0BA93AA930E94742C00E0003108F027
:101160003FC00E948C25FF93EF93A12F14DFEF93D4
:10117000A22F0BDFAF91EA27E327E427AF91BF91BE
:101180000E94B125FF93EF93A22F05DFEF93A32FCA
:10119000FCDEAF91EA27E127E427AF91BF910E94DF
:1011A000BA25FF93EF93A32FF6DEEF93A42FEDDE86
:1011B000AF91EA27E127E227AF91BF910E94C325B3
:1011C000FF93EF93A42FE7DEEF93A12FDEDEAF9125
:1011D000EA27E227E327AF91BF91EC930C5FBECFE4
:1011E000F4C0BA93AA930A9300E0E0E0E093F50C10
:1011F000A091F50CA03190F4E091F50C0E945825D7
:101200000C91E091F50C0E945825E02FF0E0E85693
:10121000FF4FE491EC930E948625EACF60C10E94C3
:10122000CC2511960C91E981FA81E581A981BA81D9
:101230001196EC93E981FA81E185A981BA8115962D
:10124000EC93E981FA81E585A981BA811996EC933D
:10125000E981FA810587A981BA8112960C91E2850C
:10126000A981BA811296EC93E981FA810287A9815A
:10127000BA8116960C91E685A981BA811696EC93EF
:10128000E981FA810687A981BA811F960C91E385CD
:10129000A981BA811F96EC93E981FA81E781A9813E
:1012A000BA811B96EC93E981FA81E381A981BA8125
:1012B0001796EC93E981FA81038311C1AA93E0E0C8
:1012C000E093F50CA091F50CA031B0F40E946C25D0
:1012D000EA0FFB1FFF93EF930E946C250E9472257B
:1012E000A0EAB0E00E94D2250E947D25AF91BF9177
:1012F000EC930E948625E6CF25960895BA93AA938B
:101300000E94742C00E0003108F05FC00E948C2520
:10131000FF93EF93A12F57DEEF93A22F48DEAF91FB
:10132000EA27EF93A32F49DEAF91EA27EF93A42F8B
:1013300038DEAF91EA27AF91BF910E94B125FF93AC
:10134000EF93A12F2EDEEF93A22F3DDEAF91EA2780
:10135000EF93A32F2CDEAF91EA27EF93A42F2DDE7E
:10136000AF91EA27AF91BF910E94BA25FF93EF9307
:10137000A12F23DEEF93A22F14DEAF91EA27EF9384
:10138000A32F21DEAF91EA27EF93A42F10DEAF91B8
:10139000EA27AF91BF910E94C325FF93EF93A12F3E
:1013A00006DEEF93A22F09DEAF91EA27EF93A32F7A
:1013B000F8DDAF91EA27EF93A42F05DEAF91EA277E
:1013C000AF91BF91EC930C5F9ECF0E947B2C279630
:1013D0000895BA93AA93E0E0E093F50CA091F50C80
:1013E000A031B8F4E091F50CA881B9810E94D7250D
:1013F000E091F50CA881B981F0E0AE0FBF1FEC9130
:10140000F0E0E856FE4FE491D001EC930E9486256F
:10141000E5CF229608950E94CC251D960C91E0E020
:10142000E093F50CA091F50CA330A8F40E94DC2504
:10143000CF01ADE0B0E00E94D2250E94E225E9E0B4
:10144000F0E0E81BF90B0E94E825EC91DB01EC933E
:101450000E948625E7CFE981FA810183E0E0E093ED
:10146000F50CA091F50CA230E8F40E94DC25329630
:101470000E94E8250C910E94DC2532960E94E2250C
:10148000F0013A960E94E825EC91DB01EC930E9472
:10149000DC253A96A981BA81EA0FFB1F00830E94DE
:1014A0008625DFCFA981BA8113960C91E0E0E09305
:1014B000F50CA091F50CA33078F40E94DC2533964E
:1014C0000E94E225F00137960E94E825EC91DB01AD
:1014D000EC930E948625EDCFE981FA810787088188
:1014E00023960895BA93AA9324970E94752C00E13D
:1014F00010E0003B08F05CC020E02430A8F40E941B
:10150000ED25BF01A22FBB27EE27A00FBE1FE4E0F1
:10151000F0E00E94D225A885B985AE0FBF1FEC91DF
:10152000DB01EC932F5FE9CFA02FBB27E0E1F0E0D8
:101530000E94092C309719F53C81ED81EC83EE81F6
:10154000ED83EF81EE83FE013796308320E0243077
:1015500068F40E94ED250F010E94F425F0E0E856A2
:10156000FF4FE491D001EC932F5FF1CFE12FF0E03A
:10157000E856FD4FE491AC81EA27EC831F5F20E041
:101580002430A8F4E02FA885B985F0E0EA0FFB1F0E
:10159000BF01E02FF0E07097AE0FBF1F0C900E94CC
:1015A000F425E025DB01EC930F5F2F5FE9CFA1CF9E
:1015B0000E947C2C2A960895BA93AA9360970A9366
:1015C00000E0003178F40E944125EA0FFB1F0F0173
:1015D000AB89BC89EE27A00FBE1FEC91D001EC9324
:1015E0000F5FEFCF0E94FC25A0E098DD01E00A30FC
:1015F00058F40E940526DE011196ABDD0E94FC2501
:10160000A02F8CDD0F5FF3CF0E9405260E94FC25E2
:10161000AAE084DDE0E0E093C10D00E0003158F481
:10162000E02FAB89BC890E94D7250E9441250E94EA
:101630000D260F5FF3CF48C0BA93AA9360970A9321
:10164000E0E0E093F50CA091F50CA03190F4E0916E
:10165000F50CF0E0DE011196EA0FFB1F0F01E0919F
:10166000F50CAB89BC89F0E00E940D260E9486250E
:10167000EACF0E94FC25A0E021DE01E00A3048F418
:101680000E941326A02F1ADEDE01119637DE0F5FAF
:10169000F5CF0E941326AAE011DEE0E0E093F50CFE
:1016A000A091F50CA03180F4E091F50CAB89BC89D8
:1016B0000E94D725E091F50CF0E0DE0111960E9422
:1016C0000D260E948625ECCF088165960895EF9738
:1016D000E397D650E0E8E0936100E1E0E093610039
:1016E000E0E3E093BD0CEAE3E093BE0CE0E0E093BE
:1016F000C800E8E1E093C900E6E0E093CA00E0E05A
:10170000E093CD00E3E3E093CC00E2E0E093B000AF
:10171000E3E0E093B100E9EFE093B300E2E0E093AF
:101720007000EAE0E0938100E7E2E0938900EFE0F7
:10173000E0938800E2E0E0936F000E941B0778943A
:10174000A0E00E94720FA8ECB0E00E941C26DE010F
:10175000AF5BBB4F0E94191C2E2FE03009F05FC217
:10176000E091C800E07829F00E942E21E093F40C6B
:10177000F7CFE0E5FBE00E9421260E942E21E093B6
:10178000F40CA091F40CA13309F011C100E010E0B9
:10179000EBE7FBE00E9421260E942426A091F50C95
:1017A000A13128F40E9438260E948625F7CF0E9496
:1017B00046260E944C2671F40E9446260E94562618
:1017C000ADB7BEB711971F930F930E94811D0F9164
:1017D0001F9104C0E7EAFBE00E9421260E945F26D9
:1017E000E0E1F0E0E017F10799F60E946326A8EF28
:1017F000BCE078DEE1E0E093B00DE9ECFBE00E94B4
:1018000021260E942426A091F50CA13128F40E94E3
:1018100038260E948625F7CF0E9446260E944C2635
:1018200009F0BAC0EDEEFBE00E942126E0E0E09373
:10183000F50C0E948625F0E0E354F34FA081AE3210
:10184000C1F7E091F50CF0E0E254F34FA1E4A0837E
:10185000E091F50CF0E0E154F34FA5E4A083E091B2
:10186000F50CF0E0E054F34FA3E5A0830E94682656
:101870000E946C2609F086C00E9476260E947F2670
:101880000E94A4070E948826A2E0BCE00E948D2648
:10189000AEECBCE00E949107A0EDB7E00E94322BB5
:1018A000FE01E05EFD4FE285EF70E093F50C0E94D3
:1018B0009426E091F50CE03021F0A8EABDE00E940A
:1018C0006325E091F50CE093B10D0E9468260E941B
:1018D000AC26E1E0F0E0FA93EA93ADB7BEB711971A
:1018E0001F930F930E94EC1E0F911F910E94B1262F
:1018F0000E94BD260E94C626B1F10E9446260E9483
:10190000AC260E94D126ADB7BEB711971F930F9397
:101910000E94811D0F911F910E94AC26A8EFBCE090
:101920004BDE0E9468260E94AC260E94D126ADB7ED
:10193000BEB711971F930F930E94EC1E0F911F913A
:10194000ACEABDE00E9463250E94D62659F40E94AD
:101950008826ACE0BCE00E948D260E94DF26E0E0F5
:10196000E093F70CC5CF0E94FC26A4EFB1E00E94E3
:101970001C260E9402270E940927E3E3FCE00E9444
:10198000182707C0E2E6FCE00E9421260E945F269D
:10199000E1E0E093B00D04C0E9E8FCE00E942126FC
:1019A000A091B00DA13009F428CF0E946326A09128
:1019B000F40CA23309F032C100E010E0EBE7FBE0E9
:1019C0000E9421260E942426A091F50CA13128F422
:1019D0000E9438260E948625F7CF0E9446260E9444
:1019E0004C2671F40E9446260E945626ADB7BEB71B
:1019F00011971F930F930E94811D0F911F9104C097
:101A0000E1EAFCE00E942D27E0E1F0E0E017F107B9
:101A1000A9F60E946326E1E0E093B00DE6ECFCE05D
:101A20000E9421260E942426A091F50CA13128F4C1
:101A30000E9438260E948625F7CF0E9446260E94E3
:101A40004C2609F0E0C0EDEEFBE00E942126EDEE11
:101A5000FCE00E9421260E942426A091F50CA131D1
:101A600028F40E9438260E948625F7CF0E94682617
:101A70000E946C2609F0BDC00E9476260E947F2637
:101A8000E2E1FDE00E9421260E9446260E94AC264B
:101A9000E1E0F0E0FA93EA93ADB7BEB711971F9378
:101AA0000F930E94811D0F911F91E091B10DE09362
:101AB000F50CE03019F4E0E1E093F50C0E94942677
:101AC0000E94B126A091A80DB091A90D8091AA0DF8
:101AD0009091AB0D0E943A2708F461C00E94BD2688
:101AE000E150F040604070400E94C62609F44FC0AB
:101AF0000E9446260E94AC260E94D126ADB7BEB7F2
:101B000011971F930F930E94811D0F911F910E94A7
:101B1000AC260E9442270E94AC260E94D126ADB777
:101B2000BEB711971F930F930E94EC1E0F911F9148
:101B3000ACEABDE00E9463250E94D62639F50E94DA
:101B40008826ACE0BCE00E948D26EDEDFCE0FA9327
:101B5000EA93E1E2FDE0FA93EA93E091AC0DF091B3
:101B6000AD0D6091AE0D7091AF0D0E94482C0E949A
:101B7000BD260E94482C88E00E9401232C96ADEDE2
:101B8000BCE00E949107E0E0E093F70CA7CF0E9431
:101B9000FC26A4EFB1E00E941C260E9402270E94AE
:101BA00046260E94AC260E94D126ADB7BEB711973B
:101BB0001F930F930E94811D0F911F910E94AC26CD
:101BC0000E9442270E94AC26E091F60CF0E0FA93C6
:101BD000EA93ADB7BEB711971F930F930E94EC1E07
:101BE0000F911F910E940927ECE2FDE00E94182747
:101BF00007C0EEE5FDE00E942D270E945F26E1E090
:101C0000E093B00D04C0E9E8FCE00E942126A09119
:101C1000B00DA13009F402CF0E946326A1CDA4E843
:101C2000BDE00E947A07FFCFFFCFFFCFAA930E94AB
:101C3000752C30E01C81AD81BE812D91AD83BE83BA
:101C400008E0330FE32FE227E07811F0E9E03E27C8
:101C5000220F0150B1F7115071F7E32FEE0FE16041
:101C60000E947C2C1EC50A93E2E3E093C40DEFEFC3
:101C7000EEBDEDB5E7FFFDCFEFEFEEBDEDB5E7FF54
:101C8000FDCF0EB50F3F21F0E091C40DE03009F417
:101C900001C0F2CFE02F86C4289AEFEFEEBDEDB57C
:101CA000E7FFFDCF0895BA93AA930E94762CE4E152
:101CB000E093C30DEFEFEEBDEDB5E7FFFDCF0EB541
:101CC0000F3F21F4E091C30DE03009F401C0F2CFE1
:101CD0000E3F21F0E0E00E947D2CE3C41D812E81A7
:101CE000EFEFEEBDEDB5E7FFFDCF2F931F931F5F25
:101CF0002F4FEEB5AF91BF91EC93EFEFEEBDEDB589
:101D0000E7FFFDCF2F931F931F5F2F4FEEB5AF91CE
:101D1000BF91EC93EFEFEEBDEDB5E7FFFDCF2F9355
:101D20001F931F5F2F4FEEB5AF91BF91EC93EFEF75
:101D3000EEBDEDB5E7FFFDCF2F931F931F5F2F4F34
:101D4000EEB5AF91BF91EC93EB81FC813497EB83BF
:101D5000FC8331F6EFEFEEBDEDB5E7FFFDCFEFEF22
:101D6000EEBDEDB5E7FFFDCFE1E00E947D2C99C40B
:101D7000AA930E94752C77DFEF3F21F0E0E00E94EC
:101D80007C2C8FC4EC81EEBDEDB5E7FFFDCFAC81BF
:101D9000AD3F69F110E02D813E81D9012F5F3F4FAA
:101DA000EC91EEBDEDB5E7FFFDCFD9012F5F3F4FC1
:101DB000EC91EEBDEDB5E7FFFDCF115071F7EFEF00
:101DC000EEBDEDB5E7FFFDCFEFEFEEBDEDB5E7FF03
:101DD000FDCFEFEFEEBDEDB5E7FFFDCF0EB5E02F88
:101DE000EF71E53021F0E0E00E947C2C5AC4E1E084
:101DF0000E947C2C56C40E944D2C1A930A93EE81AB
:101E0000E07881F0EE81EF77EE83E7E7EA93A0E0F8
:101E1000B0E080E090E0EFDF1E2F123018F0198163
:101E200008813FC4AE81AC3449F036DF28981BDF0F
:101E3000EF3F21F0EFEF1981088133C4EE81EEBD51
:101E4000EDB5E7FFFDCFED81EEBDEDB5E7FFFDCFD1
:101E5000EC81EEBDEDB5E7FFFDCFEB81EEBDEDB55D
:101E6000E7FFFDCFEA81EEBDEDB5E7FFFDCF01E075
:101E7000AE81A03411F405E904C0AE81A83409F4A0
:101E800007E80EBDEDB5E7FFFDCFAE81AC3429F418
:101E9000EFEFEEBDEDB5E7FFFDCF0FEFEFEFEEBDDE
:101EA000EDB5E7FFFDCF1EB517FF02C0015009F4E5
:101EB00001C0F4CFE12F19810881F3C3BA93AA932B
:101EC0000A9304E0EFEFEEBDEDB5E7FFFDCFA9818A
:101ED000BA811196A983BA831197EEB5EC9301509C
:101EE00089F7C6C4AA9324970E94762CEF81E0302C
:101EF00021F0E1E00E947D2CAAC1EAE0E093C30D4D
:101F0000E091C30DE030E1F7E091C20DE27029F0FD
:101F1000E091C20D0E947D2C9AC1209A289AE5B1C9
:101F2000E97FE5B92B9A2398E4B1E760E4B9E2E5EB
:101F3000ECBDE0E0EDBD25E00AE0EFEFEEBDEDB574
:101F4000E7FFFDCF0150C9F7E0E4EA93A0E0B0E07D
:101F500080E090E050DF1E2F2150113011F0203032
:101F600009F401C0E9CF20E0113009F068C0E4E6CF
:101F7000E093C30DE8E4EA93AAEAB1E080E090E0E0
:101F80003ADFE13091F5DE01139698DFAD81A130A3
:101F900019F4AE81AA3A09F027C0E091C30DE030F0
:101FA00049F0E9EEEA93A0E0B0E080E090E423DFBE
:101FB000E03009F401C0F1CFE091C30DE03049F009
:101FC000EAE7EA93A0E0B0E080E090E014DFE030E0
:101FD00009F00AC0DE01139671DFEB81E07411F0A5
:101FE000ECE001C0E4E02E2F2AC0E9EEEA93A0E085
:101FF000B0E080E090E0FFDEE23018F422E019EE7D
:1020000002C021E011E4E091C30DE03041F01A93E9
:10201000A0E0B0E080E090E0EEDEE03009F401C046
:10202000F2CFE091C30DE03049F0E0E5EA93A0E0A3
:10203000B2E080E090E0DFDEE03009F020E02093C5
:10204000C50D2ADE203051F0E091C20DEE7FE09305
:10205000C20DE0E5ECBDE1E0EDBD11C0289803DE66
:102060001BDEE0E0ECBDE4B1E07FE4B9E5B1E07F88
:10207000E5B92098E091C20DE160E093C20DE091D6
:10208000C20D0E947D2CE3C0AA93E881E03011F0DC
:10209000E1E002C0E091C20D21960895AA93EF817C
:1020A000E03019F4E881E03011F4E4E0D0C0E091D0
:1020B000C20DE17011F0E3E0CAC0E091C50DE87017
:1020C00071F4E981FA816B817C81A0E0B2E080E06B
:1020D00090E00E94AB2BE983FA836B837C83A88119
:1020E000A130A9F4E1E5EA93AA81BB818C819D81AD
:1020F00082DEE03059F4ED81FE81FA93EA93A0E0AC
:10210000B2E0D1DDE03011F0E0E0E88323C0E2E5A9
:10211000EA93AA81BB818C819D816DDEE030D1F490
:10212000ED81FE81FA93EA93A0E0B2E0BCDDE030FD
:1021300051F0ED81FE81E050FE4FED83FE83E8819A
:10214000E150E88369F7ECE4EA93A0E0B0E080E0D6
:1021500090E051DEA1DDE881E03011F0E1E001C066
:10216000E0E075C0AA93EF81E03019F4E881E03037
:1021700011F4E4E06CC0E091C20DE17011F0E3E015
:1021800066C0E091C20DE47011F0E2E060C0E09141
:10219000C50DE87071F4E981FA816B817C81A0E062
:1021A000B2E080E090E00E94AB2BE983FA836B837E
:1021B0007C83A881A130A1F4E8E5EA93AA81BB81E0
:1021C0008C819D8118DEE03051F4ED81FE81FA931F
:1021D000EA93AEEFCDDDE03011F0E0E0E88330C00F
:1021E000E091C50DE67039F0E7EDEA93A981BB27D0
:1021F0008827992700DEE9E5EA93AA81BB818C81D3
:102200009D81F9DDE030E1F4ED81FE81FA93EA93FE
:10221000ACEFAEDDE03051F0ED81FE81E050FE4FDD
:10222000ED83FE83E881E150E88371F7E0E0F0E0C0
:10223000FA93EA93ADEF9CDDE03011F4E1E0E8833E
:102240002BDDE881E03011F0E1E001C0E0E028960C
:102250000895BA93AA9360970E94752CEF89E03095
:1022600011F0E4E087C1E091C20DE17011F0E3E00C
:1022700081C101E0EE89E03031F42898F4DCEF3FD1
:1022800009F400E075C1E13009F05FC0E9E4EA93C8
:10229000A0E0B0E080E090E0AEDDE03049F4FE0187
:1022A0003496FA93EA93A0E1B0E0FDDCE03009F463
:1022B0004BC0EC81E295EF70E695E695E13079F45C
:1022C000E0E0FC85AD85B0E0EA0FFB1F31961E2FE4
:1022D0002F2FA12FB22F88279927EAE02EC0E9855A
:1022E000EF70AE2FEE85E078EE1FE0E0EE1FAE0F50
:1022F000ED85E370EE0FEA0FEE5F3E2FEC85E29581
:10230000EF70E695E695AE2FEB85F0E00E94812B0D
:10231000B0E0AE0FBF1FEA85E370F0E00E94812BB2
:10232000FE2FE0E0EA0FFB1F31961E2F2F2FA12F6B
:10233000B22F88279927E32FE9500E94652BAC899B
:10234000BD890E942A2C00E013C1E23041F4AC891F
:10235000BD89E0E0F2E0ED93FC9300E009C1E330D9
:1023600009F0ABC0E091C50DE47081F1EDECEA93AA
:10237000A0E0B0E080E090E03EDDE03031F5EFEF4E
:10238000EEBDEDB5E7FFFDCFFE013496FA93EA937B
:10239000A0E1B0E088DCE030C1F030E3303039F06B
:1023A000EFEFEEBDEDB5E7FFFDCF3150F7CFEE8596
:1023B000E295EF70A0E1B0E080E090E00E94652B34
:1023C000AC89BD890E942A2C00E076C0E9E4EA933A
:1023D000A0E0B0E080E090E00EDDE03009F06CC0FD
:1023E000FE013496FA93EA93A0E1B0E05CDCE030C1
:1023F00009F462C0E091C50DE27051F1EE85EF7312
:10240000FF27662777270E948F2B7F936F93FF9379
:10241000EF93EF85E078FF2766277727DF01CB0171
:10242000E7E00E94712BAF91BF918F919F910E9425
:10243000402BEF5FFF4F6F4F7F4FDF01CB01E989EB
:10244000E295EF70E695E695E1500E94652B2FC06E
:10245000EE85EC77E695E695FF2766277727EF5F11
:10246000FF4F6F4F7F4F7F936F93FF93EF93EF85F6
:10247000E370FF2766277727DF01CB01E3E00E94A7
:10248000652BDF01CB01EF85E07EE295EF70E695ED
:10249000FF27662777270E94402BEF5FFF4F6F4F84
:1024A0007F4FAF91BF918F919F910E94AB2BAC89D1
:1024B000BD890E942A2C00E05BC0EA3039F4E0912B
:1024C000C50DAC89BD89EC9300E052C0EB3011F42E
:1024D00039E403C0EC3001F53AE43A93A0E0B0E00F
:1024E00080E090E088DCE030B1F4EC89FD89FA937B
:1024F000EA93A0E1B0E0D7DBE03069F0EC89FD8938
:10250000FA93EA93AFE092DBAE2FEC89FD89E78581
:10251000EA1709F400E02CC0ED3071F4EAE7EA9321
:10252000A0E0B0E080E090E066DCE03021F4AC892F
:10253000BD89C4DC00E01CC0EE30C9F4EDECEA93C8
:10254000A0E0B0E080E090E056DCE03079F4EFEF1E
:10255000EEBDEDB5E7FFFDCFEC89FD89FA93EA9377
:10256000A0E4B0E0A0DBE03009F000E001C004E04E
:1025700093DBE02F0E947C2C689608950A930091CB
:10258000C30D003019F001500093C30D0091C40D2C
:10259000003019F001500093C40DE091C20DEB7FA3
:1025A000E093C20D099108952797A091B80CB091BE
:1025B000B90C109731F0A091BA0CB091BB0C1097E8
:1025C00029F4E0E0F0E061E27AE36BC0FE013696C8
:1025D000FA93EA93FE0137960E944727E091B80CE0
:1025E000F091B90C0995FE013396FA93EA93FE0136
:1025F0003496FA93EA93DE011496E091BA0CF091C6
:10260000BB0C0995E881F981EC5BF74066277727D9
:10261000DF01CB01E9E10E94652B7F936F93FF936C
:10262000EF93EA810E944C27E5E10E94652BAF9170
:10263000BF918F919F910E94542BDF01CB01EB81C1
:10264000F0E00E949E2B0E94992B0E94542B7F93B6
:102650006F93FF93EF93EE810E944C27EBE00E9473
:10266000652BAF91BF918F919F910E94542B7F93C7
:102670006F93FF93EF93ED810E944C27E5E00E945A
:10268000652BAF91BF918F919F910E94542BDF01D9
:10269000CB01EC81F0E0F595E7950E949E2B0E941E
:1026A000542B27960895AA930A93EA81FB81E4911B
:1026B0000E2FE03019F0E981E01709F406C0EA8135
:1026C000FB813196EA83FB83F0CFE02FF0E00881B5
:1026D000249608950E944D2C24970A93A985BA85C3
:1026E0009E960E941F2C0E9452270E9457270E94EC
:1026F0005C270E94692C09F452C0E985FA85E481BF
:10270000E03089F10E946127E03011F0E1E028C259
:10271000A985BA851496E0E0EC93E985FA850E94D4
:1027200073270D01A985BA855A960E941F2CD001E6
:102730000E94402B0E945C270E946E2CA0F4E98529
:10274000FA850381023078F0A985BA855A960E94ED
:102750001F2C0E945C270E94402B0E9452270E943F
:1027600061270150EFCF0E9457270E945F2CB9F0DC
:10277000E985FA85A181AA93EA85FB85F296FA9309
:10278000EA930E9478270E947D2711F0E1E0E8C1DA
:102790000E945727A985BA859E960E942A2CE0E0C0
:1027A000DFC1BA93AA930A93E981FA810E94842730
:1027B0000E2F003009F05BC0A981BA81AC91A33023
:1027C00029F4E981FA81E581E03009F444C0A98166
:1027D000BA810E948C27E981FA810E949427E981BD
:1027E000FA81F296E250FE4FA5E5BAEAA083B183E2
:1027F000E981FA81F296A2E5B2E581E691E40E94D0
:102800009D27EC51FE4FA2E7B2E781E491E60E94DA
:102810009D27E851FE4F0F01A981BA811E960E94A3
:10282000A327F296E451FE4F0F01A981BA811A96AF
:102830000E94A327A181AA93EA81FB81F296FA93D1
:10284000EA93EC81FD810E94AB278CDCA981BA81DF
:102850001596E0E0EC93E981FA81A181AA93E0E08A
:10286000EA93A0E0B0E0F5DCE03009F001E0E02F11
:102870000881239608950E944D2C24970E94752C60
:102880000E94B3270E943A2750F0AC85BD855E9622
:102890000E941F2C0E94B3270E946E2C18F00E94E9
:1028A000B82760C0AC85BD8592960E94BD27AC85D7
:1028B000BD85EC91F0E0E130A0E0FA0739F528851C
:1028C0003985F901F695E7952E0F3F1F0E94C42721
:1028D00009F046C00E94D9270C9111272F5F3F4F66
:1028E0000E94C427E9F50E94D927EC91FE2FE0E071
:1028F0000E2B1F2BE885E17021F0F8010E94862B3A
:1029000002C0F801FF70662777272CC0E230A0E0F4
:10291000FA0779F40E94E1270E94EA270E94F12732
:10292000F9F4A885B985E2E00E94FB270E940428FB
:1029300019C0E330A0E0FA0799F40E94E1270E9451
:1029400009280E94F12761F4A885B985E4E00E9476
:10295000FB270E941F2CEF7FFF7F6F7F7F7002C0DD
:102960000E9410280E947C2C2E9608950E944D2CC7
:1029700024970E94742C0E9415280E943A2750F038
:10298000A989BA895E960E941F2C0E9415280E9470
:102990006E2C10F042E085C0A989BA8992960E94F7
:1029A0001F2CED83FE836F837887A989BA89EC9108
:1029B000F0E0E130A0E0FA0709F043C00D851E8584
:1029C000F801F695E7950E0F1F1F0E941A2809F0CF
:1029D00063C00E94302851F0D901EC91EF70AE2F06
:1029E000E985F0E00E947D2BEA2B01C0E985D90141
:1029F000EC930F5F1F4FA989BA891496E1E0EC931D
:102A00000E941A2809F048C00E94302849F00E940C
:102A10003B28E4E00E94712BFF27662777270EC032
:102A2000D901EC91E07F1E2E0E943B28E8E00E9435
:102A3000712BFF2766277727EF70E129D901EC93E7
:102A40002BC0E230A0E0FA0789F40E9440280E94DF
:102A5000EA270E94492801F5AD85BE85E2E00E9483
:102A60005428A985BA85A083B18316C0E330A0E0BD
:102A7000FA0789F40E9440280E9409280E944928E8
:102A800059F4AD85BE85E4E00E9454280E943B289D
:102A90000E94432C01C042E0A989BA891496E1E062
:102AA000EC93E42F0E947B2C639608950E944D2C9A
:102AB00024970A930E945D280E943A2718F00E94EA
:102AC000622810F002E04BC000E00E94622808F08B
:102AD00046C0E985FA85FA93EA93AF81B88589857E
:102AE0009A85C9DE0E945227E981FA816B817C8137
:102AF0000E945F2CA1F10E945C270E946B2811F4B8
:102B000002E02DC00E945C270E94732811F401E0AE
:102B100026C0E985FA85FA93EA930E947B280E94F1
:102B2000482C0E94802822DF0E2F0030C1F4E98556
:102B3000FA850E94852851F0A985BA851E960E94C3
:102B40006325A985BA851596E1E0EC93E981FA81C0
:102B50006B817C81ED83FE836F837887B6CFE02F16
:102B600008812B9608950E944D2C6097AC89BD89F1
:102B70005E960E941F2C0E948A280E948D280E9427
:102B80005F2CB1F4AC89BD891A960E94BD270E94C2
:102B900092280E94632C39F00E9497280E94922864
:102BA0000E946E2C20F00E94B8270E949A281EC016
:102BB0000E949F28AA89BB898C899D890E94A4288C
:102BC0000E94AB280E943A2718F40E94B82790C0B0
:102BD0000E9497280E94AB280E946E2C18F40E9435
:102BE000B02886C00E948D280E949A280E94B5288D
:102BF0000E94BA280E947827EF5FFF4F6F4F7F4FE8
:102C00000E94BA280E9497280E94B3270E946E2C27
:102C100060F0E2E0F0E060E070E00E94BA280E941C
:102C2000BF2818F40E94C42863C00E949F28AA8568
:102C3000BB858C859D850E94A4280E94B0280E9497
:102C40005F2CA1F00E94AB280E94732829F00E94FB
:102C5000AB280E946B2819F40E94B02849C00E943A
:102C6000BF2819F40E94C42843C0C4CF0E949F28E3
:102C70000E94C928AFEFBFEF8FEF9FE077DEE03013
:102C800019F00E94102834C00E948D280E945F2CE9
:102C900091F00E949F28EA89FB896C897D890E94B6
:102CA000482CAE85BF858889998960DEE03019F0AF
:102CB0000E9410281DC00E947827AC89BD891A96F1
:102CC0000E942A2CEC89FD890E94852879F0AC8924
:102CD000BD891E960E94252C3197604070400E944D
:102CE0002F2CAC89BD891596E1E0EC930E947827E2
:102CF000669608950E944D2C0E949728E250F0405D
:102D0000604070400E948A28EC81FD81A68DB78DBD
:102D100080A191A1E2E0F0E060E070E00E94D028A4
:102D20000E94392C0E946E2C18F00E94C42867C3A0
:102D3000EC81FD81E281F0E00E94392C0E949E2B03
:102D40000E94AB2B7F936F93FF93EF93AC81BD8178
:102D50009A960E941F2CAF91BF918F919F910E94D4
:102D6000402B4DC3BA93AA9324971A930A93EE81EA
:102D7000FF810E94D52816960E94DD280E94E42833
:102D80000E946B2829F00E94E9280E94EE2820F07A
:102D9000E2E0198108815AC10E94F62829F40E94B4
:102DA000E928A081A33009F006C00E94E928B69660
:102DB000DF010E94DD280E94F628B1F40E94FD2860
:102DC0003896DF010E941B2CAE81BF81AE17BF0772
:102DD00020F0E2E01981088139C10E94E928B69605
:102DE000DF010E941F2C3BC00E94E928E281A0E184
:102DF000EA9F8001AE81BF81A017B10748F10E9410
:102E0000E928FA93EA930E94922835DDEA83FB834E
:102E10006C837D830E94E4280E94732821F4E1E002
:102E20001981088113C10E94E4280E943A2728F0E2
:102E30000E94E9280E94EE2820F0E2E01981088132
:102E400005C1EE81FF81E01BF10BEE83FF83D2CF42
:102E50000E94FD28FA93EA930E9492284BDFDF013B
:102E6000CB01EE81FF810E94862B0E9407290E94E0
:102E70000C290E94E928F296DF01EE81FF810E9471
:102E8000122919810881E2C0AA9324970E94762C06
:102E9000A885B98514960E941B2C31968F01002EAF
:102EA000012A31F0A885B9851E960E94202911F4C7
:102EB000E4E0CAC0F801EF7009F0BCC0A885B9858C
:102EC0001E960E946325A885B9851A960E9420291E
:102ED00061F40E94E9283896DF010E941B2C0E172E
:102EE0001F0710F0E4E0B0C0A5C0F8010E94862BD7
:102EF0000F010E94E928E281F0E03197E021F12101
:102F0000309709F097C00E94E9280E942529B3DC78
:102F10000E942E290E9433290E943A2710F4E2E0F1
:102F200093C00E9433290E94732811F4E1E08CC001
:102F30000E94E9287E96DF010E941F2C0E943329FF
:102F40000E946E2C08F467C0EF81E03011F4E4E0D9
:102F50007BC00E94E9280E94252905DE0E943829AD
:102F60000E945F2C11F4E7E06FC00E9433290E9499
:102F70006B2811F4E2E068C00E9433290E94732894
:102F800011F4E1E061C00E94E9280E948427E0304A
:102F900011F0E1E059C00E94E9280E9494270E94A4
:102FA000E928DF01BE96FF93EF93FD010E943E29C1
:102FB000AF91BF910E942A2C20E00E94E928E28173
:102FC0002E17A8F40E94E9283496A1E0A0830E945D
:102FD000E9280E948427E03011F0E1E035C00E942A
:102FE000E928BE96DF010E9463252F5FE6CF0E948D
:102FF000E928BE96FF93EF93DF010E941F2CDF01AB
:10300000CB01E22FF0E00E949E2B0E94D028AF91CE
:10301000BF910E942A2CEB81FC816D817E81A88565
:10302000B9851A960E942A2C0E94E9280E943E29FE
:103030000E940C29F8010E94D5280E941B2CF296B0
:10304000DF01F8010E9412290E947D2C2A96089522
:103050000E94432921F0E02F0E947C2CD0C10E94C5
:10306000522901F5AC81BD8152962D913C91D90137
:103070001C91103011F404E015C0F901E385E870EB
:1030800031F40E9463290E94C624E03009F001C097
:1030900009C0EC81FD81FA93EA93A0E0F5DE0E2FE2
:1030A0000030E9F2E02F0E947C2CA9C10E94432944
:1030B000B1F40E94522999F4EC81FD81A289B3896F
:1030C0001C91153E11F0103009F409C0EC81FD810E
:1030D000FA93EA93A1E0D8DE0E2F003051F30030CE
:1030E00029F50E94522911F5AC81BD8152962D918E
:1030F0003C913A932A93E0E0EA93A0E2B0E00E9488
:10310000F1240E9463290E94DF24AC81BD81549682
:103110000E941B2CE385E871D9011C96EC93AC81CD
:10312000BD810E941B2C3496A1E0A083E02F0E9459
:103130007C2C65C1BA93AA9325970E94732CAD8508
:10314000BE8554963D914C914A933A93E0E2EA93BE
:10315000ABE0B0E00E94F124E0E0E887E9870E2FC1
:103160005E2FE8E0EA87AB85BC850E946E290E944D
:103170007329AE0FBF1FAC91AE3211F50E947829B2
:103180001E3221F4A885B98513970CF003C00E9464
:103190008429F4CF1F3221F01C3511F0113208F4CC
:1031A00002C0E6E071C00E9473290E948B2910F4CE
:1031B000E4E201C0E0E2A32FB42F1B96EC9363C0BE
:1031C0000E947829113220F01F3211F01C3509F4C9
:1031D00032C01E3219F0EA855E1768F0AA85A83061
:1031E00011F41E3211F0E6E04FC058E0EBE0EA8740
:1031F000000F000F1FC0103818F00360E6E044C055
:10320000E4EAF8E0FA93EA93A12F4DDA309711F04F
:10321000E6E03AC0113410F01B3508F002C002603D
:1032200007C0113610F01B3708F002C001601052C1
:103230000E948429C5CF0E9473290E948B2910F413
:10324000E4E001C0E0E01E2F503011F4E6E01CC0C5
:10325000A32FB42FAC91A53E21F4A32FB42FE5E00A
:10326000EC93AA85A83011F4000F000FE02FE37053
:10327000E13009F41061E02FEC70E43009F41860DB
:10328000E32FF42F1387E0E00E947A2C2F96089505
:10329000BA93AA930E94752CE1E0E03029F0AC814A
:1032A000BD81AC91A03209F006C0EC81FD81319660
:1032B000EC83FD83F1CFAC81BD81AC91AF3229F0BD
:1032C000AC81BD81AC91AC3559F4EC81FD81319676
:1032D000EC83FD83AE81BF8116960E9493290AC0BC
:1032E000AE81BF810E941B2C7696DF010E941F2CAD
:1032F0000E949729AC81BD81AC91BB27909760F467
:103300000E949D29A0E0B0E02DDD0E2FAE81BF818F
:1033100052960E94A2293EC00E949D29DE01169667
:1033200009DF0E2F0030B1F5AE81BF8191DE0E2F87
:10333000AE81BF8154960E941B2CE385E4703E2F22
:10334000003039F0043011F4303009F001C005E0EC
:1033500021C03030F9F4AE81BF8152961D912C917D
:10336000E12FF22FE385E07111F405E013C00E9414
:10337000A7290E94992B7F936F93FF93EF930E944D
:10338000AB29AF91BF918F919F910E94B1290E946B
:103390009729C2CFE02F0E947C2C289608950E9486
:1033A0004D2CEC81FD81A181AA93ED81FE81F296E5
:1033B000FA93EA93EB81FC816D817E810E947D27E7
:1033C00011F0E3E01CC0EC81FD810E94B62911F0F0
:1033D000E2E015C0AC81BD81A859BF4F0E94C02951
:1033E00011F4E0E00CC0EC81FD81F296EE5AFF4F43
:1033F000DF010E94C02911F4E0E001C0E1E026965F
:103400000895AA9364970E94742CAC8DBD8D0E9480
:103410001B2CEF83F887AF81B885EC91E0533E2FEA
:103420003A3020F41196AC91AA3309F00AC0EF812A
:10343000F8853296EF83F887AC8DBD8DED93FC93C4
:1034400002C03091CA0D313010F0EBE0CCC1E32F57
:103450000E94CE290E941B2CED83FE83AA8DBB8D7A
:10346000ED93FC93309711F4ECE0BDC1AD81BE81CA
:10347000EC91E03089F0ED81FE81A1810E94441041
:103480004E2F40FD09C0E98DE03011F042FD01C032
:1034900002C0EAE0A8C1A6C1AD81BE81E0E0EC9324
:1034A000E32FAD81BE811196EC93ED81FE81A18168
:1034B0000E94720F4E2F40FF02C0E3E094C1E98DDD
:1034C000E03011F042FD01C002C0EAE08CC10E9470
:1034D000D6290E94C428EF8BF88F698F7A8FDF017D
:1034E000CB015DDF0E2F0130D9F4ED81FE81F29624
:1034F000E254FE4F1E2F2F2FE481E03089F0A12FE0
:10350000B22F18960E941F2CED8BFE8B6F8B788F3D
:103510000E94D629AF89B88D898D9A8D40DF0E2FF4
:10352000033011F4E1E05FC1003049F4AD81BE81A8
:10353000DD960E941B2CE030A2E0FA0711F0EDE0CE
:1035400052C1AD81BE81A85BBF4F0E9404280E947A
:10355000DB290E94E0290E945F2C41F4AD81BE81ED
:10356000AA5ABF4F0E941F2C0E94DB290E94E0290B
:10357000AD81BE815A960E942A2CED81FE81EE5BC0
:10358000FF4FE081AD81BE811396EC93ED81FE810A
:10359000E381F0E0A989BA898B899C890E949E2BDE
:1035A0000E94AB2B0E94DB290E94E5290E94EC2996
:1035B000AD81BE8192960E942A2CED81FE81E7ADFD
:1035C000AD81BE811296EC93AD81BE81AD5BBF4FE4
:1035D0000E941B2CAD81BE811896ED93FC93AD81AA
:1035E000BE81AB5BBF4F0E940428ED87FE876F87CB
:1035F000788B0E945F2C51F4AD81BE81AE5ABF4FD3
:103600000E941F2CED87FE876F87788B0E94E5292B
:103610000E941528662777270E94D028A989BA8991
:103620008B899C890E944A2B7F936F93FF93EF9322
:103630000E94F129AF91BF918F919F9166277727C3
:103640000E944F2BED81FE81E281F0E00E949E2BD3
:103650000E94E42BEE5FFF4F6F4F7F4FE987FA87A1
:103660006B877C87AD81BE815E960E942A2C01E02B
:103670000E943B28A73FEFE0BE07E0E08E07E0E0B6
:103680009E0708F002E00E943B28A73FEFEFBE072D
:10369000E0E08E07E0E09E0708F003E0033039F435
:1036A000AD81BE81A25ABF4F0E941F2C02C00E9452
:1036B000F929AD81BE8196960E942A2C0E94F92993
:1036C0007F936F93FF93EF930E94F129AF91BF9186
:1036D0008F919F910E940729AD81BE819A960E9489
:1036E0002A2CAD81BE811E960E9410280E942A2C91
:1036F000AD81BE811496E0E0EC93033009F05FC029
:10370000AD81BE811596EC93AD81BE81AE59BF4FA0
:103710000E941B2C0E94EC29AD81BE8152960E9412
:103720002A2CED81FE81A181AA93EE81FF81F29680
:10373000FA93EA93E885F9850E94AB270E944E1020
:10374000E03011F5ED81FE810E94B629E9F4AD81EA
:10375000BE81D2960E941F2CE235A2E5FA07A1E6AF
:103760006A07A1E47A0781F4ED81FE81F296EC51BB
:10377000FE4FDF010E941F2CE237A2E7FA07A1E407
:103780006A07A1E67A0709F01AC0ED81FE81F29678
:10379000E451FE4FDF010E941F2CAD81BE811A96BD
:1037A0000E942A2CED81FE81F296E851FE4FDF0146
:1037B0000E941F2CAD81BE811E960E942A2CAD81D5
:1037C000BE810C930E948C27AD81BE8156960E94CB
:1037D0009329A8ECBDE00E94002AAD81BE81169617
:1037E000ED93FC93E0E00E947B2C6E960895BA93D3
:1037F000AA93EA81FB81309771F0AA81BB81EC9199
:10380000E03049F0EA81FB81A681B781E881F98146
:10381000EA17FB0711F0E9E00AC0EA81FB81A18108
:103820000E944410E17011F0E3E001C0E0E0249652
:103830000895BA93AA931A930A93AC81A13010F019
:10384000EBE020C0EC810E94CE290D911C91002E4E
:10385000012A19F0D801E0E0EC93EA81FB8130976E
:1038600021F0AA81BB81E0E0EC93EC81A6ECBDE005
:10387000F0E0EE0FFF1FEA0FFB1FAA81BB81A083C0
:10388000B183E0E01981088125960895AA93A29753
:103890000E94762CA8A5B9A50E94A229EDA1EF71DE
:1038A000EDA3FE01B696FA93EA93FE017196FA93A0
:1038B000EA93E9A5EE71AE2FA4DD0E2F003009F0DA
:1038C0001CC1FE013396EBA3FCA3FE013F96FA93C5
:1038D000EA93A8A5B9A5DCDC0E2FEDA1EC7109F4E3
:1038E0009CC02897003089F0043021F4DE015796FF
:1038F000DDDB0E2F003019F0E02F2896FEC0EDA57D
:10390000E860EDA719A52AA56BC0EDA5E47019F034
:10391000E8E02896F2C019A52AA5012E022A29F06E
:10392000E12FF22FE385E17119F0E7E02896E5C079
:10393000EDA5E87009F454C00E94A7290E94992BB4
:103940007F936F93FF93EF930E94AB29AF91BF9149
:103950008F919F910E94B1290E948A28E12FF22F16
:1039600074960E94062A7A960E94062A7C960E94E5
:1039700080280E94432CAF89B88D1496E1E0EC9327
:10398000AF89B88D9E960E94BD270E9497280E94FD
:103990005F2CB9F0EF89F88DFA93EA930E94E4283E
:1039A00085D80E2F003011F02896A7C00E949728C6
:1039B000E150F04060407040AF89B88D1A960E9487
:1039C0002A2CEF89F88DFA93EA93AE81BF8188851E
:1039D00099850E946A130E2F003011F028968DC031
:1039E000EDA5E870C1F0E12FF22F3B96A0E0A08397
:1039F0000E94D4120E949A280E94B528A12FB22FAB
:103A00001E960E942A2CAF89B88D1496E1E0EC93A3
:103A1000EDA5E062EDA728961BC0003011F0E02F65
:103A20006CC019A12AA1012E022A29F0E12FF22F40
:103A3000E385E07111F0E4E060C0EDA1E27029F0EF
:103A4000E12FF22FE385E17009F402C0E7E055C0F1
:103A5000AF85B8899E960E941F2CA8A5B9A55A9635
:103A60000E942A2CE9A1FAA1A8A5B9A55E96ED931A
:103A7000FC93EDA1A8A5B9A51496EC930E94A729E3
:103A80000E94992B7F936F93FF93EF930E94AB2932
:103A9000AF91BF918F919F910E94B129A8A5B9A51F
:103AA0001E960E942A2CA12FB22F5C960E941F2CDA
:103AB000A8A5B9A51A960E942A2CA8A5B9A516965C
:103AC0000E949329A8A5B9A51596EFEFEC93A8A598
:103AD000B9A556960E949329EF85F889A8A5B9A59E
:103AE000ED93FC93AF85B88916960E941B2CA8A570
:103AF000B9A51296ED93FC93E0E00E947D2CAA9666
:103B00000895BA93AA932E970E94742CEF89F88D8A
:103B1000ED83FE83AB89BC890E94A2290E940D2AF5
:103B20000E94122A0E94172A11F0E02F51C1E98D3C
:103B3000FA8DA481A07811F0E2E04AC1E98DFA8DF6
:103B4000A481A17011F4E7E043C1E98DFA8DA2854B
:103B5000B385848595859F938F93BF93AF930E9480
:103B60001E2AEF91FF916F917F910E944A2B0E9434
:103B7000252AAD89BE89882799270E94692C20F4BF
:103B8000EF81F885ED8BFE8BED89FE89309709F486
:103B90001EC10E941E2AFD01BC01F170309709F080
:103BA000E8C0E98DFA8D05800E940D2AE2810E168B
:103BB000D8F10E941E2A0E94632C31F4A98DBA8D7F
:103BC0001E960E941F2C08C00E940D2A0E94122AD5
:103BD0000E942A2A0E943B14EF87F88B698B7A8B0C
:103BE000AF85B88989899A890E943A2720F40E9472
:103BF0002F2AE2E0EDC0AF85B88989899A890E94B1
:103C0000732821F40E942F2AE1E0E2C0EF85F889B1
:103C100069897A89A98DBA8D52960E942A2CA98D1C
:103C2000BA8D1596E0E0EC930E940D2A0E94122AAC
:103C30000E942A2A5FD80E94362A0E943B2A0E94AC
:103C40005F2C21F40E942F2AE2E0C2C00E94402A89
:103C50000E94452A0E949E2B0E94402B0E94362AD9
:103C6000AD89BE890E944A2A09F44CC00E94402AAC
:103C7000E30FF41F0F010E940D2AE281D001F0E052
:103C8000EA17FB0758F40E940D2AE281F0E0DF01F9
:103C90000E94402AAE1BBF0B3A2F4B2F0E940D2AC9
:103CA000E181EA930E949D29EE85FF8568897989E3
:103CB0000E94482CA32F0E944E10E03021F00E9459
:103CC0002F2AE1E085C0E98DFA8DA481A07429F046
:103CD0000E94532A0E945A2A08F00FC00E94532AB9
:103CE0000E94632AAD81BE8188279927EA0FFB1FB6
:103CF0000E94122AB0960E946C2AA98DBA8D0E9449
:103D0000722A51C0E98DFA8DA481A07489F00E94B5
:103D10000D2A0E947F2AEC8DFD8D0E94872A21F0BA
:103D20000E942F2AE1E054C0A98DBA8D0E94922AE8
:103D30000E94532A0E94692C79F00E940D2A0E9449
:103D40007F2AEE85FF85688979890E947D2721F089
:103D50000E942F2AE1E03CC00E943B2AA98DBA8D27
:103D600056960E942A2CA98DBA8D1596EC91EF5F7C
:103D7000EC93A98DBA8D0E94972A0E949C2AED8906
:103D8000FE89E117F20710F41D892E890E94D629B9
:103D9000AB8DBC8D0E94972AAB8DBC8D9096EA0F9F
:103DA000FB1F0E94A32A0E94A92AE98DFA8D0E9476
:103DB000B22AD0010E942A2CAB89BC890E94BC2A5D
:103DC000ED89FE89E11BF20BED8BFE8BDDCEE0E091
:103DD0000E947B2C6B960895BA93AA932A970E940F
:103DE000742CEB89FC89ED83FE83AF85B8890E9432
:103DF000A2290E94C32A0E94C82A0E94172A11F0F1
:103E0000E02F92C1ED89FE89A481A07811F0E2E053
:103E10008BC1ED89FE89A481A27011F4E7E084C111
:103E2000ED89FE89A285B38584859585E989FA891E
:103E30000E9407297F936F93FF93EF930E94CD2AEF
:103E4000AF91BF918F919F910E946E2C18F4E0E08A
:103E5000E98BEA8BE989FA89309709F44BC10E9412
:103E6000D32AFD01BC01F170309709F00DC1ED8935
:103E7000FE8905800E94C32AE2810E1608F450C014
:103E8000AD89BE8916960E942029E1F4AD89BE89CC
:103E90001E960E941F2C0E94362A0E943B2A0E94D6
:103EA0005F2C79F40E94C32AFA93EA930E94802837
:103EB0000E94B3150E94362AAD89BE891E960E94C3
:103EC0002A2C0AC00E94C32A0E94C82A0E942A2AB9
:103ED0000E94B3150E94362A0E943B2A0E945F2C42
:103EE00009F408C10E94452A0E946B2821F40E940F
:103EF000DA2AE2E019C10E94452A0E94732821F4BF
:103F00000E94DA2AE1E010C10E943B2AAD89BE89F5
:103F100052960E942A2CAD89BE891596E0E0EC935A
:103F2000ED89FE89A481A07489F00E94C32A0E94B1
:103F3000E12AE88DF98D0E94872A21F00E94DA2A71
:103F4000E1E0F2C0AD89BE890E94922A0E94C32A94
:103F50000E94C82A0E942A2A0E947A160E94252AB4
:103F60000E945F2C21F40E94DA2AE2E0DDC00E9468
:103F7000E92AAF81B88589859A850E949E2B0E9487
:103F8000402BEF83F88769877A87A989BA890E94CD
:103F90004A2A09F44EC00E94E92AE30FF41F0F01D8
:103FA0000E94C32AE281D001F0E0EA17FB0758F42F
:103FB0000E94C32AE281F0E0DF010E94E92AAE1BE1
:103FC000BF0B3A2F4B2F0E94C32AE181EA930E9434
:103FD0009D290E94C928A32F0E94B210E03021F031
:103FE0000E94DA2AE1E0A0C00E94EE2A0E945A2A2A
:103FF000D8F4ED89FE89B0960E94C82AA689B789AF
:10400000808D918DE985FA856B857C850E94632A78
:10401000AF81B88588279927EA0FFB1F0E946C2A79
:10402000AD89BE890E94922AAD89BE890E94722AFA
:104030004DC00E94EE2A0E94692CC9F00E94D32A2A
:104040000D010E94CD2AD0010E946E2C58F40E94CE
:10405000C32A0E94E12AEA85FB856C857D850E9442
:104060007D2709F404C00E94DA2AE1E05DC00E94C5
:104070007B28AD89BE8956960E942A2CAD89BE89BF
:104080001596EC91EF5FEC93AD89BE890E94972A5B
:104090000E949C2AE989FA89E117F20710F419892C
:1040A0002A89AD89BE890E94972AAD89BE899096DA
:1040B000EA0FFB1FFA93EA93EF81F8850E94A32A87
:1040C000AD89BE891496EC91E064EC930E94A92A14
:1040D000ED89FE890E94B22AD0010E942A2CAF8568
:1040E000B8890E94BC2AE989FA89E11BF20BE98BA5
:1040F000FA8BB0CE0E94D32A0D010E94CD2AD001A6
:104100000E94692C50F4AD89BE8916960E941F2C1E
:10411000AD89BE891A960E942A2CAD89BE89149653
:10412000EC91E062EC93E0E00E947B2C67960895AE
:10413000BA93AA9324970E94762C0E94F52AFA93A8
:10414000EA93E985FA850E94172A09F075C0EF8184
:10415000F885A481A07209F46FC0A481A074A1F0B5
:104160000E94F52AE181EA93E885F985B096FA93F1
:10417000EA93EA85FB850E94872A11F0E1E05DC0A1
:10418000AF81B8850E94922A0E94F52AFA93EA9399
:10419000E985FA85A28DB38D848D958D0E946A1371
:1041A0000E2F003009F048C0AF81B8855E961D9192
:1041B0002C91A12FB22F1B96EC91E062EC93AF8172
:1041C000B8851A960E941F2CA12FB22F5C960E94D0
:1041D0002A2CAF81B8851E960E941B2CA12FB22FCE
:1041E0005A96ED93FC93EF81F885A685B785808973
:1041F0009189FD01BC010E94942BA12FB22F5496EE
:10420000ED93FC930E94D4120E943829A12FB22F63
:1042100056960E942A2CAF81B8851496EC91EF7DBA
:10422000EC930E94F52A3496A1E0A0830E94F52A1F
:10423000DF010E94D1130E2FE02F0E947D2C2996C2
:1042400008950E94CC2574DF0E2F003021F4A9813F
:10425000BA810E94A229E02F088119C0E091C8000C
:10426000E078E1F3E091CE000895AA93E091C800D0
:10427000E072E1F3E881E093CE0021960895BA93CD
:10428000AA93AA81F2DFA881B9810E94002A23960D
:104290000895BA93AA931A930A93AA81BB8112969E
:1042A0000E941B2C309729F1AA81BB8114960E9491
:1042B0001B2C8F01309761F00230E0E01E0780F088
:1042C000F80131978F01AA81BB811496ED93FC937D
:1042D000AA81BB8112960E94002A3197AC81A083EB
:1042E000AA81BB810E941B2CFF2312F00E94002A8E
:1042F00006C0AA81BB81EFEFFFEFED93FC9319811C
:1043000008810C94FF24BA93AA932B970E94732CD4
:1043100000E0A989BA890E94A229EF89F88D319617
:10432000EF8BF88F3197E4913E2FE03009F461C1B3
:10433000E02FE03039F4353211F401E002C00E9480
:10434000FA2A56C1E130A9F4353219F40E94FA2A4A
:104350004EC102E050E010E03D3211F411E048C1DE
:104360003B3211F45BE244C1303211F450E240C1FF
:1043700002C0E23039F440E003E0303311F4106859
:1043800037C102C0E33091F4303310F03A3308F013
:1043900007C0AAE04A9F402DE32FE0534E0F28C1EB
:1043A0003C3619F4126005E023C103C0E53009F082
:1043B0001FC1E32FE33649F40E94012BED89FE89EA
:1043C000A481AA930E94072B12C1E33769F40E94CB
:1043D000012BAD89BE8914960E946E29AE81BF81E2
:1043E0000E9401250E2F0FC0E03791F40E94012B8F
:1043F000AD89BE8914960E946E29AE81BF810E944C
:104400000D250E2F18601F77E0E0E88B20E06AC0D2
:10441000E43611F0E93611F4146002C0E537A1F476
:10442000EAE0E88B11FF08C0E0E0FAEC6AE97BE320
:104430000E94BA280AE022C0E0E1F7E260E070E002
:104440000E94BA2805E01AC0E83511F4186003C0CC
:10445000E83709F0CCC0E0E1E88B11FF08C0E0E0EC
:10446000F0E060E070E10E94BA2808E007C0E0E0F8
:10447000F0E160E070E00E94BA2804E011FF08C09B
:104480000E94012BAD89BE8914960E941F2C13C077
:1044900012FF0AC00E94012BAD89BE8914960E94AA
:1044A0001B2C0E949E2B07C00E94012BAD89BE8948
:1044B00014960E940428EC87FD876E877F8712FF81
:1044C00011C0AF85AA234AF40E94B0280E945D2B38
:1044D000EC87FD876E877F875DE2503011F00F5FBC
:1044E00001C01B7F10FD11C0041778F417FF08C02E
:1044F00012FF04C01B7F352F015001C030E301C003
:1045000030E20E94FA2A4150EFCF202FE889E030B4
:10451000B9F42030A1F013FF06C0EE81FF81359180
:10452000EE83FF8305C0AE81BF813D91AE83BF8323
:104530000E94FA2A403009F041502150EACF4DC084
:104540000E9478270E94AB280E94E42B3E2F3A302D
:1045500030F013FF02C0395C01C0395A01C0305D30
:1045600014FD1BC0313328F40E94B3270E946B282E
:1045700009F409C0421710F010FF01C013C030E267
:1045800017FF0BC030E3106112FF07C01B7F5A9367
:104590000E94072B403009F041500E94FA2A403017
:1045A00009F0415021500E9478270E94AB280E94B8
:1045B000172CEC87FD876E877F87E8890E94B327D9
:1045C000FF27662777270E94E42B0E94BA280E94C3
:1045D00078270E945F2C09F0B3CF10FF08C040304D
:1045E00031F04150E0E2EA930E94072BF8CF00E05F
:1045F00094CEA989BA890E941B2C0E947A2C6996B4
:104600000895FF92F82E26970E94752CDE011C96C5
:104610000E940D2B309719F4EFEFFFEF21C0DE0160
:1046200016960E943C2B8D01DE011C960E943C2BAD
:104630000E946E29E0E0E887E987DE011A960E9471
:104640000D2B0E94122BE9E4F1E2FA93EA93DE01CA
:104650001A9659DE9F01AE81BF81E0E0EC93F9012B
:104660000E947C2C2A96FF900895FF92F82E2697A0
:104670001A930A93DE0114960E943C2B8D01E0E010
:10468000EC83ED83EE83EF83DE0118960E940D2B01
:104690000E94122BEFE3F1E20E94472734DE1981DA
:1046A00008812896FF9008950E94CC25E0E0EC93C5
:1046B000AB81BC81EC910E2FE03019F0E0E0EC937F
:1046C00002C0CCDD0E2FE02F08810C94FF24FF9256
:1046D000BA93AA9324970E94732CE0E0F0E0E88755
:1046E000F9875E2FE889F9893196E88BF98B319744
:1046F000E4912E2FE03009F425C10E94172BC1F060
:10470000EDB7FEB7FA93EA935F930E941C2B5F917B
:104710002E2FE03019F00E94172B09F407C00E94D9
:10472000222B1CF4EFEFFFEF0FC1EACF522F09C18C
:10473000253209F0EEC040E0E889F9892591E88B3F
:10474000F98B203310F02A3308F007C0AAE04A9F03
:10475000402DE22FE0534E0FEFCF203009F4F2C08E
:10476000EDB7FEB7FA93EA935F930E941C2B5F911B
:104770003E2FAE2F0E942325E03039F00E94222BDD
:104780001CF4EFEFFFEFE0C0EBCF303009F4D1C005
:10479000532F403009F44FEFE22FE33699F40E9493
:1047A000272BEDB7FEB7FA93EA935F930E941C2B79
:1047B0005F91D801EC930E94222B1CF4EFEFFFEFE6
:1047C000C3C0A1C0E33741F50E94272BE42F41501D
:1047D000E030F1F0EDB7FEB7FA93EA935F930E94F1
:1047E0001C2B5F912E2FE03019F00E94172B39F00F
:1047F0000E94222B1CF4EFEFFFEFA6C009C01F930D
:104800000F930F5F1F4FE22FAF91BF91EC93DECF5D
:10481000D801E0E0EC9377C06894F1F8E894F2F8FE
:10482000E22FE43611F0E93619F4E894F1F802C009
:10483000E53711F43AE008C0E83711F430E104C07C
:10484000E53209F466C07EC0E0E0EE83EF83689451
:10485000F0F8E42F4150E03009F446C0EDB7FEB760
:10486000FA93EA935F930E941C2B5F912E2FE13203
:1048700038F40E94222B1CF4EFEFFFEF65C017C045
:10488000F1FC08C06894F1F82D3211F4F2F8E1CF90
:104890002B32F9F2303131F4A22F0E942E25E03074
:1048A00031F009C0A22F0E941A25E03021F4F0FC5B
:1048B00049C0522F19C0213610F0275505C02134A8
:1048C00010F0275301C02053E32FAE81BF81F0E0E9
:1048D0000E94A32BDF01E22FF0E0EA0FFB1FEE8323
:1048E000FF83E894F0F8B5CF0E94272BF2FE06C0B4
:1048F000EE81FF810E94592BEE83FF83EE81FF81C1
:10490000D801ED93FC93E885F9853196E887F9871E
:1049100018C0EDB7FEB7FA93EA935F930E941C2B81
:104920005F91E21771F00E94222B1CF4EFEFFFEF72
:104930000BC0E885F985309719F4EFEFFFEF04C05D
:1049400001C0D0CEE885F9850E947A2C6296FF904E
:104950000895FF92F82E23971A930A93DE01119679
:104960000E943C2B8D01E0E0EB83EC83DE01159689
:104970000E940D2B0E94122BE4E5F3E20E944727D0
:10498000A6DE198108812596FF900895BA93AA930F
:104990006627772789919991E991F991A991B99120
:1049A000009629F001976D9171916717C9F3671B04
:1049B00010F4EFEF0895E0E009F0E3950895BA935D
:1049C000AA9399818881009641F0BD81AC81FB81D9
:1049D000EA8161916D930197E1F7FD81EC81269663
:1049E0000895BA93AA93B981A881109631F0FC81F9
:1049F000EB816A8161931197E9F7EB81FC81259640
:104A00000895BA93AA93A991B991EE27FF276D91C2
:104A1000662311F03196FBCF0895BA93AA93AA2783
:104A2000BB27E991F9910590002011F01196FBCF79
:104A3000FD010895AA93E1E0F991F03310F0FA3303
:104A400008F0EE270895AA93E1E0F991F03229F0F9
:104A5000F93010F0FE3008F0EE270895AA93E1E057
:104A6000F991F05340F0FA3038F0FF75F750FA3012
:104A700010F0F03108F0EE270895A2E0B0E00C94B9
:104A8000322BE02FF0E0DE01119608950E944807D6
:104A90000C944507E981E07F0E2F02950F70A02F3F
:104AA000F5CFE981EF700E2FA02F0E944807E5CFC8
:104AB000A981BA81F0E0AE0FBF1F089580E00E9487
:104AC0003523229608950E94252CEF5FFF4F6F4FEC
:104AD0007F4F0E942F2C0895E091F50CAB81BC8193
:104AE000F0E00895AE0FBF1F8C916091F50C772711
:104AF000E881A0E1EA9FF0010895E60FF71FA98180
:104B0000BA81AE0FBF1FEC91E8270895E091F50C34
:104B1000EF5FE093F50C0895AD81BE81EE27A00F05
:104B2000BE1F1C91E02FF0E03196AD81BE81AE0F2B
:104B3000BF1F2C91E02FF0E03296AD81BE81AE0F09
:104B4000BF1F3C91E02FF0E03396AD81BE81AE0FE8
:104B5000BF1F4C91E02FAD81BE81F0E0EA0FFB1F3B
:104B60000895EC93E02FF0E03196AD81BE81EA0F1D
:104B7000FB1F0895EC93E02FF0E03296AD81BE81EB
:104B8000EA0FFB1F0895EC93E02FF0E03396AD8120
:104B9000BE81EA0FFB1F0895BA93AA930A93A981D5
:104BA000BA8108950E94582CEA1BFB0B0895F0E08F
:104BB000EA0FFB1F0F010895A091F50CE4E0EA9FB6
:104BC000F0010895A981BA81EA0FFB1FBF01089582
:104BD000A981BA81AE0FBF1F0895E22FF0E0DE0178
:104BE0001496EA0FFB1F0895E22FF0E0DE01149601
:104BF000AE0FBF1FEC910895FE013196FA93EA9330
:104C0000EB89FC89FA93EA930895DE0111960E94DC
:104C1000F108DE0111960C940F09AE0FBF1FEC9145
:104C2000D001EC930895DE0111960E940B0ADE017B
:104C300011960E94E909E0CF0E94322BE0E0EA934E
:104C40000895FA93EA933ACFE4EAFBE0FA93EA9301
:104C5000EEECFCE0662777270E94482C84E00E9457
:104C6000A9242696E2E0E093F50CE093F50C089574
:104C7000A091F50CB0E0A354B34FE091F50CF0E037
:104C80003297E253F34FE081EC930895FE01E05E2A
:104C9000FD4FFA93EA930895EDEBFCE0FA93EA9363
:104CA000A1E00E94461C2E2F20300895E8EFFCE082
:104CB000FA93EA93E0E1F0E0FA93EA930895A22FE1
:104CC000BB270C94EB07DE01A05EBD4F0C942121A5
:104CD000FE01FA93EA930895EDEBFCE0FA93EA9370
:104CE000ABE00E94461C2E2F20300895E091EC0C82
:104CF000F091ED0C6091EE0C7091EF0C0895E09343
:104D0000F00CF093F10C6093F20C7093F30C089597
:104D1000E0E0EA93A0E00C94A7070E947A07E0E0A5
:104D2000EA93A1E00C94A707FE01E05EFD4F3A96DE
:104D3000DF010E941F2CDF01CB01E0E1F0E060E029
:104D400070E00E94E42BE093A80DF093A90D60930E
:104D5000AA0D7093AB0D0895E1EBFDE0FA93EA9391
:104D60000895E0E0E093AC0DE093AD0DE093AE0D5F
:104D7000E093AF0DE093F70C0895E091A80DF0914A
:104D8000A90D6091AA0D7091AB0D0895A091AC0D85
:104D9000B091AD0D8091AE0D9091AF0D0E94692C38
:104DA0000895E0E1F0E0FA93EA930895E091F70CBA
:104DB000EF5FE093F70CA091F70CA4360895EDEDAA
:104DC000FCE0FA93EA93E9E1FCE0FA93EA93E091DC
:104DD000AC0DF091AD0D6091AE0D7091AF0D0E94D4
:104DE000482CCBDF0E94482C88E00E9401232C969F
:104DF000ADEDBCE00C949107E0E0EA93A1E00E94E5
:104E0000A707DDCFA1E00E94A707A2E2BCE00C94B7
:104E10007A07DE010E942121A091F00CB091F10CE3
:104E20008091F20C9091F30C61DF0E944A2B67CFC6
:104E3000FA93EA93E091F00CF091F10C6091F20C8E
:104E40007091F30C0E94482C98DF0E94482C88E057
:104E50000E9435232A96E0E00895FA93EA93E22F20
:104E6000FF27662777270E94482C84E00E9435237D
:104E700026960895A230E0E0BE07E0E08E07E0E06D
:104E80009E070895A8EFBCE00E941C0B21CFFA9367
:104E9000EA93DE0118960895F0E00E949E2BDF0150
:104EA000CB010895E983FA836B837C830895ED81B8
:104EB000FE816F8178850895A981BA818B819C815B
:104EC0000895E985FA85A181AA93EA85FB85F29682
:104ED000FA93EA93EC81FD816E817F810E94482CD8
:104EE000A1E00C94B210A2A1B3A184A195A1089550
:104EF000E885F9856A857B8508950E94482CA1E0A4
:104F00000E944E10E0300895FA93EA93A0E0B0E0DA
:104F100080E090E00C946A139E96E0E0F0E060E0A0
:104F200070E00E942A2C0895F296FA93EA93E0E04A
:104F3000EA93A0E0B2E00C94F1240E94432CE981B2
:104F4000FA81F29608950E941F2CD0010E942A2C0B
:104F5000E981FA810895A289B389848995890E949B
:104F60004D2CA1E00895A885B9858A859B85089573
:104F7000E1E0F0E060E070E008950E941F2CEC8317
:104F8000FD836E837F830895EC85FD85FA93EA9314
:104F9000D901E0E0F2E00E94D12BAE81BF8188858B
:104FA0009985662777270E94452B0E946A13E03077
:104FB0000895AC85BD85D296F901F170AE0FBF1F83
:104FC0000895EC85FD85FA93EA93AA85BB858C85C7
:104FD0009D850895E0E0F1E060E070E00E94E42B40
:104FE0000895AE81BF81888599850E94452B0E94D6
:104FF0006A13E03008950E94CB2BF170AC85BD851B
:10500000D296AE0FBF1F08950E941B2C66277727EC
:105010000895E0E8F0E060E070E00E94E42B08957D
:10502000EFEFFFEF6FEF7FEF0895AD85BE858F85C2
:1050300098890895E989FA89FA93EA93D801E0E01A
:10504000F2E00E94D12BAF81B88589859A856627C9
:1050500077270E94452B0E946A134E2F40300895F7
:10506000A989BA89D296F801F170EA0FFB1F9F0156
:10507000ED85E1700895A985BA858B859C85089595
:10508000E989FA89FA93EA93AF85B88989899A8977
:105090000895AF81B88589859A850E94452B0E9425
:1050A0006A134E2F403008950E94CB2BF170A989CE
:1050B000BA89D296EA0FFB1F0895AD81BE818F8118
:1050C00098850895A985BA855E960E941F2CF5DF04
:1050D0000E946E2C0895A130E0E0BE07E0E08E074C
:1050E000E0E09E070895AF3FEFEFBE07EFEF8E07BA
:1050F000EFEF9E070895EF81F88569857A85089519
:10510000A0E0B0E080E090E00895A685B7858089B2
:105110009189E9CF0E943E2C0895E889F9896A892E
:105120007B890895AC81BD818E819F8108950E9405
:10513000342C0895EC83FD836E837F830895EC897E
:10514000FD89FA93EA9308950E943B14EC87FD874A
:105150006E877F870895AC85BD858E859F85089570
:10516000EC85FD856E857F850895EC81FD816E81DE
:105170007F810895E887F9876A877B870895F5DF3F
:10518000F2DE0E94692C0895E0E0F0E060E070E05B
:105190000895EA85FB856C857D850E94482C0895DD
:1051A0000E94522C0E944A2B0895A885B985149616
:1051B000ED93FC93A885B98508950E941F2CEA837E
:1051C000FB836C837D830895AA81BB818C819D8143
:1051D0000895A885B9850E941B2C08957E96DF014D
:1051E0000E941F2CF1DF0E946E2C0895EA81FB8142
:1051F0006C817D810E945F2C0895EA81FB816C8126
:105200007D81A885B9851A960E942A2CE2CF66274F
:1052100077270E94402B0895A885B9851E960E9485
:105220002A2C0895EF70F070EE0F0E947D2BEA0F8C
:10523000FB1FA885B9855296ED93FC93E0E0089595
:105240000E941F2C0E945F2C0895FA93EA93EA852E
:10525000FB85A285B385848595850895EB83FC83C2
:105260006D837E830895AB81BC818D819E8108957D
:10527000F5DFEB81FC816D817E810895FA93EA93DD
:105280001CDF0C947A16BA93AA930E94752CEC81B9
:10529000FD81FA93EA93A0E0B0E00E94B2160E2FCF
:1052A00000300895AC81BD810E941B2CFA93EA93D3
:1052B000EE81FF81A685B785808991890E946A1356
:1052C0000E2F003008953A932A93EE81FF81A4892E
:1052D000B589BA93AA93ABE0B0E008950E941B2C65
:1052E000EE83FF830895E885F985AE81BF81089537
:1052F000E885F9853196E887F9873197AE81BF81D6
:10530000AE0FBF1F1C910895E52F5F5FF0E0E30F24
:10531000F41F10830895EA0FFB1FAB85BC85ED9346
:10532000FC931132089530DF0E942A2C0895AE813B
:10533000BF8116960E942A2C0895EE81FF81FA9370
:10534000EA930895E0E0F0E0ED93FC930895A12F37
:10535000B22F549659CEA12FB22F5A960E941B2CD1
:105360000895662777270E94542B0895F296E250FD
:10537000FE4FDF010E941B2CE535AAEAFA070895CB
:105380000E941F2CEF7FFF7F6F7F7070E634A1E4D7
:10539000FA07A4E56A07A0E07A070895A6ECBDE045
:1053A000F0E0EE0FFF1FAE0FBF1F0895ED81FE81ED
:1053B000FA93EA930895E98BFA8B6B8B7C8B0895B3
:1053C000E989FA896B897C890895AD81BE81A05CE9
:1053D000BF4F0E941B2C0895AD89BE898F89988D7F
:1053E00016CFED81FE81A085B185FD010E94862B3F
:1053F0000895ED81FE8177DDE3DF0E94402B089563
:10540000ED91FD913196FE93EE930895A0E0B0E00A
:10541000A083B183E12FF22F0895A98DBA8D0E9448
:105420001B2C0895FA93EA93EB8DFC8D0895A281CD
:10543000B3810E94F71B0E2F00300895E98DFA8D7D
:10544000A681B781808591850895EF83F887698764
:105450007A8751CEA289B389848995890895A98DC7
:10546000BA8D1496EC91E068EC930895EB87FC8775
:105470006D877E870895EB85FC856D857E85089513
:10548000E98DFA8DE581F0E00895AB85BC858D85C9
:105490009E850895E0E0F2E00E94D12B3E2F4F2F31
:1054A000032E042A0895E98DFA8DA689B789808D87
:1054B000918DE1CF0E944F2BE32FF42F66277727A2
:1054C0000E946E2C08950E944F2BE0E0F2E060E015
:1054D00070E00E94AB2B0895FA93EA93A0E0B2E04B
:1054E0000C94DF241596EC91E30FEC93E32FF42F4B
:1054F000EE0FFF1FFE2FE0E01E2F2F2F0895E181FA
:10550000EA93EA8DFB8DB096FA93EA930895A68903
:10551000B789808D918D0E944D2CA1E00E94B21020
:10552000E03008951496EC91EF7BEC930895169675
:105530000E941B2CF1700895A0E0B2E0AE1BBF0BDF
:105540001A2F2B2F0895FA93EA93A12FB22F0C94C0
:10555000DF24E12FF22FAD81BE81EA0FFB1FED8327
:10556000FE83089536960F01DF010E941F2CDF0194
:10557000CB01E12FF22F4BCEED91FD91E10FF21F08
:10558000FE93EE930895AD89BE890E941B2C089569
:10559000FA93EA93EF89F88D0895AD89BE891A963A
:1055A0000E941F2C0895ED89FE89A681B781808510
:1055B00091850895AD89BE891496EC91E068EC93CD
:1055C0000895E181EA93EE89FF89B096FA93EA9310
:1055D0000895ED89FE89E581F0E00895ED89FE8961
:1055E000A689B789808D918D86CDAF81B8850E94BF
:1055F0001B2C08953A93AA89BB89EC89FD890995EA
:105600000895ED89FE893497ED8BFE8B0895AA8964
:10561000BB89EC89FD89099508950E943C2B0E9465
:105620001B2C0895FA93EA931A930A930895A22FD4
:105630000E942325E0300895AC85BD85EE85FF8569
:1056400009950895AA85BB85AC91A0300895EE8593
:10565000FF853497EE87FF87AE85BF8514960D9141
:105660001C910895109639F080ED97E00197F1F7BD
:10567000A8951197C9F708950024AF0DB01D08959E
:10568000EA0FFB1F681F791F0895AE0FBF1F861F0B
:10569000971F0895EA1BFB0B680B790B0895AE1B4F
:1056A000BF0B860B970B0895EA2BFB2B682B792BEE
:1056B0000895F195E195F0400895F0956095709505
:1056C000E195FF4F6F4F7F4F0895EE230E2EFD01A2
:1056D000BC0131F0EE0FFF1F661F771F0A94D1F750
:1056E0000895EE230E2EFD01BC0131F076956795ED
:1056F000F795E7950A94D1F70895EE0FFF1FEE0F87
:10570000FF1FEE0FFF1FEE0FFF1F0895F695E795A1
:10571000F695E795F695E795F695E7950895EE0FDA
:10572000FF1F661F771F0895E62FF72F60E070E0D8
:1057300008956E2F7F2FE0E0F0E008956F2F660F41
:10574000660B762F0895FA9FF02DEB9FF00DEA9FE0
:10575000E02DF10D08957A9F702D6B9F700DF89FCD
:10576000700DE99F700D6A9F602D710DFB9F600D9C
:10577000711DE89F600D711D8827FA9FF02D610D46
:10578000781FEB9FF00D611D781FEA9FE02DF10D52
:10579000681F781F08956E2F6A9FF0016B9FF00DB0
:1057A00008950024112490E1AA0FBB1F001C111CB6
:1057B0000E1A1F0A18F40E0E1F1E01C0A1609A9542
:1057C00099F7FD01D00108953F934F935F93002413
:1057D00011244427552730E2AA0FBB1F881F991FA9
:1057E000001C111C441F551F0E1A1F0A460B570B95
:1057F00028F40E0E1F1E461F571F01C0A1603A95C8
:1058000059F7FD01BC01D001CA015F914F913F9151
:105810000895E894B7FF04C0A095B09511966894D8
:10582000F7FD47DFBEDFFD010EF443DF0895CCDF57
:10583000FD01BC010895ED91FC9111970895ED9142
:10584000FD916D917C9113970895ED91FD916D916E
:105850007D910895ED93FD936D937C9308957E93D0
:105860006E93FE93EE930895E881F9816A817B81BE
:105870000895A881B9818A819B810895E883F9837D
:105880006A837B830895A083B18382839383089581
:105890007A936A93FA93EA9308959A938A93BA93C0
:1058A000AA930895182E862F612D192E972F712DEA
:1058B0001B2EBF2FF12D1A2EAE2FE12D08953097FC
:1058C00060407040089500240A160B060806090679
:1058D0000895EA17FB07680779070895AE17BF0711
:1058E0008607970708955A934A933A932A931A93EF
:1058F0000A9308955D814C813B812A811981088139
:105900000895AC0FBD1F05900D928A95E1F708959B
:00000001FF
